{"contracts/nfts/Pet.sol":{"Pet":{"abi":[{"inputs":[{"internalType":"address","name":"_frgTokenAddress","type":"address"}],"stateMutability":"nonpayable","type":"constructor"},{"inputs":[],"name":"InsufficientFrgBalance","type":"error"},{"anonymous":false,"inputs":[{"indexed":true,"internalType":"address","name":"owner","type":"address"},{"indexed":true,"internalType":"address","name":"approved","type":"address"},{"indexed":true,"internalType":"uint256","name":"tokenId","type":"uint256"}],"name":"Approval","type":"event"},{"anonymous":false,"inputs":[{"indexed":true,"internalType":"address","name":"owner","type":"address"},{"indexed":true,"internalType":"address","name":"operator","type":"address"},{"indexed":false,"internalType":"bool","name":"approved","type":"bool"}],"name":"ApprovalForAll","type":"event"},{"anonymous":false,"inputs":[{"indexed":true,"internalType":"address","name":"previousOwner","type":"address"},{"indexed":true,"internalType":"address","name":"newOwner","type":"address"}],"name":"OwnershipTransferred","type":"event"},{"anonymous":false,"inputs":[{"indexed":true,"internalType":"address","name":"from","type":"address"},{"indexed":true,"internalType":"address","name":"to","type":"address"},{"indexed":true,"internalType":"uint256","name":"tokenId","type":"uint256"}],"name":"Transfer","type":"event"},{"inputs":[{"internalType":"address","name":"to","type":"address"},{"internalType":"uint256","name":"tokenId","type":"uint256"}],"name":"approve","outputs":[],"stateMutability":"nonpayable","type":"function"},{"inputs":[{"internalType":"address","name":"owner","type":"address"}],"name":"balanceOf","outputs":[{"internalType":"uint256","name":"","type":"uint256"}],"stateMutability":"view","type":"function"},{"inputs":[{"internalType":"uint256","name":"tokenId","type":"uint256"}],"name":"burn","outputs":[],"stateMutability":"nonpayable","type":"function"},{"inputs":[],"name":"frgTokenAddress","outputs":[{"internalType":"contract ERC20Burnable","name":"","type":"address"}],"stateMutability":"view","type":"function"},{"inputs":[{"internalType":"uint256","name":"tokenId","type":"uint256"}],"name":"getApproved","outputs":[{"internalType":"address","name":"","type":"address"}],"stateMutability":"view","type":"function"},{"inputs":[{"internalType":"address","name":"owner","type":"address"},{"internalType":"address","name":"operator","type":"address"}],"name":"isApprovedForAll","outputs":[{"internalType":"bool","name":"","type":"bool"}],"stateMutability":"view","type":"function"},{"inputs":[],"name":"name","outputs":[{"internalType":"string","name":"","type":"string"}],"stateMutability":"view","type":"function"},{"inputs":[],"name":"owner","outputs":[{"internalType":"address","name":"","type":"address"}],"stateMutability":"view","type":"function"},{"inputs":[{"internalType":"uint256","name":"tokenId","type":"uint256"}],"name":"ownerOf","outputs":[{"internalType":"address","name":"","type":"address"}],"stateMutability":"view","type":"function"},{"inputs":[],"name":"rate","outputs":[{"internalType":"uint256","name":"","type":"uint256"}],"stateMutability":"view","type":"function"},{"inputs":[],"name":"renounceOwnership","outputs":[],"stateMutability":"nonpayable","type":"function"},{"inputs":[{"internalType":"string","name":"uri","type":"string"}],"name":"safeMintWithBurnFrg","outputs":[],"stateMutability":"nonpayable","type":"function"},{"inputs":[{"internalType":"address","name":"from","type":"address"},{"internalType":"address","name":"to","type":"address"},{"internalType":"uint256","name":"tokenId","type":"uint256"}],"name":"safeTransferFrom","outputs":[],"stateMutability":"nonpayable","type":"function"},{"inputs":[{"internalType":"address","name":"from","type":"address"},{"internalType":"address","name":"to","type":"address"},{"internalType":"uint256","name":"tokenId","type":"uint256"},{"internalType":"bytes","name":"data","type":"bytes"}],"name":"safeTransferFrom","outputs":[],"stateMutability":"nonpayable","type":"function"},{"inputs":[{"internalType":"address","name":"operator","type":"address"},{"internalType":"bool","name":"approved","type":"bool"}],"name":"setApprovalForAll","outputs":[],"stateMutability":"nonpayable","type":"function"},{"inputs":[{"internalType":"bytes4","name":"interfaceId","type":"bytes4"}],"name":"supportsInterface","outputs":[{"internalType":"bool","name":"","type":"bool"}],"stateMutability":"view","type":"function"},{"inputs":[],"name":"symbol","outputs":[{"internalType":"string","name":"","type":"string"}],"stateMutability":"view","type":"function"},{"inputs":[{"internalType":"uint256","name":"index","type":"uint256"}],"name":"tokenByIndex","outputs":[{"internalType":"uint256","name":"","type":"uint256"}],"stateMutability":"view","type":"function"},{"inputs":[{"internalType":"address","name":"owner","type":"address"},{"internalType":"uint256","name":"index","type":"uint256"}],"name":"tokenOfOwnerByIndex","outputs":[{"internalType":"uint256","name":"","type":"uint256"}],"stateMutability":"view","type":"function"},{"inputs":[{"internalType":"uint256","name":"tokenId","type":"uint256"}],"name":"tokenURI","outputs":[{"internalType":"string","name":"","type":"string"}],"stateMutability":"view","type":"function"},{"inputs":[],"name":"totalSupply","outputs":[{"internalType":"uint256","name":"","type":"uint256"}],"stateMutability":"view","type":"function"},{"inputs":[{"internalType":"address","name":"from","type":"address"},{"internalType":"address","name":"to","type":"address"},{"internalType":"uint256","name":"tokenId","type":"uint256"}],"name":"transferFrom","outputs":[],"stateMutability":"nonpayable","type":"function"},{"inputs":[{"internalType":"address","name":"newOwner","type":"address"}],"name":"transferOwnership","outputs":[],"stateMutability":"nonpayable","type":"function"}],"evm":{"bytecode":{"linkReferences":{},"object":"60a03462000394576001600160401b03601f601f1962001f7e3881900383810183168601858111878210176200037e578692829160405283396020958691810103126200039457516001600160a01b0393848216939184900362000394576200006762000399565b916003908184526214195d60ea1b888501526200008362000399565b978289526214115560ea1b818a01528451958487116200037e576000968754966001978881811c9116801562000373575b858210146200035f579081868493116200030c575b508490868311600114620002ac578a92620002a0575b505060001982871b1c191690871b1787555b89519485116200028c5785548681811c9116801562000281575b838210146200026d5783811162000225575b5081928511600114620001bb5750508495969783949593620001af575b505082841b92600019911b1c19161790555b600b54903360018060a01b0319831617600b557f8be0079c531659141344cd1fd0a4f28419497f9722a3daafe3b4186f6b6457e0604051943393169180a36064600c55608052611bc49081620003ba823960805181818161076f0152610f640152f35b0151915038806200013a565b849392919316988587528387209387905b8b82106200020d57505084869798999a10620001f2575b50505050811b0190556200014c565b01519060f884600019921b161c1916905538808080620001e3565b808885978294968601518155019601930190620001cc565b8688528288208480880160051c82019285891062000263575b0160051c019087905b828110620002575750506200011d565b89815501879062000247565b925081926200023e565b634e487b7160e01b88526022600452602488fd5b90607f16906200010b565b634e487b7160e01b87526041600452602487fd5b015190503880620000df565b90848a9416918b8052868c20928c5b88828210620002f55750508411620002dc575b505050811b018755620000f1565b015160001983891b60f8161c19169055388080620002ce565b8385015186558d97909501949384019301620002bb565b909150898052848a208680850160051c82019287861062000355575b918b91869594930160051c01915b82811062000346575050620000c9565b8c81558594508b910162000336565b9250819262000328565b634e487b7160e01b8a52602260045260248afd5b90607f1690620000b4565b634e487b7160e01b600052604160045260246000fd5b600080fd5b60408051919082016001600160401b038111838210176200037e5760405256fe6080604081815260048036101561001557600080fd5b600092833560e01c90816301ffc9a7146111c85750806306fdde0314611120578063081812fc14611100578063095ea7b314610f9357806310195e6e14610f4f57806318160ddd14610f3057806323b872dd14610f0b5780632c4e722e14610eec5780632f745c5914610e4057806342842e0e14610e0c57806342966c6814610b925780634cc37ea4146107105780634f6ccce71461067d5780636352211e1461064c57806370a082311461061f578063715018a6146105c15780638da5cb5b1461059857806395d89b41146104b5578063a22cb465146103e4578063b88d4fde14610356578063c87b56dd1461023e578063e985e9c5146101ea5763f2fde38b1461012057600080fd5b346101e65760203660031901126101e65761013961128e565b9061014261139b565b6001600160a01b03918216928315610194575050600b54826001600160601b0360a01b821617600b55167f8be0079c531659141344cd1fd0a4f28419497f9722a3daafe3b4186f6b6457e0600080a380f35b906020608492519162461bcd60e51b8352820152602660248201527f4f776e61626c653a206e6577206f776e657220697320746865207a65726f206160448201526564647265737360d01b6064820152fd5b8280fd5b50503461023a578060031936011261023a5760209161020761128e565b826102106112a9565b9260018060a01b03809316815260058652209116600052825260ff81600020541690519015158152f35b5080fd5b5082903461023a5760209182600319360112610353575035600081815260026020526040902054610279906001600160a01b0316151561146a565b600052600a81528160002091805180936000908054610297816114dc565b9182855260019187838216918260001461032c5750506001146102e9575b5050506102e592916102c8910385611326565b600081516102d5816112f4565b525192828493845283019061124e565b0390f35b86935060009291925282600020916000925b82841061031457505050820101816102c86102e56102b5565b8054848a0186015288955087949093019281016102fb565b60ff19168782015293151560051b860190930193508492506102c891506102e590506102b5565b80fd5b83823461023a57608036600319011261023a5761037161128e565b9061037a6112a9565b916044356064359367ffffffffffffffff85116103e057366023860112156103e0576103b56103d8948660246103dd98369301359101611364565b926103c86103c3843361162d565b611554565b6103d38383836116f5565b611a53565b611609565b80f35b8580fd5b5090346101e657806003193601126101e6576103fe61128e565b90602435918215158093036104b1576001600160a01b03169233841461046f57503384526005602052808420836000526020528060002060ff1981541660ff8416179055519081527f17307eab39ab6107e8899845ad3d59bd9653f200f220920489ca2b5937696c3160203392a380f35b6020606492519162461bcd60e51b8352820152601960248201527f4552433732313a20617070726f766520746f2063616c6c6572000000000000006044820152fd5b8480fd5b50503461023a578160031936011261023a578051908260018054916104d9836114dc565b808652928281169081156105705750600114610514575b505050610502826102e5940383611326565b5191829160208352602083019061124e565b94508085527fb10e2d527612073b26eecdfd717e6a320cf44b4afac2b0732d9fcbe2b7fa0cf65b828610610558575050506105028260206102e595820101946104f0565b8054602087870181019190915290950194810161053b565b6102e597508693506020925061050294915060ff191682840152151560051b820101946104f0565b50503461023a578160031936011261023a57600b5490516001600160a01b039091168152602090f35b83346103535780600319360112610353576105da61139b565b600b80546001600160a01b031981169091556000906001600160a01b03167f8be0079c531659141344cd1fd0a4f28419497f9722a3daafe3b4186f6b6457e08280a380f35b50503461023a57602036600319011261023a5760209061064561064061128e565b6113f3565b9051908152f35b509134610353576020366003190112610353575061066c602092356114b6565b90516001600160a01b039091168152f35b50823461035357602036600319011261035357508035906008548210156106b8576020836106aa84611ade565b91905490519160031b1c8152f35b608490602084519162461bcd60e51b8352820152602c60248201527f455243373231456e756d657261626c653a20676c6f62616c20696e646578206f60448201526b7574206f6620626f756e647360a01b6064820152fd5b5091903461023a57602092836003193601126101e65780359367ffffffffffffffff908186116104b157366023870112156104b157610759602496369088818701359101611364565b84516370a0823160e01b815233858201529096907f00000000000000000000000000000000000000000000000000000000000000006001600160a01b03169083818481855afa908115610b88578891610b5b575b50600c54809110610b4b57813b15610b4757879183839289519485938492630852cd8d60e31b84528b8401525af18015610b3d57610b18575b50600d549480519583870187811086821117610b045782528787523315610ac45760008181526002602052604090205461082c906001600160a01b031615155b15611b2b565b600854968189526009855287838a2055600160401b881015610ab2576103d86109249161087f8461086460019c8d8101600855611ade565b90919082549060031b600019811b9283911b16911916179055565b610888336113f3565b338c5260068852858c20818d528852858c20859055848c5260078852858c20556000848152600260205260409020546108cb906001600160a01b03161515610826565b33808c5260038852858c2080548c019055848c5260028852858c2080546001600160a01b0319168217905584908c7fddf252ad1be2c89b69c2b068fc378daa952ba7f163c4a11628f55a4df523b3ef8180a48333611937565b6000818152600260205260409020546001600160a01b031615610a59578752600a83528620938751938411610a4857505061095f83546114dc565b601f8111610a0f575b5080601f83116001146109ab5750849582939495926109a0575b5050600019600383901b1c191690831b1790555b600d5401600d5580f35b015190503880610982565b90601f198316968487528287209287905b8982106109f857505083869798969596106109df575b505050811b019055610996565b015160001960f88460031b161c191690553880806109d2565b8088859682949686015181550195019301906109bc565b610a3890848752828720601f850160051c810191848610610a3e575b601f0160051c0190611b77565b38610968565b9091508190610a2b565b634e487b7160e01b87526041905285fd5b815162461bcd60e51b8152808701859052602e818501527f45524337323155524953746f726167653a2055524920736574206f66206e6f6e60448201526d32bc34b9ba32b73a103a37b5b2b760911b6064820152608490fd5b634e487b7160e01b8952604187528389fd5b60648685858186519362461bcd60e51b85528401528201527f4552433732313a206d696e7420746f20746865207a65726f20616464726573736044820152fd5b83604188634e487b7160e01b600052526000fd5b838197929711610b2b57855294386107e6565b634e487b7160e01b8252604185528682fd5b86513d89823e3d90fd5b8780fd5b86516304a6c46b60e41b81528690fd5b90508381813d8311610b81575b610b728183611326565b81010312610b475751386107ad565b503d610b68565b87513d8a823e3d90fd5b5091903461023a57602090816003193601126101e6578335610bb76103c3823361162d565b610bc0816114b6565b6001600160a01b03908082169081610d8b575050600854828652600985528084872055600160401b811015610d785782610864826001610c039401600855611ade565b6008546000199190828101908111610d655783875260098652610c298588205491611ade565b90549060031b1c610c3d8161086484611ade565b8752600986528487205582865285848120556008548015610d5257918697879282869501610c6a81611ade565b8582549160031b1b19169055600855610c82856114b6565b918585528852868420916001600160601b0360a01b92838154169055169182845260038852868420908154019055838352600287528583209081541690557fddf252ad1be2c89b69c2b068fc378daa952ba7f163c4a11628f55a4df523b3ef8280a4600a8352610cf4828520546114dc565b610cfd57505050f35b8352600a8252822090610d1082546114dc565b9081610d1b57505050f35b81601f859311600114610d2f575050505580f35b838352818320610d4a91601f0160051c810190600101611b77565b812091555580f35b634e487b7160e01b875260318852602487fd5b634e487b7160e01b875260118852602487fd5b634e487b7160e01b865260418752602486fd5b610d94906113f3565b600019810191908211610d65578387526007865284872054828103610dd5575b50838752868581205586526006855283862090865284528483812055610c03565b8188526006875285882083895287528588205482895260068852868920828a52885280878a20558852600787528588205538610db4565b50503461023a576103d86103dd91610e23366112bf565b91925192610e30846112f4565b8684526103c86103c3843361162d565b509134610353578160031936011261035357610e5a61128e565b60243590610e67816113f3565b821015610e95576001600160a01b031682526006602090815283832091835290815290829020548251908152f35b835162461bcd60e51b8152602081870152602b60248201527f455243373231456e756d657261626c653a206f776e657220696e646578206f7560448201526a74206f6620626f756e647360a81b6064820152608490fd5b50503461023a578160031936011261023a57602090600c549051908152f35b8334610353576103dd610f1d366112bf565b91610f2b6103c3843361162d565b6116f5565b50503461023a578160031936011261023a576020906008549051908152f35b50503461023a578160031936011261023a57517f00000000000000000000000000000000000000000000000000000000000000006001600160a01b03168152602090f35b50346101e657816003193601126101e657610fac61128e565b6024359290916001600160a01b0391908280610fc7876114b6565b169416938085146110b357803314908115611094575b501561102c57848652602052842080546001600160a01b03191683179055611004836114b6565b167f8c5be1e5ebec7d5bd14f71427d1e84f3dd0314c0f7b2291e5b200ac8c7c3b9258480a480f35b6020608492519162461bcd60e51b8352820152603d60248201527f4552433732313a20617070726f76652063616c6c6572206973206e6f7420746f60448201527f6b656e206f776e6572206f7220617070726f76656420666f7220616c6c0000006064820152fd5b90508652600560205281862033875260205260ff828720541638610fdd565b506020608492519162461bcd60e51b8352820152602160248201527f4552433732313a20617070726f76616c20746f2063757272656e74206f776e656044820152603960f91b6064820152fd5b509134610353576020366003190112610353575061066c60209235611516565b50503461023a578160031936011261023a57805190828054611141816114dc565b80855291600191808316908115610570575060011461116c57505050610502826102e5940383611326565b80809650527f290decd9548b62a8d60345a988386fc84ba6bc95484008f6362f93160ef3e5635b8286106111b0575050506105028260206102e595820101946104f0565b80546020878701810191909152909501948101611193565b925050346101e65760203660031901126101e6573563ffffffff60e01b81168091036101e6576020925063780e9d6360e01b811490811561120b575b5015158152f35b6380ac58cd60e01b81149150811561123d575b811561122c575b5038611204565b6301ffc9a760e01b14905038611225565b635b5e139f60e01b8114915061121e565b919082519283825260005b84811061127a575050826000602080949584010152601f8019910116010190565b602081830181015184830182015201611259565b600435906001600160a01b03821682036112a457565b600080fd5b602435906001600160a01b03821682036112a457565b60609060031901126112a4576001600160a01b039060043582811681036112a4579160243590811681036112a4579060443590565b6020810190811067ffffffffffffffff82111761131057604052565b634e487b7160e01b600052604160045260246000fd5b90601f8019910116810190811067ffffffffffffffff82111761131057604052565b67ffffffffffffffff811161131057601f01601f191660200190565b92919261137082611348565b9161137e6040519384611326565b8294818452818301116112a4578281602093846000960137010152565b600b546001600160a01b031633036113af57565b606460405162461bcd60e51b815260206004820152602060248201527f4f776e61626c653a2063616c6c6572206973206e6f7420746865206f776e65726044820152fd5b6001600160a01b0316801561141357600052600360205260406000205490565b60405162461bcd60e51b815260206004820152602960248201527f4552433732313a2061646472657373207a65726f206973206e6f7420612076616044820152683634b21037bbb732b960b91b6064820152608490fd5b1561147157565b60405162461bcd60e51b815260206004820152601860248201527f4552433732313a20696e76616c696420746f6b656e20494400000000000000006044820152606490fd5b6000908152600260205260409020546001600160a01b03166114d981151561146a565b90565b90600182811c9216801561150c575b60208310146114f657565b634e487b7160e01b600052602260045260246000fd5b91607f16916114eb565b600081815260026020526040902054611539906001600160a01b0316151561146a565b6000908152600460205260409020546001600160a01b031690565b1561155b57565b60405162461bcd60e51b815260206004820152602d60248201527f4552433732313a2063616c6c6572206973206e6f7420746f6b656e206f776e6560448201526c1c881bdc88185c1c1c9bdd9959609a1b6064820152608490fd5b60809060208152603260208201527f4552433732313a207472616e7366657220746f206e6f6e20455243373231526560408201527131b2b4bb32b91034b6b83632b6b2b73a32b960711b60608201520190565b1561161057565b60405162461bcd60e51b815280611629600482016115b6565b0390fd5b906001600160a01b038080611641846114b6565b16931691838314938415611674575b50831561165e575b50505090565b61166a91929350611516565b1614388080611658565b909350600052600560205260406000208260005260205260ff604060002054169238611650565b156116a257565b60405162461bcd60e51b815260206004820152602560248201527f4552433732313a207472616e736665722066726f6d20696e636f72726563742060448201526437bbb732b960d91b6064820152608490fd5b61171991611702846114b6565b6001600160a01b039384841693918516841461169b565b8382169384156118e65783918261182d575090506008549085600052600960205281604060002055600160401b8210156113105761177f9261176687610864856001899701600855611ade565b8286036117fa575b50611778866114b6565b161461169b565b7fddf252ad1be2c89b69c2b068fc378daa952ba7f163c4a11628f55a4df523b3ef60008481526004602052604081206001600160601b0360a01b9081815416905583825260036020526040822060001981540190558482526040822060018154019055858252600260205284604083209182541617905580a4565b611803906113f3565b6040600087815260066020528181208382526020528882822055888152600760205220553861176e565b85830361183f575b5061177f92611766565b61184a9192506113f3565b6000198101919082116118d05761177f9284926000908882526020906007825260409182842054828103611899575b508a84528383812055868452600681528284209184525281205592611835565b8785526006825283852083865282528385205488865260068352848620828752835280858720558552600782528385205538611879565b634e487b7160e01b600052601160045260246000fd5b60405162461bcd60e51b8152602060048201526024808201527f4552433732313a207472616e7366657220746f20746865207a65726f206164646044820152637265737360e01b6064820152608490fd5b9192600092909190803b15611a4957611985946040518092630a85bd0160e11b9485835233600484015287602484015260448301526080606483015281878160209a8b96608483019061124e565b03926001600160a01b03165af1849181611a09575b506119f8575050503d6000146119f0573d6119b481611348565b906119c26040519283611326565b81528091833d92013e5b805191826119ed5760405162461bcd60e51b815280611629600482016115b6565b01fd5b5060606119cc565b6001600160e01b0319161492509050565b9091508581813d8311611a42575b611a218183611326565b810103126104b157516001600160e01b0319811681036104b157903861199a565b503d611a17565b5050915050600190565b9293600093909291803b15611ad357948491611aad9660405180948193630a85bd0160e11b9788845233600485015260018060a01b0380921660248501526044840152608060648401528260209b8c97608483019061124e565b0393165af1849181611a0957506119f8575050503d6000146119f0573d6119b481611348565b505050915050600190565b600854811015611b155760086000527ff3f7a9fe364faab93b216da50a3214154f22a0a2b415b23a84c8169e8b636ee30190600090565b634e487b7160e01b600052603260045260246000fd5b15611b3257565b60405162461bcd60e51b815260206004820152601c60248201527f4552433732313a20746f6b656e20616c7265616479206d696e746564000000006044820152606490fd5b818110611b82575050565b60008155600101611b7756fea264697066735822122022960c15fa183919888a81531fed197c950056f2e3b76ab57a5493048e933e9564736f6c63430008110033","opcodes":"PUSH1 0xA0 CALLVALUE PUSH3 0x394 JUMPI PUSH1 0x1 PUSH1 0x1 PUSH1 0x40 SHL SUB PUSH1 0x1F PUSH1 0x1F NOT PUSH3 0x1F7E CODESIZE DUP2 SWAP1 SUB DUP4 DUP2 ADD DUP4 AND DUP7 ADD DUP6 DUP2 GT DUP8 DUP3 LT OR PUSH3 0x37E JUMPI DUP7 SWAP3 DUP3 SWAP2 PUSH1 0x40 MSTORE DUP4 CODECOPY PUSH1 0x20 SWAP6 DUP7 SWAP2 DUP2 ADD SUB SLT PUSH3 0x394 JUMPI MLOAD PUSH1 0x1 PUSH1 0x1 PUSH1 0xA0 SHL SUB SWAP4 DUP5 DUP3 AND SWAP4 SWAP2 DUP5 SWAP1 SUB PUSH3 0x394 JUMPI PUSH3 0x67 PUSH3 0x399 JUMP JUMPDEST SWAP2 PUSH1 0x3 SWAP1 DUP2 DUP5 MSTORE PUSH3 0x14195D PUSH1 0xEA SHL DUP9 DUP6 ADD MSTORE PUSH3 0x83 PUSH3 0x399 JUMP JUMPDEST SWAP8 DUP3 DUP10 MSTORE PUSH3 0x141155 PUSH1 0xEA SHL DUP2 DUP11 ADD MSTORE DUP5 MLOAD SWAP6 DUP5 DUP8 GT PUSH3 0x37E JUMPI PUSH1 0x0 SWAP7 DUP8 SLOAD SWAP7 PUSH1 0x1 SWAP8 DUP9 DUP2 DUP2 SHR SWAP2 AND DUP1 ISZERO PUSH3 0x373 JUMPI JUMPDEST DUP6 DUP3 LT EQ PUSH3 0x35F JUMPI SWAP1 DUP2 DUP7 DUP5 SWAP4 GT PUSH3 0x30C JUMPI JUMPDEST POP DUP5 SWAP1 DUP7 DUP4 GT PUSH1 0x1 EQ PUSH3 0x2AC JUMPI DUP11 SWAP3 PUSH3 0x2A0 JUMPI JUMPDEST POP POP PUSH1 0x0 NOT DUP3 DUP8 SHL SHR NOT AND SWAP1 DUP8 SHL OR DUP8 SSTORE JUMPDEST DUP10 MLOAD SWAP5 DUP6 GT PUSH3 0x28C JUMPI DUP6 SLOAD DUP7 DUP2 DUP2 SHR SWAP2 AND DUP1 ISZERO PUSH3 0x281 JUMPI JUMPDEST DUP4 DUP3 LT EQ PUSH3 0x26D JUMPI DUP4 DUP2 GT PUSH3 0x225 JUMPI JUMPDEST POP DUP2 SWAP3 DUP6 GT PUSH1 0x1 EQ PUSH3 0x1BB JUMPI POP POP DUP5 SWAP6 SWAP7 SWAP8 DUP4 SWAP5 SWAP6 SWAP4 PUSH3 0x1AF JUMPI JUMPDEST POP POP DUP3 DUP5 SHL SWAP3 PUSH1 0x0 NOT SWAP2 SHL SHR NOT AND OR SWAP1 SSTORE JUMPDEST PUSH1 0xB SLOAD SWAP1 CALLER PUSH1 0x1 DUP1 PUSH1 0xA0 SHL SUB NOT DUP4 AND OR PUSH1 0xB SSTORE PUSH32 0x8BE0079C531659141344CD1FD0A4F28419497F9722A3DAAFE3B4186F6B6457E0 PUSH1 0x40 MLOAD SWAP5 CALLER SWAP4 AND SWAP2 DUP1 LOG3 PUSH1 0x64 PUSH1 0xC SSTORE PUSH1 0x80 MSTORE PUSH2 0x1BC4 SWAP1 DUP2 PUSH3 0x3BA DUP3 CODECOPY PUSH1 0x80 MLOAD DUP2 DUP2 DUP2 PUSH2 0x76F ADD MSTORE PUSH2 0xF64 ADD MSTORE RETURN JUMPDEST ADD MLOAD SWAP2 POP CODESIZE DUP1 PUSH3 0x13A JUMP JUMPDEST DUP5 SWAP4 SWAP3 SWAP2 SWAP4 AND SWAP9 DUP6 DUP8 MSTORE DUP4 DUP8 KECCAK256 SWAP4 DUP8 SWAP1 JUMPDEST DUP12 DUP3 LT PUSH3 0x20D JUMPI POP POP DUP5 DUP7 SWAP8 SWAP9 SWAP10 SWAP11 LT PUSH3 0x1F2 JUMPI JUMPDEST POP POP POP POP DUP2 SHL ADD SWAP1 SSTORE PUSH3 0x14C JUMP JUMPDEST ADD MLOAD SWAP1 PUSH1 0xF8 DUP5 PUSH1 0x0 NOT SWAP3 SHL AND SHR NOT AND SWAP1 SSTORE CODESIZE DUP1 DUP1 DUP1 PUSH3 0x1E3 JUMP JUMPDEST DUP1 DUP9 DUP6 SWAP8 DUP3 SWAP5 SWAP7 DUP7 ADD MLOAD DUP2 SSTORE ADD SWAP7 ADD SWAP4 ADD SWAP1 PUSH3 0x1CC JUMP JUMPDEST DUP7 DUP9 MSTORE DUP3 DUP9 KECCAK256 DUP5 DUP1 DUP9 ADD PUSH1 0x5 SHR DUP3 ADD SWAP3 DUP6 DUP10 LT PUSH3 0x263 JUMPI JUMPDEST ADD PUSH1 0x5 SHR ADD SWAP1 DUP8 SWAP1 JUMPDEST DUP3 DUP2 LT PUSH3 0x257 JUMPI POP POP PUSH3 0x11D JUMP JUMPDEST DUP10 DUP2 SSTORE ADD DUP8 SWAP1 PUSH3 0x247 JUMP JUMPDEST SWAP3 POP DUP2 SWAP3 PUSH3 0x23E JUMP JUMPDEST PUSH4 0x4E487B71 PUSH1 0xE0 SHL DUP9 MSTORE PUSH1 0x22 PUSH1 0x4 MSTORE PUSH1 0x24 DUP9 REVERT JUMPDEST SWAP1 PUSH1 0x7F AND SWAP1 PUSH3 0x10B JUMP JUMPDEST PUSH4 0x4E487B71 PUSH1 0xE0 SHL DUP8 MSTORE PUSH1 0x41 PUSH1 0x4 MSTORE PUSH1 0x24 DUP8 REVERT JUMPDEST ADD MLOAD SWAP1 POP CODESIZE DUP1 PUSH3 0xDF JUMP JUMPDEST SWAP1 DUP5 DUP11 SWAP5 AND SWAP2 DUP12 DUP1 MSTORE DUP7 DUP13 KECCAK256 SWAP3 DUP13 JUMPDEST DUP9 DUP3 DUP3 LT PUSH3 0x2F5 JUMPI POP POP DUP5 GT PUSH3 0x2DC JUMPI JUMPDEST POP POP POP DUP2 SHL ADD DUP8 SSTORE PUSH3 0xF1 JUMP JUMPDEST ADD MLOAD PUSH1 0x0 NOT DUP4 DUP10 SHL PUSH1 0xF8 AND SHR NOT AND SWAP1 SSTORE CODESIZE DUP1 DUP1 PUSH3 0x2CE JUMP JUMPDEST DUP4 DUP6 ADD MLOAD DUP7 SSTORE DUP14 SWAP8 SWAP1 SWAP6 ADD SWAP5 SWAP4 DUP5 ADD SWAP4 ADD PUSH3 0x2BB JUMP JUMPDEST SWAP1 SWAP2 POP DUP10 DUP1 MSTORE DUP5 DUP11 KECCAK256 DUP7 DUP1 DUP6 ADD PUSH1 0x5 SHR DUP3 ADD SWAP3 DUP8 DUP7 LT PUSH3 0x355 JUMPI JUMPDEST SWAP2 DUP12 SWAP2 DUP7 SWAP6 SWAP5 SWAP4 ADD PUSH1 0x5 SHR ADD SWAP2 JUMPDEST DUP3 DUP2 LT PUSH3 0x346 JUMPI POP POP PUSH3 0xC9 JUMP JUMPDEST DUP13 DUP2 SSTORE DUP6 SWAP5 POP DUP12 SWAP2 ADD PUSH3 0x336 JUMP JUMPDEST SWAP3 POP DUP2 SWAP3 PUSH3 0x328 JUMP JUMPDEST PUSH4 0x4E487B71 PUSH1 0xE0 SHL DUP11 MSTORE PUSH1 0x22 PUSH1 0x4 MSTORE PUSH1 0x24 DUP11 REVERT JUMPDEST SWAP1 PUSH1 0x7F AND SWAP1 PUSH3 0xB4 JUMP JUMPDEST PUSH4 0x4E487B71 PUSH1 0xE0 SHL PUSH1 0x0 MSTORE PUSH1 0x41 PUSH1 0x4 MSTORE PUSH1 0x24 PUSH1 0x0 REVERT JUMPDEST PUSH1 0x0 DUP1 REVERT JUMPDEST PUSH1 0x40 DUP1 MLOAD SWAP2 SWAP1 DUP3 ADD PUSH1 0x1 PUSH1 0x1 PUSH1 0x40 SHL SUB DUP2 GT DUP4 DUP3 LT OR PUSH3 0x37E JUMPI PUSH1 0x40 MSTORE JUMP INVALID PUSH1 0x80 PUSH1 0x40 DUP2 DUP2 MSTORE PUSH1 0x4 DUP1 CALLDATASIZE LT ISZERO PUSH2 0x15 JUMPI PUSH1 0x0 DUP1 REVERT JUMPDEST PUSH1 0x0 SWAP3 DUP4 CALLDATALOAD PUSH1 0xE0 SHR SWAP1 DUP2 PUSH4 0x1FFC9A7 EQ PUSH2 0x11C8 JUMPI POP DUP1 PUSH4 0x6FDDE03 EQ PUSH2 0x1120 JUMPI DUP1 PUSH4 0x81812FC EQ PUSH2 0x1100 JUMPI DUP1 PUSH4 0x95EA7B3 EQ PUSH2 0xF93 JUMPI DUP1 PUSH4 0x10195E6E EQ PUSH2 0xF4F JUMPI DUP1 PUSH4 0x18160DDD EQ PUSH2 0xF30 JUMPI DUP1 PUSH4 0x23B872DD EQ PUSH2 0xF0B JUMPI DUP1 PUSH4 0x2C4E722E EQ PUSH2 0xEEC JUMPI DUP1 PUSH4 0x2F745C59 EQ PUSH2 0xE40 JUMPI DUP1 PUSH4 0x42842E0E EQ PUSH2 0xE0C JUMPI DUP1 PUSH4 0x42966C68 EQ PUSH2 0xB92 JUMPI DUP1 PUSH4 0x4CC37EA4 EQ PUSH2 0x710 JUMPI DUP1 PUSH4 0x4F6CCCE7 EQ PUSH2 0x67D JUMPI DUP1 PUSH4 0x6352211E EQ PUSH2 0x64C JUMPI DUP1 PUSH4 0x70A08231 EQ PUSH2 0x61F JUMPI DUP1 PUSH4 0x715018A6 EQ PUSH2 0x5C1 JUMPI DUP1 PUSH4 0x8DA5CB5B EQ PUSH2 0x598 JUMPI DUP1 PUSH4 0x95D89B41 EQ PUSH2 0x4B5 JUMPI DUP1 PUSH4 0xA22CB465 EQ PUSH2 0x3E4 JUMPI DUP1 PUSH4 0xB88D4FDE EQ PUSH2 0x356 JUMPI DUP1 PUSH4 0xC87B56DD EQ PUSH2 0x23E JUMPI DUP1 PUSH4 0xE985E9C5 EQ PUSH2 0x1EA JUMPI PUSH4 0xF2FDE38B EQ PUSH2 0x120 JUMPI PUSH1 0x0 DUP1 REVERT JUMPDEST CALLVALUE PUSH2 0x1E6 JUMPI PUSH1 0x20 CALLDATASIZE PUSH1 0x3 NOT ADD SLT PUSH2 0x1E6 JUMPI PUSH2 0x139 PUSH2 0x128E JUMP JUMPDEST SWAP1 PUSH2 0x142 PUSH2 0x139B JUMP JUMPDEST PUSH1 0x1 PUSH1 0x1 PUSH1 0xA0 SHL SUB SWAP2 DUP3 AND SWAP3 DUP4 ISZERO PUSH2 0x194 JUMPI POP POP PUSH1 0xB SLOAD DUP3 PUSH1 0x1 PUSH1 0x1 PUSH1 0x60 SHL SUB PUSH1 0xA0 SHL DUP3 AND OR PUSH1 0xB SSTORE AND PUSH32 0x8BE0079C531659141344CD1FD0A4F28419497F9722A3DAAFE3B4186F6B6457E0 PUSH1 0x0 DUP1 LOG3 DUP1 RETURN JUMPDEST SWAP1 PUSH1 0x20 PUSH1 0x84 SWAP3 MLOAD SWAP2 PUSH3 0x461BCD PUSH1 0xE5 SHL DUP4 MSTORE DUP3 ADD MSTORE PUSH1 0x26 PUSH1 0x24 DUP3 ADD MSTORE PUSH32 0x4F776E61626C653A206E6577206F776E657220697320746865207A65726F2061 PUSH1 0x44 DUP3 ADD MSTORE PUSH6 0x646472657373 PUSH1 0xD0 SHL PUSH1 0x64 DUP3 ADD MSTORE REVERT JUMPDEST DUP3 DUP1 REVERT JUMPDEST POP POP CALLVALUE PUSH2 0x23A JUMPI DUP1 PUSH1 0x3 NOT CALLDATASIZE ADD SLT PUSH2 0x23A JUMPI PUSH1 0x20 SWAP2 PUSH2 0x207 PUSH2 0x128E JUMP JUMPDEST DUP3 PUSH2 0x210 PUSH2 0x12A9 JUMP JUMPDEST SWAP3 PUSH1 0x1 DUP1 PUSH1 0xA0 SHL SUB DUP1 SWAP4 AND DUP2 MSTORE PUSH1 0x5 DUP7 MSTORE KECCAK256 SWAP2 AND PUSH1 0x0 MSTORE DUP3 MSTORE PUSH1 0xFF DUP2 PUSH1 0x0 KECCAK256 SLOAD AND SWAP1 MLOAD SWAP1 ISZERO ISZERO DUP2 MSTORE RETURN JUMPDEST POP DUP1 REVERT JUMPDEST POP DUP3 SWAP1 CALLVALUE PUSH2 0x23A JUMPI PUSH1 0x20 SWAP2 DUP3 PUSH1 0x3 NOT CALLDATASIZE ADD SLT PUSH2 0x353 JUMPI POP CALLDATALOAD PUSH1 0x0 DUP2 DUP2 MSTORE PUSH1 0x2 PUSH1 0x20 MSTORE PUSH1 0x40 SWAP1 KECCAK256 SLOAD PUSH2 0x279 SWAP1 PUSH1 0x1 PUSH1 0x1 PUSH1 0xA0 SHL SUB AND ISZERO ISZERO PUSH2 0x146A JUMP JUMPDEST PUSH1 0x0 MSTORE PUSH1 0xA DUP2 MSTORE DUP2 PUSH1 0x0 KECCAK256 SWAP2 DUP1 MLOAD DUP1 SWAP4 PUSH1 0x0 SWAP1 DUP1 SLOAD PUSH2 0x297 DUP2 PUSH2 0x14DC JUMP JUMPDEST SWAP2 DUP3 DUP6 MSTORE PUSH1 0x1 SWAP2 DUP8 DUP4 DUP3 AND SWAP2 DUP3 PUSH1 0x0 EQ PUSH2 0x32C JUMPI POP POP PUSH1 0x1 EQ PUSH2 0x2E9 JUMPI JUMPDEST POP POP POP PUSH2 0x2E5 SWAP3 SWAP2 PUSH2 0x2C8 SWAP2 SUB DUP6 PUSH2 0x1326 JUMP JUMPDEST PUSH1 0x0 DUP2 MLOAD PUSH2 0x2D5 DUP2 PUSH2 0x12F4 JUMP JUMPDEST MSTORE MLOAD SWAP3 DUP3 DUP5 SWAP4 DUP5 MSTORE DUP4 ADD SWAP1 PUSH2 0x124E JUMP JUMPDEST SUB SWAP1 RETURN JUMPDEST DUP7 SWAP4 POP PUSH1 0x0 SWAP3 SWAP2 SWAP3 MSTORE DUP3 PUSH1 0x0 KECCAK256 SWAP2 PUSH1 0x0 SWAP3 JUMPDEST DUP3 DUP5 LT PUSH2 0x314 JUMPI POP POP POP DUP3 ADD ADD DUP2 PUSH2 0x2C8 PUSH2 0x2E5 PUSH2 0x2B5 JUMP JUMPDEST DUP1 SLOAD DUP5 DUP11 ADD DUP7 ADD MSTORE DUP9 SWAP6 POP DUP8 SWAP5 SWAP1 SWAP4 ADD SWAP3 DUP2 ADD PUSH2 0x2FB JUMP JUMPDEST PUSH1 0xFF NOT AND DUP8 DUP3 ADD MSTORE SWAP4 ISZERO ISZERO PUSH1 0x5 SHL DUP7 ADD SWAP1 SWAP4 ADD SWAP4 POP DUP5 SWAP3 POP PUSH2 0x2C8 SWAP2 POP PUSH2 0x2E5 SWAP1 POP PUSH2 0x2B5 JUMP JUMPDEST DUP1 REVERT JUMPDEST DUP4 DUP3 CALLVALUE PUSH2 0x23A JUMPI PUSH1 0x80 CALLDATASIZE PUSH1 0x3 NOT ADD SLT PUSH2 0x23A JUMPI PUSH2 0x371 PUSH2 0x128E JUMP JUMPDEST SWAP1 PUSH2 0x37A PUSH2 0x12A9 JUMP JUMPDEST SWAP2 PUSH1 0x44 CALLDATALOAD PUSH1 0x64 CALLDATALOAD SWAP4 PUSH8 0xFFFFFFFFFFFFFFFF DUP6 GT PUSH2 0x3E0 JUMPI CALLDATASIZE PUSH1 0x23 DUP7 ADD SLT ISZERO PUSH2 0x3E0 JUMPI PUSH2 0x3B5 PUSH2 0x3D8 SWAP5 DUP7 PUSH1 0x24 PUSH2 0x3DD SWAP9 CALLDATASIZE SWAP4 ADD CALLDATALOAD SWAP2 ADD PUSH2 0x1364 JUMP JUMPDEST SWAP3 PUSH2 0x3C8 PUSH2 0x3C3 DUP5 CALLER PUSH2 0x162D JUMP JUMPDEST PUSH2 0x1554 JUMP JUMPDEST PUSH2 0x3D3 DUP4 DUP4 DUP4 PUSH2 0x16F5 JUMP JUMPDEST PUSH2 0x1A53 JUMP JUMPDEST PUSH2 0x1609 JUMP JUMPDEST DUP1 RETURN JUMPDEST DUP6 DUP1 REVERT JUMPDEST POP SWAP1 CALLVALUE PUSH2 0x1E6 JUMPI DUP1 PUSH1 0x3 NOT CALLDATASIZE ADD SLT PUSH2 0x1E6 JUMPI PUSH2 0x3FE PUSH2 0x128E JUMP JUMPDEST SWAP1 PUSH1 0x24 CALLDATALOAD SWAP2 DUP3 ISZERO ISZERO DUP1 SWAP4 SUB PUSH2 0x4B1 JUMPI PUSH1 0x1 PUSH1 0x1 PUSH1 0xA0 SHL SUB AND SWAP3 CALLER DUP5 EQ PUSH2 0x46F JUMPI POP CALLER DUP5 MSTORE PUSH1 0x5 PUSH1 0x20 MSTORE DUP1 DUP5 KECCAK256 DUP4 PUSH1 0x0 MSTORE PUSH1 0x20 MSTORE DUP1 PUSH1 0x0 KECCAK256 PUSH1 0xFF NOT DUP2 SLOAD AND PUSH1 0xFF DUP5 AND OR SWAP1 SSTORE MLOAD SWAP1 DUP2 MSTORE PUSH32 0x17307EAB39AB6107E8899845AD3D59BD9653F200F220920489CA2B5937696C31 PUSH1 0x20 CALLER SWAP3 LOG3 DUP1 RETURN JUMPDEST PUSH1 0x20 PUSH1 0x64 SWAP3 MLOAD SWAP2 PUSH3 0x461BCD PUSH1 0xE5 SHL DUP4 MSTORE DUP3 ADD MSTORE PUSH1 0x19 PUSH1 0x24 DUP3 ADD MSTORE PUSH32 0x4552433732313A20617070726F766520746F2063616C6C657200000000000000 PUSH1 0x44 DUP3 ADD MSTORE REVERT JUMPDEST DUP5 DUP1 REVERT JUMPDEST POP POP CALLVALUE PUSH2 0x23A JUMPI DUP2 PUSH1 0x3 NOT CALLDATASIZE ADD SLT PUSH2 0x23A JUMPI DUP1 MLOAD SWAP1 DUP3 PUSH1 0x1 DUP1 SLOAD SWAP2 PUSH2 0x4D9 DUP4 PUSH2 0x14DC JUMP JUMPDEST DUP1 DUP7 MSTORE SWAP3 DUP3 DUP2 AND SWAP1 DUP2 ISZERO PUSH2 0x570 JUMPI POP PUSH1 0x1 EQ PUSH2 0x514 JUMPI JUMPDEST POP POP POP PUSH2 0x502 DUP3 PUSH2 0x2E5 SWAP5 SUB DUP4 PUSH2 0x1326 JUMP JUMPDEST MLOAD SWAP2 DUP3 SWAP2 PUSH1 0x20 DUP4 MSTORE PUSH1 0x20 DUP4 ADD SWAP1 PUSH2 0x124E JUMP JUMPDEST SWAP5 POP DUP1 DUP6 MSTORE PUSH32 0xB10E2D527612073B26EECDFD717E6A320CF44B4AFAC2B0732D9FCBE2B7FA0CF6 JUMPDEST DUP3 DUP7 LT PUSH2 0x558 JUMPI POP POP POP PUSH2 0x502 DUP3 PUSH1 0x20 PUSH2 0x2E5 SWAP6 DUP3 ADD ADD SWAP5 PUSH2 0x4F0 JUMP JUMPDEST DUP1 SLOAD PUSH1 0x20 DUP8 DUP8 ADD DUP2 ADD SWAP2 SWAP1 SWAP2 MSTORE SWAP1 SWAP6 ADD SWAP5 DUP2 ADD PUSH2 0x53B JUMP JUMPDEST PUSH2 0x2E5 SWAP8 POP DUP7 SWAP4 POP PUSH1 0x20 SWAP3 POP PUSH2 0x502 SWAP5 SWAP2 POP PUSH1 0xFF NOT AND DUP3 DUP5 ADD MSTORE ISZERO ISZERO PUSH1 0x5 SHL DUP3 ADD ADD SWAP5 PUSH2 0x4F0 JUMP JUMPDEST POP POP CALLVALUE PUSH2 0x23A JUMPI DUP2 PUSH1 0x3 NOT CALLDATASIZE ADD SLT PUSH2 0x23A JUMPI PUSH1 0xB SLOAD SWAP1 MLOAD PUSH1 0x1 PUSH1 0x1 PUSH1 0xA0 SHL SUB SWAP1 SWAP2 AND DUP2 MSTORE PUSH1 0x20 SWAP1 RETURN JUMPDEST DUP4 CALLVALUE PUSH2 0x353 JUMPI DUP1 PUSH1 0x3 NOT CALLDATASIZE ADD SLT PUSH2 0x353 JUMPI PUSH2 0x5DA PUSH2 0x139B JUMP JUMPDEST PUSH1 0xB DUP1 SLOAD PUSH1 0x1 PUSH1 0x1 PUSH1 0xA0 SHL SUB NOT DUP2 AND SWAP1 SWAP2 SSTORE PUSH1 0x0 SWAP1 PUSH1 0x1 PUSH1 0x1 PUSH1 0xA0 SHL SUB AND PUSH32 0x8BE0079C531659141344CD1FD0A4F28419497F9722A3DAAFE3B4186F6B6457E0 DUP3 DUP1 LOG3 DUP1 RETURN JUMPDEST POP POP CALLVALUE PUSH2 0x23A JUMPI PUSH1 0x20 CALLDATASIZE PUSH1 0x3 NOT ADD SLT PUSH2 0x23A JUMPI PUSH1 0x20 SWAP1 PUSH2 0x645 PUSH2 0x640 PUSH2 0x128E JUMP JUMPDEST PUSH2 0x13F3 JUMP JUMPDEST SWAP1 MLOAD SWAP1 DUP2 MSTORE RETURN JUMPDEST POP SWAP2 CALLVALUE PUSH2 0x353 JUMPI PUSH1 0x20 CALLDATASIZE PUSH1 0x3 NOT ADD SLT PUSH2 0x353 JUMPI POP PUSH2 0x66C PUSH1 0x20 SWAP3 CALLDATALOAD PUSH2 0x14B6 JUMP JUMPDEST SWAP1 MLOAD PUSH1 0x1 PUSH1 0x1 PUSH1 0xA0 SHL SUB SWAP1 SWAP2 AND DUP2 MSTORE RETURN JUMPDEST POP DUP3 CALLVALUE PUSH2 0x353 JUMPI PUSH1 0x20 CALLDATASIZE PUSH1 0x3 NOT ADD SLT PUSH2 0x353 JUMPI POP DUP1 CALLDATALOAD SWAP1 PUSH1 0x8 SLOAD DUP3 LT ISZERO PUSH2 0x6B8 JUMPI PUSH1 0x20 DUP4 PUSH2 0x6AA DUP5 PUSH2 0x1ADE JUMP JUMPDEST SWAP2 SWAP1 SLOAD SWAP1 MLOAD SWAP2 PUSH1 0x3 SHL SHR DUP2 MSTORE RETURN JUMPDEST PUSH1 0x84 SWAP1 PUSH1 0x20 DUP5 MLOAD SWAP2 PUSH3 0x461BCD PUSH1 0xE5 SHL DUP4 MSTORE DUP3 ADD MSTORE PUSH1 0x2C PUSH1 0x24 DUP3 ADD MSTORE PUSH32 0x455243373231456E756D657261626C653A20676C6F62616C20696E646578206F PUSH1 0x44 DUP3 ADD MSTORE PUSH12 0x7574206F6620626F756E6473 PUSH1 0xA0 SHL PUSH1 0x64 DUP3 ADD MSTORE REVERT JUMPDEST POP SWAP2 SWAP1 CALLVALUE PUSH2 0x23A JUMPI PUSH1 0x20 SWAP3 DUP4 PUSH1 0x3 NOT CALLDATASIZE ADD SLT PUSH2 0x1E6 JUMPI DUP1 CALLDATALOAD SWAP4 PUSH8 0xFFFFFFFFFFFFFFFF SWAP1 DUP2 DUP7 GT PUSH2 0x4B1 JUMPI CALLDATASIZE PUSH1 0x23 DUP8 ADD SLT ISZERO PUSH2 0x4B1 JUMPI PUSH2 0x759 PUSH1 0x24 SWAP7 CALLDATASIZE SWAP1 DUP9 DUP2 DUP8 ADD CALLDATALOAD SWAP2 ADD PUSH2 0x1364 JUMP JUMPDEST DUP5 MLOAD PUSH4 0x70A08231 PUSH1 0xE0 SHL DUP2 MSTORE CALLER DUP6 DUP3 ADD MSTORE SWAP1 SWAP7 SWAP1 PUSH32 0x0 PUSH1 0x1 PUSH1 0x1 PUSH1 0xA0 SHL SUB AND SWAP1 DUP4 DUP2 DUP5 DUP2 DUP6 GAS STATICCALL SWAP1 DUP2 ISZERO PUSH2 0xB88 JUMPI DUP9 SWAP2 PUSH2 0xB5B JUMPI JUMPDEST POP PUSH1 0xC SLOAD DUP1 SWAP2 LT PUSH2 0xB4B JUMPI DUP2 EXTCODESIZE ISZERO PUSH2 0xB47 JUMPI DUP8 SWAP2 DUP4 DUP4 SWAP3 DUP10 MLOAD SWAP5 DUP6 SWAP4 DUP5 SWAP3 PUSH4 0x852CD8D PUSH1 0xE3 SHL DUP5 MSTORE DUP12 DUP5 ADD MSTORE GAS CALL DUP1 ISZERO PUSH2 0xB3D JUMPI PUSH2 0xB18 JUMPI JUMPDEST POP PUSH1 0xD SLOAD SWAP5 DUP1 MLOAD SWAP6 DUP4 DUP8 ADD DUP8 DUP2 LT DUP7 DUP3 GT OR PUSH2 0xB04 JUMPI DUP3 MSTORE DUP8 DUP8 MSTORE CALLER ISZERO PUSH2 0xAC4 JUMPI PUSH1 0x0 DUP2 DUP2 MSTORE PUSH1 0x2 PUSH1 0x20 MSTORE PUSH1 0x40 SWAP1 KECCAK256 SLOAD PUSH2 0x82C SWAP1 PUSH1 0x1 PUSH1 0x1 PUSH1 0xA0 SHL SUB AND ISZERO ISZERO JUMPDEST ISZERO PUSH2 0x1B2B JUMP JUMPDEST PUSH1 0x8 SLOAD SWAP7 DUP2 DUP10 MSTORE PUSH1 0x9 DUP6 MSTORE DUP8 DUP4 DUP11 KECCAK256 SSTORE PUSH1 0x1 PUSH1 0x40 SHL DUP9 LT ISZERO PUSH2 0xAB2 JUMPI PUSH2 0x3D8 PUSH2 0x924 SWAP2 PUSH2 0x87F DUP5 PUSH2 0x864 PUSH1 0x1 SWAP13 DUP14 DUP2 ADD PUSH1 0x8 SSTORE PUSH2 0x1ADE JUMP JUMPDEST SWAP1 SWAP2 SWAP1 DUP3 SLOAD SWAP1 PUSH1 0x3 SHL PUSH1 0x0 NOT DUP2 SHL SWAP3 DUP4 SWAP2 SHL AND SWAP2 NOT AND OR SWAP1 SSTORE JUMP JUMPDEST PUSH2 0x888 CALLER PUSH2 0x13F3 JUMP JUMPDEST CALLER DUP13 MSTORE PUSH1 0x6 DUP9 MSTORE DUP6 DUP13 KECCAK256 DUP2 DUP14 MSTORE DUP9 MSTORE DUP6 DUP13 KECCAK256 DUP6 SWAP1 SSTORE DUP5 DUP13 MSTORE PUSH1 0x7 DUP9 MSTORE DUP6 DUP13 KECCAK256 SSTORE PUSH1 0x0 DUP5 DUP2 MSTORE PUSH1 0x2 PUSH1 0x20 MSTORE PUSH1 0x40 SWAP1 KECCAK256 SLOAD PUSH2 0x8CB SWAP1 PUSH1 0x1 PUSH1 0x1 PUSH1 0xA0 SHL SUB AND ISZERO ISZERO PUSH2 0x826 JUMP JUMPDEST CALLER DUP1 DUP13 MSTORE PUSH1 0x3 DUP9 MSTORE DUP6 DUP13 KECCAK256 DUP1 SLOAD DUP13 ADD SWAP1 SSTORE DUP5 DUP13 MSTORE PUSH1 0x2 DUP9 MSTORE DUP6 DUP13 KECCAK256 DUP1 SLOAD PUSH1 0x1 PUSH1 0x1 PUSH1 0xA0 SHL SUB NOT AND DUP3 OR SWAP1 SSTORE DUP5 SWAP1 DUP13 PUSH32 0xDDF252AD1BE2C89B69C2B068FC378DAA952BA7F163C4A11628F55A4DF523B3EF DUP2 DUP1 LOG4 DUP4 CALLER PUSH2 0x1937 JUMP JUMPDEST PUSH1 0x0 DUP2 DUP2 MSTORE PUSH1 0x2 PUSH1 0x20 MSTORE PUSH1 0x40 SWAP1 KECCAK256 SLOAD PUSH1 0x1 PUSH1 0x1 PUSH1 0xA0 SHL SUB AND ISZERO PUSH2 0xA59 JUMPI DUP8 MSTORE PUSH1 0xA DUP4 MSTORE DUP7 KECCAK256 SWAP4 DUP8 MLOAD SWAP4 DUP5 GT PUSH2 0xA48 JUMPI POP POP PUSH2 0x95F DUP4 SLOAD PUSH2 0x14DC JUMP JUMPDEST PUSH1 0x1F DUP2 GT PUSH2 0xA0F JUMPI JUMPDEST POP DUP1 PUSH1 0x1F DUP4 GT PUSH1 0x1 EQ PUSH2 0x9AB JUMPI POP DUP5 SWAP6 DUP3 SWAP4 SWAP5 SWAP6 SWAP3 PUSH2 0x9A0 JUMPI JUMPDEST POP POP PUSH1 0x0 NOT PUSH1 0x3 DUP4 SWAP1 SHL SHR NOT AND SWAP1 DUP4 SHL OR SWAP1 SSTORE JUMPDEST PUSH1 0xD SLOAD ADD PUSH1 0xD SSTORE DUP1 RETURN JUMPDEST ADD MLOAD SWAP1 POP CODESIZE DUP1 PUSH2 0x982 JUMP JUMPDEST SWAP1 PUSH1 0x1F NOT DUP4 AND SWAP7 DUP5 DUP8 MSTORE DUP3 DUP8 KECCAK256 SWAP3 DUP8 SWAP1 JUMPDEST DUP10 DUP3 LT PUSH2 0x9F8 JUMPI POP POP DUP4 DUP7 SWAP8 SWAP9 SWAP7 SWAP6 SWAP7 LT PUSH2 0x9DF JUMPI JUMPDEST POP POP POP DUP2 SHL ADD SWAP1 SSTORE PUSH2 0x996 JUMP JUMPDEST ADD MLOAD PUSH1 0x0 NOT PUSH1 0xF8 DUP5 PUSH1 0x3 SHL AND SHR NOT AND SWAP1 SSTORE CODESIZE DUP1 DUP1 PUSH2 0x9D2 JUMP JUMPDEST DUP1 DUP9 DUP6 SWAP7 DUP3 SWAP5 SWAP7 DUP7 ADD MLOAD DUP2 SSTORE ADD SWAP6 ADD SWAP4 ADD SWAP1 PUSH2 0x9BC JUMP JUMPDEST PUSH2 0xA38 SWAP1 DUP5 DUP8 MSTORE DUP3 DUP8 KECCAK256 PUSH1 0x1F DUP6 ADD PUSH1 0x5 SHR DUP2 ADD SWAP2 DUP5 DUP7 LT PUSH2 0xA3E JUMPI JUMPDEST PUSH1 0x1F ADD PUSH1 0x5 SHR ADD SWAP1 PUSH2 0x1B77 JUMP JUMPDEST CODESIZE PUSH2 0x968 JUMP JUMPDEST SWAP1 SWAP2 POP DUP2 SWAP1 PUSH2 0xA2B JUMP JUMPDEST PUSH4 0x4E487B71 PUSH1 0xE0 SHL DUP8 MSTORE PUSH1 0x41 SWAP1 MSTORE DUP6 REVERT JUMPDEST DUP2 MLOAD PUSH3 0x461BCD PUSH1 0xE5 SHL DUP2 MSTORE DUP1 DUP8 ADD DUP6 SWAP1 MSTORE PUSH1 0x2E DUP2 DUP6 ADD MSTORE PUSH32 0x45524337323155524953746F726167653A2055524920736574206F66206E6F6E PUSH1 0x44 DUP3 ADD MSTORE PUSH14 0x32BC34B9BA32B73A103A37B5B2B7 PUSH1 0x91 SHL PUSH1 0x64 DUP3 ADD MSTORE PUSH1 0x84 SWAP1 REVERT JUMPDEST PUSH4 0x4E487B71 PUSH1 0xE0 SHL DUP10 MSTORE PUSH1 0x41 DUP8 MSTORE DUP4 DUP10 REVERT JUMPDEST PUSH1 0x64 DUP7 DUP6 DUP6 DUP2 DUP7 MLOAD SWAP4 PUSH3 0x461BCD PUSH1 0xE5 SHL DUP6 MSTORE DUP5 ADD MSTORE DUP3 ADD MSTORE PUSH32 0x4552433732313A206D696E7420746F20746865207A65726F2061646472657373 PUSH1 0x44 DUP3 ADD MSTORE REVERT JUMPDEST DUP4 PUSH1 0x41 DUP9 PUSH4 0x4E487B71 PUSH1 0xE0 SHL PUSH1 0x0 MSTORE MSTORE PUSH1 0x0 REVERT JUMPDEST DUP4 DUP2 SWAP8 SWAP3 SWAP8 GT PUSH2 0xB2B JUMPI DUP6 MSTORE SWAP5 CODESIZE PUSH2 0x7E6 JUMP JUMPDEST PUSH4 0x4E487B71 PUSH1 0xE0 SHL DUP3 MSTORE PUSH1 0x41 DUP6 MSTORE DUP7 DUP3 REVERT JUMPDEST DUP7 MLOAD RETURNDATASIZE DUP10 DUP3 RETURNDATACOPY RETURNDATASIZE SWAP1 REVERT JUMPDEST DUP8 DUP1 REVERT JUMPDEST DUP7 MLOAD PUSH4 0x4A6C46B PUSH1 0xE4 SHL DUP2 MSTORE DUP7 SWAP1 REVERT JUMPDEST SWAP1 POP DUP4 DUP2 DUP2 RETURNDATASIZE DUP4 GT PUSH2 0xB81 JUMPI JUMPDEST PUSH2 0xB72 DUP2 DUP4 PUSH2 0x1326 JUMP JUMPDEST DUP2 ADD SUB SLT PUSH2 0xB47 JUMPI MLOAD CODESIZE PUSH2 0x7AD JUMP JUMPDEST POP RETURNDATASIZE PUSH2 0xB68 JUMP JUMPDEST DUP8 MLOAD RETURNDATASIZE DUP11 DUP3 RETURNDATACOPY RETURNDATASIZE SWAP1 REVERT JUMPDEST POP SWAP2 SWAP1 CALLVALUE PUSH2 0x23A JUMPI PUSH1 0x20 SWAP1 DUP2 PUSH1 0x3 NOT CALLDATASIZE ADD SLT PUSH2 0x1E6 JUMPI DUP4 CALLDATALOAD PUSH2 0xBB7 PUSH2 0x3C3 DUP3 CALLER PUSH2 0x162D JUMP JUMPDEST PUSH2 0xBC0 DUP2 PUSH2 0x14B6 JUMP JUMPDEST PUSH1 0x1 PUSH1 0x1 PUSH1 0xA0 SHL SUB SWAP1 DUP1 DUP3 AND SWAP1 DUP2 PUSH2 0xD8B JUMPI POP POP PUSH1 0x8 SLOAD DUP3 DUP7 MSTORE PUSH1 0x9 DUP6 MSTORE DUP1 DUP5 DUP8 KECCAK256 SSTORE PUSH1 0x1 PUSH1 0x40 SHL DUP2 LT ISZERO PUSH2 0xD78 JUMPI DUP3 PUSH2 0x864 DUP3 PUSH1 0x1 PUSH2 0xC03 SWAP5 ADD PUSH1 0x8 SSTORE PUSH2 0x1ADE JUMP JUMPDEST PUSH1 0x8 SLOAD PUSH1 0x0 NOT SWAP2 SWAP1 DUP3 DUP2 ADD SWAP1 DUP2 GT PUSH2 0xD65 JUMPI DUP4 DUP8 MSTORE PUSH1 0x9 DUP7 MSTORE PUSH2 0xC29 DUP6 DUP9 KECCAK256 SLOAD SWAP2 PUSH2 0x1ADE JUMP JUMPDEST SWAP1 SLOAD SWAP1 PUSH1 0x3 SHL SHR PUSH2 0xC3D DUP2 PUSH2 0x864 DUP5 PUSH2 0x1ADE JUMP JUMPDEST DUP8 MSTORE PUSH1 0x9 DUP7 MSTORE DUP5 DUP8 KECCAK256 SSTORE DUP3 DUP7 MSTORE DUP6 DUP5 DUP2 KECCAK256 SSTORE PUSH1 0x8 SLOAD DUP1 ISZERO PUSH2 0xD52 JUMPI SWAP2 DUP7 SWAP8 DUP8 SWAP3 DUP3 DUP7 SWAP6 ADD PUSH2 0xC6A DUP2 PUSH2 0x1ADE JUMP JUMPDEST DUP6 DUP3 SLOAD SWAP2 PUSH1 0x3 SHL SHL NOT AND SWAP1 SSTORE PUSH1 0x8 SSTORE PUSH2 0xC82 DUP6 PUSH2 0x14B6 JUMP JUMPDEST SWAP2 DUP6 DUP6 MSTORE DUP9 MSTORE DUP7 DUP5 KECCAK256 SWAP2 PUSH1 0x1 PUSH1 0x1 PUSH1 0x60 SHL SUB PUSH1 0xA0 SHL SWAP3 DUP4 DUP2 SLOAD AND SWAP1 SSTORE AND SWAP2 DUP3 DUP5 MSTORE PUSH1 0x3 DUP9 MSTORE DUP7 DUP5 KECCAK256 SWAP1 DUP2 SLOAD ADD SWAP1 SSTORE DUP4 DUP4 MSTORE PUSH1 0x2 DUP8 MSTORE DUP6 DUP4 KECCAK256 SWAP1 DUP2 SLOAD AND SWAP1 SSTORE PUSH32 0xDDF252AD1BE2C89B69C2B068FC378DAA952BA7F163C4A11628F55A4DF523B3EF DUP3 DUP1 LOG4 PUSH1 0xA DUP4 MSTORE PUSH2 0xCF4 DUP3 DUP6 KECCAK256 SLOAD PUSH2 0x14DC JUMP JUMPDEST PUSH2 0xCFD JUMPI POP POP POP RETURN JUMPDEST DUP4 MSTORE PUSH1 0xA DUP3 MSTORE DUP3 KECCAK256 SWAP1 PUSH2 0xD10 DUP3 SLOAD PUSH2 0x14DC JUMP JUMPDEST SWAP1 DUP2 PUSH2 0xD1B JUMPI POP POP POP RETURN JUMPDEST DUP2 PUSH1 0x1F DUP6 SWAP4 GT PUSH1 0x1 EQ PUSH2 0xD2F JUMPI POP POP POP SSTORE DUP1 RETURN JUMPDEST DUP4 DUP4 MSTORE DUP2 DUP4 KECCAK256 PUSH2 0xD4A SWAP2 PUSH1 0x1F ADD PUSH1 0x5 SHR DUP2 ADD SWAP1 PUSH1 0x1 ADD PUSH2 0x1B77 JUMP JUMPDEST DUP2 KECCAK256 SWAP2 SSTORE SSTORE DUP1 RETURN JUMPDEST PUSH4 0x4E487B71 PUSH1 0xE0 SHL DUP8 MSTORE PUSH1 0x31 DUP9 MSTORE PUSH1 0x24 DUP8 REVERT JUMPDEST PUSH4 0x4E487B71 PUSH1 0xE0 SHL DUP8 MSTORE PUSH1 0x11 DUP9 MSTORE PUSH1 0x24 DUP8 REVERT JUMPDEST PUSH4 0x4E487B71 PUSH1 0xE0 SHL DUP7 MSTORE PUSH1 0x41 DUP8 MSTORE PUSH1 0x24 DUP7 REVERT JUMPDEST PUSH2 0xD94 SWAP1 PUSH2 0x13F3 JUMP JUMPDEST PUSH1 0x0 NOT DUP2 ADD SWAP2 SWAP1 DUP3 GT PUSH2 0xD65 JUMPI DUP4 DUP8 MSTORE PUSH1 0x7 DUP7 MSTORE DUP5 DUP8 KECCAK256 SLOAD DUP3 DUP2 SUB PUSH2 0xDD5 JUMPI JUMPDEST POP DUP4 DUP8 MSTORE DUP7 DUP6 DUP2 KECCAK256 SSTORE DUP7 MSTORE PUSH1 0x6 DUP6 MSTORE DUP4 DUP7 KECCAK256 SWAP1 DUP7 MSTORE DUP5 MSTORE DUP5 DUP4 DUP2 KECCAK256 SSTORE PUSH2 0xC03 JUMP JUMPDEST DUP2 DUP9 MSTORE PUSH1 0x6 DUP8 MSTORE DUP6 DUP9 KECCAK256 DUP4 DUP10 MSTORE DUP8 MSTORE DUP6 DUP9 KECCAK256 SLOAD DUP3 DUP10 MSTORE PUSH1 0x6 DUP9 MSTORE DUP7 DUP10 KECCAK256 DUP3 DUP11 MSTORE DUP9 MSTORE DUP1 DUP8 DUP11 KECCAK256 SSTORE DUP9 MSTORE PUSH1 0x7 DUP8 MSTORE DUP6 DUP9 KECCAK256 SSTORE CODESIZE PUSH2 0xDB4 JUMP JUMPDEST POP POP CALLVALUE PUSH2 0x23A JUMPI PUSH2 0x3D8 PUSH2 0x3DD SWAP2 PUSH2 0xE23 CALLDATASIZE PUSH2 0x12BF JUMP JUMPDEST SWAP2 SWAP3 MLOAD SWAP3 PUSH2 0xE30 DUP5 PUSH2 0x12F4 JUMP JUMPDEST DUP7 DUP5 MSTORE PUSH2 0x3C8 PUSH2 0x3C3 DUP5 CALLER PUSH2 0x162D JUMP JUMPDEST POP SWAP2 CALLVALUE PUSH2 0x353 JUMPI DUP2 PUSH1 0x3 NOT CALLDATASIZE ADD SLT PUSH2 0x353 JUMPI PUSH2 0xE5A PUSH2 0x128E JUMP JUMPDEST PUSH1 0x24 CALLDATALOAD SWAP1 PUSH2 0xE67 DUP2 PUSH2 0x13F3 JUMP JUMPDEST DUP3 LT ISZERO PUSH2 0xE95 JUMPI PUSH1 0x1 PUSH1 0x1 PUSH1 0xA0 SHL SUB AND DUP3 MSTORE PUSH1 0x6 PUSH1 0x20 SWAP1 DUP2 MSTORE DUP4 DUP4 KECCAK256 SWAP2 DUP4 MSTORE SWAP1 DUP2 MSTORE SWAP1 DUP3 SWAP1 KECCAK256 SLOAD DUP3 MLOAD SWAP1 DUP2 MSTORE RETURN JUMPDEST DUP4 MLOAD PUSH3 0x461BCD PUSH1 0xE5 SHL DUP2 MSTORE PUSH1 0x20 DUP2 DUP8 ADD MSTORE PUSH1 0x2B PUSH1 0x24 DUP3 ADD MSTORE PUSH32 0x455243373231456E756D657261626C653A206F776E657220696E646578206F75 PUSH1 0x44 DUP3 ADD MSTORE PUSH11 0x74206F6620626F756E6473 PUSH1 0xA8 SHL PUSH1 0x64 DUP3 ADD MSTORE PUSH1 0x84 SWAP1 REVERT JUMPDEST POP POP CALLVALUE PUSH2 0x23A JUMPI DUP2 PUSH1 0x3 NOT CALLDATASIZE ADD SLT PUSH2 0x23A JUMPI PUSH1 0x20 SWAP1 PUSH1 0xC SLOAD SWAP1 MLOAD SWAP1 DUP2 MSTORE RETURN JUMPDEST DUP4 CALLVALUE PUSH2 0x353 JUMPI PUSH2 0x3DD PUSH2 0xF1D CALLDATASIZE PUSH2 0x12BF JUMP JUMPDEST SWAP2 PUSH2 0xF2B PUSH2 0x3C3 DUP5 CALLER PUSH2 0x162D JUMP JUMPDEST PUSH2 0x16F5 JUMP JUMPDEST POP POP CALLVALUE PUSH2 0x23A JUMPI DUP2 PUSH1 0x3 NOT CALLDATASIZE ADD SLT PUSH2 0x23A JUMPI PUSH1 0x20 SWAP1 PUSH1 0x8 SLOAD SWAP1 MLOAD SWAP1 DUP2 MSTORE RETURN JUMPDEST POP POP CALLVALUE PUSH2 0x23A JUMPI DUP2 PUSH1 0x3 NOT CALLDATASIZE ADD SLT PUSH2 0x23A JUMPI MLOAD PUSH32 0x0 PUSH1 0x1 PUSH1 0x1 PUSH1 0xA0 SHL SUB AND DUP2 MSTORE PUSH1 0x20 SWAP1 RETURN JUMPDEST POP CALLVALUE PUSH2 0x1E6 JUMPI DUP2 PUSH1 0x3 NOT CALLDATASIZE ADD SLT PUSH2 0x1E6 JUMPI PUSH2 0xFAC PUSH2 0x128E JUMP JUMPDEST PUSH1 0x24 CALLDATALOAD SWAP3 SWAP1 SWAP2 PUSH1 0x1 PUSH1 0x1 PUSH1 0xA0 SHL SUB SWAP2 SWAP1 DUP3 DUP1 PUSH2 0xFC7 DUP8 PUSH2 0x14B6 JUMP JUMPDEST AND SWAP5 AND SWAP4 DUP1 DUP6 EQ PUSH2 0x10B3 JUMPI DUP1 CALLER EQ SWAP1 DUP2 ISZERO PUSH2 0x1094 JUMPI JUMPDEST POP ISZERO PUSH2 0x102C JUMPI DUP5 DUP7 MSTORE PUSH1 0x20 MSTORE DUP5 KECCAK256 DUP1 SLOAD PUSH1 0x1 PUSH1 0x1 PUSH1 0xA0 SHL SUB NOT AND DUP4 OR SWAP1 SSTORE PUSH2 0x1004 DUP4 PUSH2 0x14B6 JUMP JUMPDEST AND PUSH32 0x8C5BE1E5EBEC7D5BD14F71427D1E84F3DD0314C0F7B2291E5B200AC8C7C3B925 DUP5 DUP1 LOG4 DUP1 RETURN JUMPDEST PUSH1 0x20 PUSH1 0x84 SWAP3 MLOAD SWAP2 PUSH3 0x461BCD PUSH1 0xE5 SHL DUP4 MSTORE DUP3 ADD MSTORE PUSH1 0x3D PUSH1 0x24 DUP3 ADD MSTORE PUSH32 0x4552433732313A20617070726F76652063616C6C6572206973206E6F7420746F PUSH1 0x44 DUP3 ADD MSTORE PUSH32 0x6B656E206F776E6572206F7220617070726F76656420666F7220616C6C000000 PUSH1 0x64 DUP3 ADD MSTORE REVERT JUMPDEST SWAP1 POP DUP7 MSTORE PUSH1 0x5 PUSH1 0x20 MSTORE DUP2 DUP7 KECCAK256 CALLER DUP8 MSTORE PUSH1 0x20 MSTORE PUSH1 0xFF DUP3 DUP8 KECCAK256 SLOAD AND CODESIZE PUSH2 0xFDD JUMP JUMPDEST POP PUSH1 0x20 PUSH1 0x84 SWAP3 MLOAD SWAP2 PUSH3 0x461BCD PUSH1 0xE5 SHL DUP4 MSTORE DUP3 ADD MSTORE PUSH1 0x21 PUSH1 0x24 DUP3 ADD MSTORE PUSH32 0x4552433732313A20617070726F76616C20746F2063757272656E74206F776E65 PUSH1 0x44 DUP3 ADD MSTORE PUSH1 0x39 PUSH1 0xF9 SHL PUSH1 0x64 DUP3 ADD MSTORE REVERT JUMPDEST POP SWAP2 CALLVALUE PUSH2 0x353 JUMPI PUSH1 0x20 CALLDATASIZE PUSH1 0x3 NOT ADD SLT PUSH2 0x353 JUMPI POP PUSH2 0x66C PUSH1 0x20 SWAP3 CALLDATALOAD PUSH2 0x1516 JUMP JUMPDEST POP POP CALLVALUE PUSH2 0x23A JUMPI DUP2 PUSH1 0x3 NOT CALLDATASIZE ADD SLT PUSH2 0x23A JUMPI DUP1 MLOAD SWAP1 DUP3 DUP1 SLOAD PUSH2 0x1141 DUP2 PUSH2 0x14DC JUMP JUMPDEST DUP1 DUP6 MSTORE SWAP2 PUSH1 0x1 SWAP2 DUP1 DUP4 AND SWAP1 DUP2 ISZERO PUSH2 0x570 JUMPI POP PUSH1 0x1 EQ PUSH2 0x116C JUMPI POP POP POP PUSH2 0x502 DUP3 PUSH2 0x2E5 SWAP5 SUB DUP4 PUSH2 0x1326 JUMP JUMPDEST DUP1 DUP1 SWAP7 POP MSTORE PUSH32 0x290DECD9548B62A8D60345A988386FC84BA6BC95484008F6362F93160EF3E563 JUMPDEST DUP3 DUP7 LT PUSH2 0x11B0 JUMPI POP POP POP PUSH2 0x502 DUP3 PUSH1 0x20 PUSH2 0x2E5 SWAP6 DUP3 ADD ADD SWAP5 PUSH2 0x4F0 JUMP JUMPDEST DUP1 SLOAD PUSH1 0x20 DUP8 DUP8 ADD DUP2 ADD SWAP2 SWAP1 SWAP2 MSTORE SWAP1 SWAP6 ADD SWAP5 DUP2 ADD PUSH2 0x1193 JUMP JUMPDEST SWAP3 POP POP CALLVALUE PUSH2 0x1E6 JUMPI PUSH1 0x20 CALLDATASIZE PUSH1 0x3 NOT ADD SLT PUSH2 0x1E6 JUMPI CALLDATALOAD PUSH4 0xFFFFFFFF PUSH1 0xE0 SHL DUP2 AND DUP1 SWAP2 SUB PUSH2 0x1E6 JUMPI PUSH1 0x20 SWAP3 POP PUSH4 0x780E9D63 PUSH1 0xE0 SHL DUP2 EQ SWAP1 DUP2 ISZERO PUSH2 0x120B JUMPI JUMPDEST POP ISZERO ISZERO DUP2 MSTORE RETURN JUMPDEST PUSH4 0x80AC58CD PUSH1 0xE0 SHL DUP2 EQ SWAP2 POP DUP2 ISZERO PUSH2 0x123D JUMPI JUMPDEST DUP2 ISZERO PUSH2 0x122C JUMPI JUMPDEST POP CODESIZE PUSH2 0x1204 JUMP JUMPDEST PUSH4 0x1FFC9A7 PUSH1 0xE0 SHL EQ SWAP1 POP CODESIZE PUSH2 0x1225 JUMP JUMPDEST PUSH4 0x5B5E139F PUSH1 0xE0 SHL DUP2 EQ SWAP2 POP PUSH2 0x121E JUMP JUMPDEST SWAP2 SWAP1 DUP3 MLOAD SWAP3 DUP4 DUP3 MSTORE PUSH1 0x0 JUMPDEST DUP5 DUP2 LT PUSH2 0x127A JUMPI POP POP DUP3 PUSH1 0x0 PUSH1 0x20 DUP1 SWAP5 SWAP6 DUP5 ADD ADD MSTORE PUSH1 0x1F DUP1 NOT SWAP2 ADD AND ADD ADD SWAP1 JUMP JUMPDEST PUSH1 0x20 DUP2 DUP4 ADD DUP2 ADD MLOAD DUP5 DUP4 ADD DUP3 ADD MSTORE ADD PUSH2 0x1259 JUMP JUMPDEST PUSH1 0x4 CALLDATALOAD SWAP1 PUSH1 0x1 PUSH1 0x1 PUSH1 0xA0 SHL SUB DUP3 AND DUP3 SUB PUSH2 0x12A4 JUMPI JUMP JUMPDEST PUSH1 0x0 DUP1 REVERT JUMPDEST PUSH1 0x24 CALLDATALOAD SWAP1 PUSH1 0x1 PUSH1 0x1 PUSH1 0xA0 SHL SUB DUP3 AND DUP3 SUB PUSH2 0x12A4 JUMPI JUMP JUMPDEST PUSH1 0x60 SWAP1 PUSH1 0x3 NOT ADD SLT PUSH2 0x12A4 JUMPI PUSH1 0x1 PUSH1 0x1 PUSH1 0xA0 SHL SUB SWAP1 PUSH1 0x4 CALLDATALOAD DUP3 DUP2 AND DUP2 SUB PUSH2 0x12A4 JUMPI SWAP2 PUSH1 0x24 CALLDATALOAD SWAP1 DUP2 AND DUP2 SUB PUSH2 0x12A4 JUMPI SWAP1 PUSH1 0x44 CALLDATALOAD SWAP1 JUMP JUMPDEST PUSH1 0x20 DUP2 ADD SWAP1 DUP2 LT PUSH8 0xFFFFFFFFFFFFFFFF DUP3 GT OR PUSH2 0x1310 JUMPI PUSH1 0x40 MSTORE JUMP JUMPDEST PUSH4 0x4E487B71 PUSH1 0xE0 SHL PUSH1 0x0 MSTORE PUSH1 0x41 PUSH1 0x4 MSTORE PUSH1 0x24 PUSH1 0x0 REVERT JUMPDEST SWAP1 PUSH1 0x1F DUP1 NOT SWAP2 ADD AND DUP2 ADD SWAP1 DUP2 LT PUSH8 0xFFFFFFFFFFFFFFFF DUP3 GT OR PUSH2 0x1310 JUMPI PUSH1 0x40 MSTORE JUMP JUMPDEST PUSH8 0xFFFFFFFFFFFFFFFF DUP2 GT PUSH2 0x1310 JUMPI PUSH1 0x1F ADD PUSH1 0x1F NOT AND PUSH1 0x20 ADD SWAP1 JUMP JUMPDEST SWAP3 SWAP2 SWAP3 PUSH2 0x1370 DUP3 PUSH2 0x1348 JUMP JUMPDEST SWAP2 PUSH2 0x137E PUSH1 0x40 MLOAD SWAP4 DUP5 PUSH2 0x1326 JUMP JUMPDEST DUP3 SWAP5 DUP2 DUP5 MSTORE DUP2 DUP4 ADD GT PUSH2 0x12A4 JUMPI DUP3 DUP2 PUSH1 0x20 SWAP4 DUP5 PUSH1 0x0 SWAP7 ADD CALLDATACOPY ADD ADD MSTORE JUMP JUMPDEST PUSH1 0xB SLOAD PUSH1 0x1 PUSH1 0x1 PUSH1 0xA0 SHL SUB AND CALLER SUB PUSH2 0x13AF JUMPI JUMP JUMPDEST PUSH1 0x64 PUSH1 0x40 MLOAD PUSH3 0x461BCD PUSH1 0xE5 SHL DUP2 MSTORE PUSH1 0x20 PUSH1 0x4 DUP3 ADD MSTORE PUSH1 0x20 PUSH1 0x24 DUP3 ADD MSTORE PUSH32 0x4F776E61626C653A2063616C6C6572206973206E6F7420746865206F776E6572 PUSH1 0x44 DUP3 ADD MSTORE REVERT JUMPDEST PUSH1 0x1 PUSH1 0x1 PUSH1 0xA0 SHL SUB AND DUP1 ISZERO PUSH2 0x1413 JUMPI PUSH1 0x0 MSTORE PUSH1 0x3 PUSH1 0x20 MSTORE PUSH1 0x40 PUSH1 0x0 KECCAK256 SLOAD SWAP1 JUMP JUMPDEST PUSH1 0x40 MLOAD PUSH3 0x461BCD PUSH1 0xE5 SHL DUP2 MSTORE PUSH1 0x20 PUSH1 0x4 DUP3 ADD MSTORE PUSH1 0x29 PUSH1 0x24 DUP3 ADD MSTORE PUSH32 0x4552433732313A2061646472657373207A65726F206973206E6F742061207661 PUSH1 0x44 DUP3 ADD MSTORE PUSH9 0x3634B21037BBB732B9 PUSH1 0xB9 SHL PUSH1 0x64 DUP3 ADD MSTORE PUSH1 0x84 SWAP1 REVERT JUMPDEST ISZERO PUSH2 0x1471 JUMPI JUMP JUMPDEST PUSH1 0x40 MLOAD PUSH3 0x461BCD PUSH1 0xE5 SHL DUP2 MSTORE PUSH1 0x20 PUSH1 0x4 DUP3 ADD MSTORE PUSH1 0x18 PUSH1 0x24 DUP3 ADD MSTORE PUSH32 0x4552433732313A20696E76616C696420746F6B656E2049440000000000000000 PUSH1 0x44 DUP3 ADD MSTORE PUSH1 0x64 SWAP1 REVERT JUMPDEST PUSH1 0x0 SWAP1 DUP2 MSTORE PUSH1 0x2 PUSH1 0x20 MSTORE PUSH1 0x40 SWAP1 KECCAK256 SLOAD PUSH1 0x1 PUSH1 0x1 PUSH1 0xA0 SHL SUB AND PUSH2 0x14D9 DUP2 ISZERO ISZERO PUSH2 0x146A JUMP JUMPDEST SWAP1 JUMP JUMPDEST SWAP1 PUSH1 0x1 DUP3 DUP2 SHR SWAP3 AND DUP1 ISZERO PUSH2 0x150C JUMPI JUMPDEST PUSH1 0x20 DUP4 LT EQ PUSH2 0x14F6 JUMPI JUMP JUMPDEST PUSH4 0x4E487B71 PUSH1 0xE0 SHL PUSH1 0x0 MSTORE PUSH1 0x22 PUSH1 0x4 MSTORE PUSH1 0x24 PUSH1 0x0 REVERT JUMPDEST SWAP2 PUSH1 0x7F AND SWAP2 PUSH2 0x14EB JUMP JUMPDEST PUSH1 0x0 DUP2 DUP2 MSTORE PUSH1 0x2 PUSH1 0x20 MSTORE PUSH1 0x40 SWAP1 KECCAK256 SLOAD PUSH2 0x1539 SWAP1 PUSH1 0x1 PUSH1 0x1 PUSH1 0xA0 SHL SUB AND ISZERO ISZERO PUSH2 0x146A JUMP JUMPDEST PUSH1 0x0 SWAP1 DUP2 MSTORE PUSH1 0x4 PUSH1 0x20 MSTORE PUSH1 0x40 SWAP1 KECCAK256 SLOAD PUSH1 0x1 PUSH1 0x1 PUSH1 0xA0 SHL SUB AND SWAP1 JUMP JUMPDEST ISZERO PUSH2 0x155B JUMPI JUMP JUMPDEST PUSH1 0x40 MLOAD PUSH3 0x461BCD PUSH1 0xE5 SHL DUP2 MSTORE PUSH1 0x20 PUSH1 0x4 DUP3 ADD MSTORE PUSH1 0x2D PUSH1 0x24 DUP3 ADD MSTORE PUSH32 0x4552433732313A2063616C6C6572206973206E6F7420746F6B656E206F776E65 PUSH1 0x44 DUP3 ADD MSTORE PUSH13 0x1C881BDC88185C1C1C9BDD9959 PUSH1 0x9A SHL PUSH1 0x64 DUP3 ADD MSTORE PUSH1 0x84 SWAP1 REVERT JUMPDEST PUSH1 0x80 SWAP1 PUSH1 0x20 DUP2 MSTORE PUSH1 0x32 PUSH1 0x20 DUP3 ADD MSTORE PUSH32 0x4552433732313A207472616E7366657220746F206E6F6E204552433732315265 PUSH1 0x40 DUP3 ADD MSTORE PUSH18 0x31B2B4BB32B91034B6B83632B6B2B73A32B9 PUSH1 0x71 SHL PUSH1 0x60 DUP3 ADD MSTORE ADD SWAP1 JUMP JUMPDEST ISZERO PUSH2 0x1610 JUMPI JUMP JUMPDEST PUSH1 0x40 MLOAD PUSH3 0x461BCD PUSH1 0xE5 SHL DUP2 MSTORE DUP1 PUSH2 0x1629 PUSH1 0x4 DUP3 ADD PUSH2 0x15B6 JUMP JUMPDEST SUB SWAP1 REVERT JUMPDEST SWAP1 PUSH1 0x1 PUSH1 0x1 PUSH1 0xA0 SHL SUB DUP1 DUP1 PUSH2 0x1641 DUP5 PUSH2 0x14B6 JUMP JUMPDEST AND SWAP4 AND SWAP2 DUP4 DUP4 EQ SWAP4 DUP5 ISZERO PUSH2 0x1674 JUMPI JUMPDEST POP DUP4 ISZERO PUSH2 0x165E JUMPI JUMPDEST POP POP POP SWAP1 JUMP JUMPDEST PUSH2 0x166A SWAP2 SWAP3 SWAP4 POP PUSH2 0x1516 JUMP JUMPDEST AND EQ CODESIZE DUP1 DUP1 PUSH2 0x1658 JUMP JUMPDEST SWAP1 SWAP4 POP PUSH1 0x0 MSTORE PUSH1 0x5 PUSH1 0x20 MSTORE PUSH1 0x40 PUSH1 0x0 KECCAK256 DUP3 PUSH1 0x0 MSTORE PUSH1 0x20 MSTORE PUSH1 0xFF PUSH1 0x40 PUSH1 0x0 KECCAK256 SLOAD AND SWAP3 CODESIZE PUSH2 0x1650 JUMP JUMPDEST ISZERO PUSH2 0x16A2 JUMPI JUMP JUMPDEST PUSH1 0x40 MLOAD PUSH3 0x461BCD PUSH1 0xE5 SHL DUP2 MSTORE PUSH1 0x20 PUSH1 0x4 DUP3 ADD MSTORE PUSH1 0x25 PUSH1 0x24 DUP3 ADD MSTORE PUSH32 0x4552433732313A207472616E736665722066726F6D20696E636F727265637420 PUSH1 0x44 DUP3 ADD MSTORE PUSH5 0x37BBB732B9 PUSH1 0xD9 SHL PUSH1 0x64 DUP3 ADD MSTORE PUSH1 0x84 SWAP1 REVERT JUMPDEST PUSH2 0x1719 SWAP2 PUSH2 0x1702 DUP5 PUSH2 0x14B6 JUMP JUMPDEST PUSH1 0x1 PUSH1 0x1 PUSH1 0xA0 SHL SUB SWAP4 DUP5 DUP5 AND SWAP4 SWAP2 DUP6 AND DUP5 EQ PUSH2 0x169B JUMP JUMPDEST DUP4 DUP3 AND SWAP4 DUP5 ISZERO PUSH2 0x18E6 JUMPI DUP4 SWAP2 DUP3 PUSH2 0x182D JUMPI POP SWAP1 POP PUSH1 0x8 SLOAD SWAP1 DUP6 PUSH1 0x0 MSTORE PUSH1 0x9 PUSH1 0x20 MSTORE DUP2 PUSH1 0x40 PUSH1 0x0 KECCAK256 SSTORE PUSH1 0x1 PUSH1 0x40 SHL DUP3 LT ISZERO PUSH2 0x1310 JUMPI PUSH2 0x177F SWAP3 PUSH2 0x1766 DUP8 PUSH2 0x864 DUP6 PUSH1 0x1 DUP10 SWAP8 ADD PUSH1 0x8 SSTORE PUSH2 0x1ADE JUMP JUMPDEST DUP3 DUP7 SUB PUSH2 0x17FA JUMPI JUMPDEST POP PUSH2 0x1778 DUP7 PUSH2 0x14B6 JUMP JUMPDEST AND EQ PUSH2 0x169B JUMP JUMPDEST PUSH32 0xDDF252AD1BE2C89B69C2B068FC378DAA952BA7F163C4A11628F55A4DF523B3EF PUSH1 0x0 DUP5 DUP2 MSTORE PUSH1 0x4 PUSH1 0x20 MSTORE PUSH1 0x40 DUP2 KECCAK256 PUSH1 0x1 PUSH1 0x1 PUSH1 0x60 SHL SUB PUSH1 0xA0 SHL SWAP1 DUP2 DUP2 SLOAD AND SWAP1 SSTORE DUP4 DUP3 MSTORE PUSH1 0x3 PUSH1 0x20 MSTORE PUSH1 0x40 DUP3 KECCAK256 PUSH1 0x0 NOT DUP2 SLOAD ADD SWAP1 SSTORE DUP5 DUP3 MSTORE PUSH1 0x40 DUP3 KECCAK256 PUSH1 0x1 DUP2 SLOAD ADD SWAP1 SSTORE DUP6 DUP3 MSTORE PUSH1 0x2 PUSH1 0x20 MSTORE DUP5 PUSH1 0x40 DUP4 KECCAK256 SWAP2 DUP3 SLOAD AND OR SWAP1 SSTORE DUP1 LOG4 JUMP JUMPDEST PUSH2 0x1803 SWAP1 PUSH2 0x13F3 JUMP JUMPDEST PUSH1 0x40 PUSH1 0x0 DUP8 DUP2 MSTORE PUSH1 0x6 PUSH1 0x20 MSTORE DUP2 DUP2 KECCAK256 DUP4 DUP3 MSTORE PUSH1 0x20 MSTORE DUP9 DUP3 DUP3 KECCAK256 SSTORE DUP9 DUP2 MSTORE PUSH1 0x7 PUSH1 0x20 MSTORE KECCAK256 SSTORE CODESIZE PUSH2 0x176E JUMP JUMPDEST DUP6 DUP4 SUB PUSH2 0x183F JUMPI JUMPDEST POP PUSH2 0x177F SWAP3 PUSH2 0x1766 JUMP JUMPDEST PUSH2 0x184A SWAP2 SWAP3 POP PUSH2 0x13F3 JUMP JUMPDEST PUSH1 0x0 NOT DUP2 ADD SWAP2 SWAP1 DUP3 GT PUSH2 0x18D0 JUMPI PUSH2 0x177F SWAP3 DUP5 SWAP3 PUSH1 0x0 SWAP1 DUP9 DUP3 MSTORE PUSH1 0x20 SWAP1 PUSH1 0x7 DUP3 MSTORE PUSH1 0x40 SWAP2 DUP3 DUP5 KECCAK256 SLOAD DUP3 DUP2 SUB PUSH2 0x1899 JUMPI JUMPDEST POP DUP11 DUP5 MSTORE DUP4 DUP4 DUP2 KECCAK256 SSTORE DUP7 DUP5 MSTORE PUSH1 0x6 DUP2 MSTORE DUP3 DUP5 KECCAK256 SWAP2 DUP5 MSTORE MSTORE DUP2 KECCAK256 SSTORE SWAP3 PUSH2 0x1835 JUMP JUMPDEST DUP8 DUP6 MSTORE PUSH1 0x6 DUP3 MSTORE DUP4 DUP6 KECCAK256 DUP4 DUP7 MSTORE DUP3 MSTORE DUP4 DUP6 KECCAK256 SLOAD DUP9 DUP7 MSTORE PUSH1 0x6 DUP4 MSTORE DUP5 DUP7 KECCAK256 DUP3 DUP8 MSTORE DUP4 MSTORE DUP1 DUP6 DUP8 KECCAK256 SSTORE DUP6 MSTORE PUSH1 0x7 DUP3 MSTORE DUP4 DUP6 KECCAK256 SSTORE CODESIZE PUSH2 0x1879 JUMP JUMPDEST PUSH4 0x4E487B71 PUSH1 0xE0 SHL PUSH1 0x0 MSTORE PUSH1 0x11 PUSH1 0x4 MSTORE PUSH1 0x24 PUSH1 0x0 REVERT JUMPDEST PUSH1 0x40 MLOAD PUSH3 0x461BCD PUSH1 0xE5 SHL DUP2 MSTORE PUSH1 0x20 PUSH1 0x4 DUP3 ADD MSTORE PUSH1 0x24 DUP1 DUP3 ADD MSTORE PUSH32 0x4552433732313A207472616E7366657220746F20746865207A65726F20616464 PUSH1 0x44 DUP3 ADD MSTORE PUSH4 0x72657373 PUSH1 0xE0 SHL PUSH1 0x64 DUP3 ADD MSTORE PUSH1 0x84 SWAP1 REVERT JUMPDEST SWAP2 SWAP3 PUSH1 0x0 SWAP3 SWAP1 SWAP2 SWAP1 DUP1 EXTCODESIZE ISZERO PUSH2 0x1A49 JUMPI PUSH2 0x1985 SWAP5 PUSH1 0x40 MLOAD DUP1 SWAP3 PUSH4 0xA85BD01 PUSH1 0xE1 SHL SWAP5 DUP6 DUP4 MSTORE CALLER PUSH1 0x4 DUP5 ADD MSTORE DUP8 PUSH1 0x24 DUP5 ADD MSTORE PUSH1 0x44 DUP4 ADD MSTORE PUSH1 0x80 PUSH1 0x64 DUP4 ADD MSTORE DUP2 DUP8 DUP2 PUSH1 0x20 SWAP11 DUP12 SWAP7 PUSH1 0x84 DUP4 ADD SWAP1 PUSH2 0x124E JUMP JUMPDEST SUB SWAP3 PUSH1 0x1 PUSH1 0x1 PUSH1 0xA0 SHL SUB AND GAS CALL DUP5 SWAP2 DUP2 PUSH2 0x1A09 JUMPI JUMPDEST POP PUSH2 0x19F8 JUMPI POP POP POP RETURNDATASIZE PUSH1 0x0 EQ PUSH2 0x19F0 JUMPI RETURNDATASIZE PUSH2 0x19B4 DUP2 PUSH2 0x1348 JUMP JUMPDEST SWAP1 PUSH2 0x19C2 PUSH1 0x40 MLOAD SWAP3 DUP4 PUSH2 0x1326 JUMP JUMPDEST DUP2 MSTORE DUP1 SWAP2 DUP4 RETURNDATASIZE SWAP3 ADD RETURNDATACOPY JUMPDEST DUP1 MLOAD SWAP2 DUP3 PUSH2 0x19ED JUMPI PUSH1 0x40 MLOAD PUSH3 0x461BCD PUSH1 0xE5 SHL DUP2 MSTORE DUP1 PUSH2 0x1629 PUSH1 0x4 DUP3 ADD PUSH2 0x15B6 JUMP JUMPDEST ADD REVERT JUMPDEST POP PUSH1 0x60 PUSH2 0x19CC JUMP JUMPDEST PUSH1 0x1 PUSH1 0x1 PUSH1 0xE0 SHL SUB NOT AND EQ SWAP3 POP SWAP1 POP JUMP JUMPDEST SWAP1 SWAP2 POP DUP6 DUP2 DUP2 RETURNDATASIZE DUP4 GT PUSH2 0x1A42 JUMPI JUMPDEST PUSH2 0x1A21 DUP2 DUP4 PUSH2 0x1326 JUMP JUMPDEST DUP2 ADD SUB SLT PUSH2 0x4B1 JUMPI MLOAD PUSH1 0x1 PUSH1 0x1 PUSH1 0xE0 SHL SUB NOT DUP2 AND DUP2 SUB PUSH2 0x4B1 JUMPI SWAP1 CODESIZE PUSH2 0x199A JUMP JUMPDEST POP RETURNDATASIZE PUSH2 0x1A17 JUMP JUMPDEST POP POP SWAP2 POP POP PUSH1 0x1 SWAP1 JUMP JUMPDEST SWAP3 SWAP4 PUSH1 0x0 SWAP4 SWAP1 SWAP3 SWAP2 DUP1 EXTCODESIZE ISZERO PUSH2 0x1AD3 JUMPI SWAP5 DUP5 SWAP2 PUSH2 0x1AAD SWAP7 PUSH1 0x40 MLOAD DUP1 SWAP5 DUP2 SWAP4 PUSH4 0xA85BD01 PUSH1 0xE1 SHL SWAP8 DUP9 DUP5 MSTORE CALLER PUSH1 0x4 DUP6 ADD MSTORE PUSH1 0x1 DUP1 PUSH1 0xA0 SHL SUB DUP1 SWAP3 AND PUSH1 0x24 DUP6 ADD MSTORE PUSH1 0x44 DUP5 ADD MSTORE PUSH1 0x80 PUSH1 0x64 DUP5 ADD MSTORE DUP3 PUSH1 0x20 SWAP12 DUP13 SWAP8 PUSH1 0x84 DUP4 ADD SWAP1 PUSH2 0x124E JUMP JUMPDEST SUB SWAP4 AND GAS CALL DUP5 SWAP2 DUP2 PUSH2 0x1A09 JUMPI POP PUSH2 0x19F8 JUMPI POP POP POP RETURNDATASIZE PUSH1 0x0 EQ PUSH2 0x19F0 JUMPI RETURNDATASIZE PUSH2 0x19B4 DUP2 PUSH2 0x1348 JUMP JUMPDEST POP POP POP SWAP2 POP POP PUSH1 0x1 SWAP1 JUMP JUMPDEST PUSH1 0x8 SLOAD DUP2 LT ISZERO PUSH2 0x1B15 JUMPI PUSH1 0x8 PUSH1 0x0 MSTORE PUSH32 0xF3F7A9FE364FAAB93B216DA50A3214154F22A0A2B415B23A84C8169E8B636EE3 ADD SWAP1 PUSH1 0x0 SWAP1 JUMP JUMPDEST PUSH4 0x4E487B71 PUSH1 0xE0 SHL PUSH1 0x0 MSTORE PUSH1 0x32 PUSH1 0x4 MSTORE PUSH1 0x24 PUSH1 0x0 REVERT JUMPDEST ISZERO PUSH2 0x1B32 JUMPI JUMP JUMPDEST PUSH1 0x40 MLOAD PUSH3 0x461BCD PUSH1 0xE5 SHL DUP2 MSTORE PUSH1 0x20 PUSH1 0x4 DUP3 ADD MSTORE PUSH1 0x1C PUSH1 0x24 DUP3 ADD MSTORE PUSH32 0x4552433732313A20746F6B656E20616C7265616479206D696E74656400000000 PUSH1 0x44 DUP3 ADD MSTORE PUSH1 0x64 SWAP1 REVERT JUMPDEST DUP2 DUP2 LT PUSH2 0x1B82 JUMPI POP POP JUMP JUMPDEST PUSH1 0x0 DUP2 SSTORE PUSH1 0x1 ADD PUSH2 0x1B77 JUMP INVALID LOG2 PUSH5 0x6970667358 0x22 SLT KECCAK256 0x22 SWAP7 0xC ISZERO STATICCALL XOR CODECOPY NOT DUP9 DUP11 DUP2 MSTORE8 0x1F 0xED NOT PUSH29 0x950056F2E3B76AB57A5493048E933E9564736F6C634300081100330000 "},"methodIdentifiers":{"approve(address,uint256)":"095ea7b3","balanceOf(address)":"70a08231","burn(uint256)":"42966c68","frgTokenAddress()":"10195e6e","getApproved(uint256)":"081812fc","isApprovedForAll(address,address)":"e985e9c5","name()":"06fdde03","owner()":"8da5cb5b","ownerOf(uint256)":"6352211e","rate()":"2c4e722e","renounceOwnership()":"715018a6","safeMintWithBurnFrg(string)":"4cc37ea4","safeTransferFrom(address,address,uint256)":"42842e0e","safeTransferFrom(address,address,uint256,bytes)":"b88d4fde","setApprovalForAll(address,bool)":"a22cb465","supportsInterface(bytes4)":"01ffc9a7","symbol()":"95d89b41","tokenByIndex(uint256)":"4f6ccce7","tokenOfOwnerByIndex(address,uint256)":"2f745c59","tokenURI(uint256)":"c87b56dd","totalSupply()":"18160ddd","transferFrom(address,address,uint256)":"23b872dd","transferOwnership(address)":"f2fde38b"}},"storageLayout":{"storage":[{"astId":1080,"contract":"contracts/nfts/Pet.sol:Pet","label":"_name","offset":0,"slot":"0","type":"t_string_storage"},{"astId":1082,"contract":"contracts/nfts/Pet.sol:Pet","label":"_symbol","offset":0,"slot":"1","type":"t_string_storage"},{"astId":1086,"contract":"contracts/nfts/Pet.sol:Pet","label":"_owners","offset":0,"slot":"2","type":"t_mapping(t_uint256,t_address)"},{"astId":1090,"contract":"contracts/nfts/Pet.sol:Pet","label":"_balances","offset":0,"slot":"3","type":"t_mapping(t_address,t_uint256)"},{"astId":1094,"contract":"contracts/nfts/Pet.sol:Pet","label":"_tokenApprovals","offset":0,"slot":"4","type":"t_mapping(t_uint256,t_address)"},{"astId":1100,"contract":"contracts/nfts/Pet.sol:Pet","label":"_operatorApprovals","offset":0,"slot":"5","type":"t_mapping(t_address,t_mapping(t_address,t_bool))"},{"astId":2178,"contract":"contracts/nfts/Pet.sol:Pet","label":"_ownedTokens","offset":0,"slot":"6","type":"t_mapping(t_address,t_mapping(t_uint256,t_uint256))"},{"astId":2182,"contract":"contracts/nfts/Pet.sol:Pet","label":"_ownedTokensIndex","offset":0,"slot":"7","type":"t_mapping(t_uint256,t_uint256)"},{"astId":2185,"contract":"contracts/nfts/Pet.sol:Pet","label":"_allTokens","offset":0,"slot":"8","type":"t_array(t_uint256)dyn_storage"},{"astId":2189,"contract":"contracts/nfts/Pet.sol:Pet","label":"_allTokensIndex","offset":0,"slot":"9","type":"t_mapping(t_uint256,t_uint256)"},{"astId":2530,"contract":"contracts/nfts/Pet.sol:Pet","label":"_tokenURIs","offset":0,"slot":"10","type":"t_mapping(t_uint256,t_string_storage)"},{"astId":7,"contract":"contracts/nfts/Pet.sol:Pet","label":"_owner","offset":0,"slot":"11","type":"t_address"},{"astId":5378,"contract":"contracts/nfts/Pet.sol:Pet","label":"rate","offset":0,"slot":"12","type":"t_uint256"},{"astId":5381,"contract":"contracts/nfts/Pet.sol:Pet","label":"_tokenIdCounter","offset":0,"slot":"13","type":"t_struct(Counter)3058_storage"}],"types":{"t_address":{"encoding":"inplace","label":"address","numberOfBytes":"20"},"t_array(t_uint256)dyn_storage":{"base":"t_uint256","encoding":"dynamic_array","label":"uint256[]","numberOfBytes":"32"},"t_bool":{"encoding":"inplace","label":"bool","numberOfBytes":"1"},"t_mapping(t_address,t_bool)":{"encoding":"mapping","key":"t_address","label":"mapping(address => bool)","numberOfBytes":"32","value":"t_bool"},"t_mapping(t_address,t_mapping(t_address,t_bool))":{"encoding":"mapping","key":"t_address","label":"mapping(address => mapping(address => bool))","numberOfBytes":"32","value":"t_mapping(t_address,t_bool)"},"t_mapping(t_address,t_mapping(t_uint256,t_uint256))":{"encoding":"mapping","key":"t_address","label":"mapping(address => mapping(uint256 => uint256))","numberOfBytes":"32","value":"t_mapping(t_uint256,t_uint256)"},"t_mapping(t_address,t_uint256)":{"encoding":"mapping","key":"t_address","label":"mapping(address => uint256)","numberOfBytes":"32","value":"t_uint256"},"t_mapping(t_uint256,t_address)":{"encoding":"mapping","key":"t_uint256","label":"mapping(uint256 => address)","numberOfBytes":"32","value":"t_address"},"t_mapping(t_uint256,t_string_storage)":{"encoding":"mapping","key":"t_uint256","label":"mapping(uint256 => string)","numberOfBytes":"32","value":"t_string_storage"},"t_mapping(t_uint256,t_uint256)":{"encoding":"mapping","key":"t_uint256","label":"mapping(uint256 => uint256)","numberOfBytes":"32","value":"t_uint256"},"t_string_storage":{"encoding":"bytes","label":"string","numberOfBytes":"32"},"t_struct(Counter)3058_storage":{"encoding":"inplace","label":"struct Counters.Counter","members":[{"astId":3057,"contract":"contracts/nfts/Pet.sol:Pet","label":"_value","offset":0,"slot":"0","type":"t_uint256"}],"numberOfBytes":"32"},"t_uint256":{"encoding":"inplace","label":"uint256","numberOfBytes":"32"}}}}}}