{"contracts/Box.sol":{"Box":{"abi":[{"anonymous":false,"inputs":[{"indexed":false,"internalType":"uint256","name":"value","type":"uint256"}],"name":"ValueChanged","type":"event"},{"inputs":[],"name":"retrieve","outputs":[{"internalType":"uint256","name":"","type":"uint256"}],"stateMutability":"view","type":"function"},{"inputs":[{"internalType":"uint256","name":"value","type":"uint256"}],"name":"store","outputs":[],"stateMutability":"nonpayable","type":"function"}],"evm":{"bytecode":{"linkReferences":{},"object":"608080604052346100165761022f908161001c8239f35b600080fdfe6080604052600436101561001257600080fd5b6000803560e01c80632e64cec11461016157636057361d1461003357600080fd5b3461015e5760208060031936011261015a576004359060405161005581610193565b603c81527f5b4c6f676765642066726f6d20736d61727420636f6e74726163745d2053746f828201527f7265642025732076616c75652c206d73672e73656e6465723a2025730000000060408201526040519163038fd88960e31b8184015260606024840152815191826084850152855b83811061014657867f93fe6d397c74fdf1402a8b72e47b68512f0510d7b98a4bc4cbdf6ac7108b3c596101408861012d8961012860a4828c89838284010152866044830152336064830152601f801991011681010360848101845201826101bc565b6101de565b8084556040519081529081906020820190565b0390a180f35b81810183015185820160a4015282016100c6565b5080fd5b80fd5b503461015e578060031936011261015e575460805260206080f35b50634e487b7160e01b600052604160045260246000fd5b6060810190811067ffffffffffffffff8211176101af57604052565b6101b761017c565b604052565b90601f8019910116810190811067ffffffffffffffff8211176101af57604052565b600080916020815191016a636f6e736f6c652e6c6f675afa5056fea26469706673582212205c297e6dced43bccb99c38e9eda5c80d9a312efd205696ffae6b89ac646bb62c64736f6c63430008110033","opcodes":"PUSH1 0x80 DUP1 PUSH1 0x40 MSTORE CALLVALUE PUSH2 0x16 JUMPI PUSH2 0x22F SWAP1 DUP2 PUSH2 0x1C DUP3 CODECOPY RETURN JUMPDEST PUSH1 0x0 DUP1 REVERT INVALID PUSH1 0x80 PUSH1 0x40 MSTORE PUSH1 0x4 CALLDATASIZE LT ISZERO PUSH2 0x12 JUMPI PUSH1 0x0 DUP1 REVERT JUMPDEST PUSH1 0x0 DUP1 CALLDATALOAD PUSH1 0xE0 SHR DUP1 PUSH4 0x2E64CEC1 EQ PUSH2 0x161 JUMPI PUSH4 0x6057361D EQ PUSH2 0x33 JUMPI PUSH1 0x0 DUP1 REVERT JUMPDEST CALLVALUE PUSH2 0x15E JUMPI PUSH1 0x20 DUP1 PUSH1 0x3 NOT CALLDATASIZE ADD SLT PUSH2 0x15A JUMPI PUSH1 0x4 CALLDATALOAD SWAP1 PUSH1 0x40 MLOAD PUSH2 0x55 DUP2 PUSH2 0x193 JUMP JUMPDEST PUSH1 0x3C DUP2 MSTORE PUSH32 0x5B4C6F676765642066726F6D20736D61727420636F6E74726163745D2053746F DUP3 DUP3 ADD MSTORE PUSH32 0x7265642025732076616C75652C206D73672E73656E6465723A20257300000000 PUSH1 0x40 DUP3 ADD MSTORE PUSH1 0x40 MLOAD SWAP2 PUSH4 0x38FD889 PUSH1 0xE3 SHL DUP2 DUP5 ADD MSTORE PUSH1 0x60 PUSH1 0x24 DUP5 ADD MSTORE DUP2 MLOAD SWAP2 DUP3 PUSH1 0x84 DUP6 ADD MSTORE DUP6 JUMPDEST DUP4 DUP2 LT PUSH2 0x146 JUMPI DUP7 PUSH32 0x93FE6D397C74FDF1402A8B72E47B68512F0510D7B98A4BC4CBDF6AC7108B3C59 PUSH2 0x140 DUP9 PUSH2 0x12D DUP10 PUSH2 0x128 PUSH1 0xA4 DUP3 DUP13 DUP10 DUP4 DUP3 DUP5 ADD ADD MSTORE DUP7 PUSH1 0x44 DUP4 ADD MSTORE CALLER PUSH1 0x64 DUP4 ADD MSTORE PUSH1 0x1F DUP1 NOT SWAP2 ADD AND DUP2 ADD SUB PUSH1 0x84 DUP2 ADD DUP5 MSTORE ADD DUP3 PUSH2 0x1BC JUMP JUMPDEST PUSH2 0x1DE JUMP JUMPDEST DUP1 DUP5 SSTORE PUSH1 0x40 MLOAD SWAP1 DUP2 MSTORE SWAP1 DUP2 SWAP1 PUSH1 0x20 DUP3 ADD SWAP1 JUMP JUMPDEST SUB SWAP1 LOG1 DUP1 RETURN JUMPDEST DUP2 DUP2 ADD DUP4 ADD MLOAD DUP6 DUP3 ADD PUSH1 0xA4 ADD MSTORE DUP3 ADD PUSH2 0xC6 JUMP JUMPDEST POP DUP1 REVERT JUMPDEST DUP1 REVERT JUMPDEST POP CALLVALUE PUSH2 0x15E JUMPI DUP1 PUSH1 0x3 NOT CALLDATASIZE ADD SLT PUSH2 0x15E JUMPI SLOAD PUSH1 0x80 MSTORE PUSH1 0x20 PUSH1 0x80 RETURN JUMPDEST POP PUSH4 0x4E487B71 PUSH1 0xE0 SHL PUSH1 0x0 MSTORE PUSH1 0x41 PUSH1 0x4 MSTORE PUSH1 0x24 PUSH1 0x0 REVERT JUMPDEST PUSH1 0x60 DUP2 ADD SWAP1 DUP2 LT PUSH8 0xFFFFFFFFFFFFFFFF DUP3 GT OR PUSH2 0x1AF JUMPI PUSH1 0x40 MSTORE JUMP JUMPDEST PUSH2 0x1B7 PUSH2 0x17C JUMP JUMPDEST PUSH1 0x40 MSTORE JUMP JUMPDEST SWAP1 PUSH1 0x1F DUP1 NOT SWAP2 ADD AND DUP2 ADD SWAP1 DUP2 LT PUSH8 0xFFFFFFFFFFFFFFFF DUP3 GT OR PUSH2 0x1AF JUMPI PUSH1 0x40 MSTORE JUMP JUMPDEST PUSH1 0x0 DUP1 SWAP2 PUSH1 0x20 DUP2 MLOAD SWAP2 ADD PUSH11 0x636F6E736F6C652E6C6F67 GAS STATICCALL POP JUMP INVALID LOG2 PUSH5 0x6970667358 0x22 SLT KECCAK256 0x5C 0x29 PUSH31 0x6DCED43BCCB99C38E9EDA5C80D9A312EFD205696FFAE6B89AC646BB62C6473 PUSH16 0x6C634300081100330000000000000000 "},"methodIdentifiers":{"retrieve()":"2e64cec1","store(uint256)":"6057361d"}},"storageLayout":{"storage":[{"astId":5034,"contract":"contracts/Box.sol:Box","label":"_value","offset":0,"slot":"0","type":"t_uint256"}],"types":{"t_uint256":{"encoding":"inplace","label":"uint256","numberOfBytes":"32"}}}}}}