{"contracts/erc20tokens/Frg.sol":{"Frg":{"abi":[{"inputs":[],"stateMutability":"nonpayable","type":"constructor"},{"anonymous":false,"inputs":[{"indexed":true,"internalType":"address","name":"owner","type":"address"},{"indexed":true,"internalType":"address","name":"spender","type":"address"},{"indexed":false,"internalType":"uint256","name":"value","type":"uint256"}],"name":"Approval","type":"event"},{"anonymous":false,"inputs":[{"indexed":true,"internalType":"address","name":"previousOwner","type":"address"},{"indexed":true,"internalType":"address","name":"newOwner","type":"address"}],"name":"OwnershipTransferred","type":"event"},{"anonymous":false,"inputs":[{"indexed":true,"internalType":"address","name":"from","type":"address"},{"indexed":true,"internalType":"address","name":"to","type":"address"},{"indexed":false,"internalType":"uint256","name":"value","type":"uint256"}],"name":"Transfer","type":"event"},{"inputs":[],"name":"DOMAIN_SEPARATOR","outputs":[{"internalType":"bytes32","name":"","type":"bytes32"}],"stateMutability":"view","type":"function"},{"inputs":[],"name":"MAXIMUMSUPPLY","outputs":[{"internalType":"uint256","name":"","type":"uint256"}],"stateMutability":"view","type":"function"},{"inputs":[{"internalType":"address","name":"owner","type":"address"},{"internalType":"address","name":"spender","type":"address"}],"name":"allowance","outputs":[{"internalType":"uint256","name":"","type":"uint256"}],"stateMutability":"view","type":"function"},{"inputs":[{"internalType":"address","name":"spender","type":"address"},{"internalType":"uint256","name":"amount","type":"uint256"}],"name":"approve","outputs":[{"internalType":"bool","name":"","type":"bool"}],"stateMutability":"nonpayable","type":"function"},{"inputs":[{"internalType":"address","name":"account","type":"address"}],"name":"balanceOf","outputs":[{"internalType":"uint256","name":"","type":"uint256"}],"stateMutability":"view","type":"function"},{"inputs":[{"internalType":"uint256","name":"amount","type":"uint256"}],"name":"burn","outputs":[],"stateMutability":"nonpayable","type":"function"},{"inputs":[{"internalType":"address","name":"account","type":"address"},{"internalType":"uint256","name":"amount","type":"uint256"}],"name":"burnFrom","outputs":[],"stateMutability":"nonpayable","type":"function"},{"inputs":[],"name":"decimals","outputs":[{"internalType":"uint8","name":"","type":"uint8"}],"stateMutability":"view","type":"function"},{"inputs":[{"internalType":"address","name":"spender","type":"address"},{"internalType":"uint256","name":"subtractedValue","type":"uint256"}],"name":"decreaseAllowance","outputs":[{"internalType":"bool","name":"","type":"bool"}],"stateMutability":"nonpayable","type":"function"},{"inputs":[{"internalType":"address","name":"spender","type":"address"},{"internalType":"uint256","name":"addedValue","type":"uint256"}],"name":"increaseAllowance","outputs":[{"internalType":"bool","name":"","type":"bool"}],"stateMutability":"nonpayable","type":"function"},{"inputs":[{"internalType":"address","name":"to","type":"address"},{"internalType":"uint256","name":"amount","type":"uint256"}],"name":"mint","outputs":[],"stateMutability":"nonpayable","type":"function"},{"inputs":[],"name":"name","outputs":[{"internalType":"string","name":"","type":"string"}],"stateMutability":"view","type":"function"},{"inputs":[{"internalType":"address","name":"owner","type":"address"}],"name":"nonces","outputs":[{"internalType":"uint256","name":"","type":"uint256"}],"stateMutability":"view","type":"function"},{"inputs":[],"name":"owner","outputs":[{"internalType":"address","name":"","type":"address"}],"stateMutability":"view","type":"function"},{"inputs":[{"internalType":"address","name":"owner","type":"address"},{"internalType":"address","name":"spender","type":"address"},{"internalType":"uint256","name":"value","type":"uint256"},{"internalType":"uint256","name":"deadline","type":"uint256"},{"internalType":"uint8","name":"v","type":"uint8"},{"internalType":"bytes32","name":"r","type":"bytes32"},{"internalType":"bytes32","name":"s","type":"bytes32"}],"name":"permit","outputs":[],"stateMutability":"nonpayable","type":"function"},{"inputs":[],"name":"renounceOwnership","outputs":[],"stateMutability":"nonpayable","type":"function"},{"inputs":[],"name":"symbol","outputs":[{"internalType":"string","name":"","type":"string"}],"stateMutability":"view","type":"function"},{"inputs":[{"internalType":"address","name":"owner","type":"address"},{"internalType":"address","name":"spender","type":"address"},{"internalType":"uint256","name":"value","type":"uint256"},{"internalType":"uint256","name":"deadline","type":"uint256"},{"internalType":"uint8","name":"v","type":"uint8"},{"internalType":"bytes32","name":"r","type":"bytes32"},{"internalType":"bytes32","name":"s","type":"bytes32"}],"name":"testPermit","outputs":[{"internalType":"address","name":"","type":"address"}],"stateMutability":"view","type":"function"},{"inputs":[],"name":"totalSupply","outputs":[{"internalType":"uint256","name":"","type":"uint256"}],"stateMutability":"view","type":"function"},{"inputs":[{"internalType":"address","name":"to","type":"address"},{"internalType":"uint256","name":"amount","type":"uint256"}],"name":"transfer","outputs":[{"internalType":"bool","name":"","type":"bool"}],"stateMutability":"nonpayable","type":"function"},{"inputs":[{"internalType":"address","name":"from","type":"address"},{"internalType":"address","name":"to","type":"address"},{"internalType":"uint256","name":"amount","type":"uint256"}],"name":"transferFrom","outputs":[{"internalType":"bool","name":"","type":"bool"}],"stateMutability":"nonpayable","type":"function"},{"inputs":[{"internalType":"address","name":"newOwner","type":"address"}],"name":"transferOwnership","outputs":[],"stateMutability":"nonpayable","type":"function"}],"evm":{"bytecode":{"linkReferences":{},"object":"610140604090808252346200051357620000198162000518565b600981526020918282019168232923902a37b5b2b760b91b93848452825194620000438662000518565b6009865281860152825191620000598362000518565b6003908184526246524760e81b83850152845195620000788762000518565b6001808852603160f81b85890190815289516001600160401b03959193929190868111620004075781548381811c9116801562000508575b89821014620004f2578190601f9d818f80931162000490575b508a91831160011462000429576000926200041d575b505060001982841b1c191690831b1781555b875190868211620004075760049889548481811c91168015620003fc575b8a821014620003e7578d81116200039b575b5088908d8411600114620003305793839491849260009562000324575b50501b92600019911b1c19161786555b60058054336001600160a01b03198216811790925588519491906001600160a01b03167f8be0079c531659141344cd1fd0a4f28419497f9722a3daafe3b4186f6b6457e0600080a351902096519020968660e052610100978089524660a052848301907f8b73c3c69bb8fe3d512ecc4cf759cc79239f7b179b0ffacaa9a75d522b39400f988983528885015260608401524660808401523060a084015260a0835260c0830193838510908511176200030f57838752825190206080523060c0526101209687523315620002cf575050506002546a05ca4ec2a79a7f6700000092838201809211620002ba57506000917fddf252ad1be2c89b69c2b068fc378daa952ba7f163c4a11628f55a4df523b3ef9160025533835282815284832084815401905584519384523393a35190611385928362000535843960805183611215015260a051836112e1015260c051836111df015260e051836112640152518261128a015251816112410152f35b601190634e487b7160e01b6000525260246000fd5b7f45524332303a206d696e7420746f20746865207a65726f206164647265737300916101049160649562461bcd60e51b865260c483015260e48201520152fd5b604186634e487b7160e01b6000525260246000fd5b0151935038806200013e565b9190601f198416928b600052848b6000209460005b8d8983831062000383575050501062000368575b50505050811b0186556200014e565b01519060f884600019921b161c191690553880808062000359565b86860151895590970196948501948893500162000345565b8a6000528d8a6000209080860160051c8201928c8710620003dd575b0160051c019085905b828110620003d057505062000121565b60008155018590620003c0565b92508192620003b7565b60228b634e487b7160e01b6000525260246000fd5b90607f16906200010f565b634e487b7160e01b600052604160045260246000fd5b015190503880620000df565b90859350601f19831691856000528b6000209260005b8d82821062000479575050841162000460575b505050811b018155620000f1565b015160001983861b60f8161c1916905538808062000452565b83850151865589979095019493840193016200043f565b91509150836000528d8a6000209080850160051c8201928c8610620004e8575b8594928289929593950160051c01915b828110620004d0575050620000c9565b600091939550809294505501918e91868594620004c0565b92508192620004b0565b634e487b7160e01b600052602260045260246000fd5b90607f1690620000b0565b600080fd5b604081019081106001600160401b03821117620004075760405256fe6080604081815260048036101561001557600080fd5b600092833560e01c90816306fdde031461095a57508063095ea7b31461093057806318160ddd1461091157806323b872dd146108d4578063313ce567146108b85780633644e51514610894578063395093511461084457806340293fda146107c757806340c10f191461069f57806342966c68146106815780634fb2ed6b1461065b57806370a0823114610624578063715018a6146105c757806379cc6790146105975780637ecebe001461055f5780638da5cb5b1461053657806395d89b4114610432578063a457c2d71461038b578063a9059cbb1461035a578063d505accf14610230578063dd62ed3e146101e35763f2fde38b1461011557600080fd5b346101df5760203660031901126101df5761012e610a99565b90610137610b19565b6001600160a01b0391821692831561018d575050600554826bffffffffffffffffffffffff60a01b821617600555167f8be0079c531659141344cd1fd0a4f28419497f9722a3daafe3b4186f6b6457e08380a380f35b906020608492519162461bcd60e51b8352820152602660248201527f4f776e61626c653a206e6577206f776e657220697320746865207a65726f206160448201526564647265737360d01b6064820152fd5b8280fd5b50503461022c578060031936011261022c5780602092610201610a99565b610209610ab4565b6001600160a01b0391821683526001865283832091168252845220549051908152f35b5080fd5b5082903461022c5761024136610aca565b90839794979695964211610317576001600160a01b03808716808b52600660209081528c8c208054600181019091558d51929793969594939183019291829161028e91908e8e8e88610fdb565b03601f19810182526102a09082610b71565b5190206102ac90611307565b926102b69361114d565b6102bf90611033565b16036102d457506102d1939450610d3a565b80f35b606490602087519162461bcd60e51b8352820152601e60248201527f45524332305065726d69743a20696e76616c6964207369676e617475726500006044820152fd5b895162461bcd60e51b8152602081870152601d60248201527f45524332305065726d69743a206578706972656420646561646c696e650000006044820152606490fd5b50503461022c578060031936011261022c5760209061038461037a610a99565b6024359033610bcc565b5160018152f35b50823461042f578260031936011261042f576103a5610a99565b918360243592338152600160205281812060018060a01b03861682526020522054908282106103de576020856103848585038733610d3a565b608490602086519162461bcd60e51b8352820152602560248201527f45524332303a2064656372656173656420616c6c6f77616e63652062656c6f77604482015264207a65726f60d81b6064820152fd5b80fd5b5091903461022c578160031936011261022c57805191809380549160019083821c9282851694851561052c575b6020958686108114610519578589529081156104f5575060011461049d575b610499878761048f828c0383610b71565b5191829182610a50565b0390f35b81529295507f8a35acfbc15ff81a39ae7d344fd709f28e8600b4aa8c65c6b64bfe7fe36bd19b5b8284106104e257505050826104999461048f9282010194388061047e565b80548685018801529286019281016104c4565b60ff19168887015250505050151560051b830101925061048f82610499388061047e565b634e487b7160e01b845260228352602484fd5b93607f169361045f565b50503461022c578160031936011261022c5760055490516001600160a01b039091168152602090f35b50503461022c57602036600319011261022c5760209181906001600160a01b03610587610a99565b1681526006845220549051908152f35b50503461022c5736600319011261042f576102d16105b3610a99565b602435906105c2823383610e3c565b610ed4565b833461042f578060031936011261042f576105e0610b19565b600580546001600160a01b0319811690915581906001600160a01b03167f8be0079c531659141344cd1fd0a4f28419497f9722a3daafe3b4186f6b6457e08280a380f35b50503461022c57602036600319011261022c5760209181906001600160a01b0361064c610a99565b16815280845220549051908152f35b50503461022c578160031936011261022c57602090516a084595161401484a0000008152f35b83823461022c57602036600319011261022c576102d1903533610ed4565b5090346101df57806003193601126101df576106b9610a99565b60025460243592916a084595161401484a0000006106d78584610ba9565b1161077a576001600160a01b03169384156107375750827fddf252ad1be2c89b69c2b068fc378daa952ba7f163c4a11628f55a4df523b3ef9261071d8795602094610ba9565b60025585855284835280852082815401905551908152a380f35b606490602084519162461bcd60e51b8352820152601f60248201527f45524332303a206d696e7420746f20746865207a65726f2061646472657373006044820152fd5b825162461bcd60e51b8152602081870152602160248201527f4d696e74696e6720776f756c642065786365656420746f74616c20737570706c6044820152607960f81b6064820152608490fd5b50503461022c5760209161083d9161083561083061081a6108286107ea36610aca565b9895949196928b60018060a09b949b1b039d8e8816815260206006905220548c5195602094879586019889610fdb565b03601f198101835282610b71565b519020611307565b61114d565b939093611033565b5191168152f35b50503461022c578060031936011261022c5761038460209261088d610867610a99565b338352600186528483206001600160a01b03821684528652918490205460243590610ba9565b9033610d3a565b50503461022c578160031936011261022c576020906108b16111dc565b9051908152f35b50503461022c578160031936011261022c576020905160128152f35b50503461022c57606036600319011261022c576020906103846108f5610a99565b6108fd610ab4565b6044359161090c833383610e3c565b610bcc565b50503461022c578160031936011261022c576020906002549051908152f35b50503461022c578060031936011261022c57602090610384610950610a99565b6024359033610d3a565b9291905034610a4c5783600319360112610a4c57600354600181811c9186908281168015610a42575b6020958686108214610a2f5750848852908115610a0d57506001146109b4575b610499868661048f828b0383610b71565b929550600383527fc2575a0e9e593c00f959f8c92f12db2869c3395a3b0502d05e2516446f71f85b5b8284106109fa57505050826104999461048f9282010194386109a3565b80548685018801529286019281016109dd565b60ff191687860152505050151560051b830101925061048f82610499386109a3565b634e487b7160e01b845260229052602483fd5b93607f1693610983565b8380fd5b6020808252825181830181905290939260005b828110610a8557505060409293506000838284010152601f8019910116010190565b818101860151848201604001528501610a63565b600435906001600160a01b0382168203610aaf57565b600080fd5b602435906001600160a01b0382168203610aaf57565b60e0906003190112610aaf576001600160a01b03906004358281168103610aaf57916024359081168103610aaf5790604435906064359060843560ff81168103610aaf579060a4359060c43590565b6005546001600160a01b03163303610b2d57565b606460405162461bcd60e51b815260206004820152602060248201527f4f776e61626c653a2063616c6c6572206973206e6f7420746865206f776e65726044820152fd5b90601f8019910116810190811067ffffffffffffffff821117610b9357604052565b634e487b7160e01b600052604160045260246000fd5b91908201809211610bb657565b634e487b7160e01b600052601160045260246000fd5b6001600160a01b03908116918215610ce75716918215610c9657600082815280602052604081205491808310610c4257604082827fddf252ad1be2c89b69c2b068fc378daa952ba7f163c4a11628f55a4df523b3ef958760209652828652038282205586815220818154019055604051908152a3565b60405162461bcd60e51b815260206004820152602660248201527f45524332303a207472616e7366657220616d6f756e7420657863656564732062604482015265616c616e636560d01b6064820152608490fd5b60405162461bcd60e51b815260206004820152602360248201527f45524332303a207472616e7366657220746f20746865207a65726f206164647260448201526265737360e81b6064820152608490fd5b60405162461bcd60e51b815260206004820152602560248201527f45524332303a207472616e736665722066726f6d20746865207a65726f206164604482015264647265737360d81b6064820152608490fd5b6001600160a01b03908116918215610deb5716918215610d9b5760207f8c5be1e5ebec7d5bd14f71427d1e84f3dd0314c0f7b2291e5b200ac8c7c3b925918360005260018252604060002085600052825280604060002055604051908152a3565b60405162461bcd60e51b815260206004820152602260248201527f45524332303a20617070726f766520746f20746865207a65726f206164647265604482015261737360f01b6064820152608490fd5b60405162461bcd60e51b8152602060048201526024808201527f45524332303a20617070726f76652066726f6d20746865207a65726f206164646044820152637265737360e01b6064820152608490fd5b9060018060a01b0380831660005260016020526040600020908216600052602052604060002054926000198403610e74575b50505050565b808410610e8f57610e86930391610d3a565b38808080610e6e565b60405162461bcd60e51b815260206004820152601d60248201527f45524332303a20696e73756666696369656e7420616c6c6f77616e63650000006044820152606490fd5b6001600160a01b03168015610f8c57600091818352826020526040832054818110610f3c57817fddf252ad1be2c89b69c2b068fc378daa952ba7f163c4a11628f55a4df523b3ef926020928587528684520360408620558060025403600255604051908152a3565b60405162461bcd60e51b815260206004820152602260248201527f45524332303a206275726e20616d6f756e7420657863656564732062616c616e604482015261636560f01b6064820152608490fd5b60405162461bcd60e51b815260206004820152602160248201527f45524332303a206275726e2066726f6d20746865207a65726f206164647265736044820152607360f81b6064820152608490fd5b7f6e71edae12b1b97f4d1f60370fef10105fa2faae0126114a169c64845d6126c981526001600160a01b039182166020820152911660408201526060810191909152608081019190915260a081019190915260c00190565b600581101561113757806110445750565b600181036110915760405162461bcd60e51b815260206004820152601860248201527f45434453413a20696e76616c6964207369676e617475726500000000000000006044820152606490fd5b600281036110de5760405162461bcd60e51b815260206004820152601f60248201527f45434453413a20696e76616c6964207369676e6174757265206c656e677468006044820152606490fd5b6003146110e757565b60405162461bcd60e51b815260206004820152602260248201527f45434453413a20696e76616c6964207369676e6174757265202773272076616c604482015261756560f01b6064820152608490fd5b634e487b7160e01b600052602160045260246000fd5b9291907f7fffffffffffffffffffffffffffffff5d576e7357a4501ddfe92f46681b20a083116111d05791608094939160ff602094604051948552168484015260408301526060820152600093849182805260015afa156111c35781516001600160a01b038116156111bd579190565b50600190565b50604051903d90823e3d90fd5b50505050600090600390565b307f00000000000000000000000000000000000000000000000000000000000000006001600160a01b031614806112de575b15611237577f000000000000000000000000000000000000000000000000000000000000000090565b60405160208101907f000000000000000000000000000000000000000000000000000000000000000082527f000000000000000000000000000000000000000000000000000000000000000060408201527f000000000000000000000000000000000000000000000000000000000000000060608201524660808201523060a082015260a0815260c0810181811067ffffffffffffffff821117610b935760405251902090565b507f0000000000000000000000000000000000000000000000000000000000000000461461120e565b61130f6111dc565b9060405190602082019261190160f01b845260228301526042820152604281526080810181811067ffffffffffffffff821117610b93576040525190209056fea2646970667358221220fad67bbbfcff87dd3fe2c0446d69dcd240ae6d11cf4f88154a2fd3bab95a3c0564736f6c63430008110033","opcodes":"PUSH2 0x140 PUSH1 0x40 SWAP1 DUP1 DUP3 MSTORE CALLVALUE PUSH3 0x513 JUMPI PUSH3 0x19 DUP2 PUSH3 0x518 JUMP JUMPDEST PUSH1 0x9 DUP2 MSTORE PUSH1 0x20 SWAP2 DUP3 DUP3 ADD SWAP2 PUSH9 0x232923902A37B5B2B7 PUSH1 0xB9 SHL SWAP4 DUP5 DUP5 MSTORE DUP3 MLOAD SWAP5 PUSH3 0x43 DUP7 PUSH3 0x518 JUMP JUMPDEST PUSH1 0x9 DUP7 MSTORE DUP2 DUP7 ADD MSTORE DUP3 MLOAD SWAP2 PUSH3 0x59 DUP4 PUSH3 0x518 JUMP JUMPDEST PUSH1 0x3 SWAP1 DUP2 DUP5 MSTORE PUSH3 0x465247 PUSH1 0xE8 SHL DUP4 DUP6 ADD MSTORE DUP5 MLOAD SWAP6 PUSH3 0x78 DUP8 PUSH3 0x518 JUMP JUMPDEST PUSH1 0x1 DUP1 DUP9 MSTORE PUSH1 0x31 PUSH1 0xF8 SHL DUP6 DUP10 ADD SWAP1 DUP2 MSTORE DUP10 MLOAD PUSH1 0x1 PUSH1 0x1 PUSH1 0x40 SHL SUB SWAP6 SWAP2 SWAP4 SWAP3 SWAP2 SWAP1 DUP7 DUP2 GT PUSH3 0x407 JUMPI DUP2 SLOAD DUP4 DUP2 DUP2 SHR SWAP2 AND DUP1 ISZERO PUSH3 0x508 JUMPI JUMPDEST DUP10 DUP3 LT EQ PUSH3 0x4F2 JUMPI DUP2 SWAP1 PUSH1 0x1F SWAP14 DUP2 DUP16 DUP1 SWAP4 GT PUSH3 0x490 JUMPI JUMPDEST POP DUP11 SWAP2 DUP4 GT PUSH1 0x1 EQ PUSH3 0x429 JUMPI PUSH1 0x0 SWAP3 PUSH3 0x41D JUMPI JUMPDEST POP POP PUSH1 0x0 NOT DUP3 DUP5 SHL SHR NOT AND SWAP1 DUP4 SHL OR DUP2 SSTORE JUMPDEST DUP8 MLOAD SWAP1 DUP7 DUP3 GT PUSH3 0x407 JUMPI PUSH1 0x4 SWAP9 DUP10 SLOAD DUP5 DUP2 DUP2 SHR SWAP2 AND DUP1 ISZERO PUSH3 0x3FC JUMPI JUMPDEST DUP11 DUP3 LT EQ PUSH3 0x3E7 JUMPI DUP14 DUP2 GT PUSH3 0x39B JUMPI JUMPDEST POP DUP9 SWAP1 DUP14 DUP5 GT PUSH1 0x1 EQ PUSH3 0x330 JUMPI SWAP4 DUP4 SWAP5 SWAP2 DUP5 SWAP3 PUSH1 0x0 SWAP6 PUSH3 0x324 JUMPI JUMPDEST POP POP SHL SWAP3 PUSH1 0x0 NOT SWAP2 SHL SHR NOT AND OR DUP7 SSTORE JUMPDEST PUSH1 0x5 DUP1 SLOAD CALLER PUSH1 0x1 PUSH1 0x1 PUSH1 0xA0 SHL SUB NOT DUP3 AND DUP2 OR SWAP1 SWAP3 SSTORE DUP9 MLOAD SWAP5 SWAP2 SWAP1 PUSH1 0x1 PUSH1 0x1 PUSH1 0xA0 SHL SUB AND PUSH32 0x8BE0079C531659141344CD1FD0A4F28419497F9722A3DAAFE3B4186F6B6457E0 PUSH1 0x0 DUP1 LOG3 MLOAD SWAP1 KECCAK256 SWAP7 MLOAD SWAP1 KECCAK256 SWAP7 DUP7 PUSH1 0xE0 MSTORE PUSH2 0x100 SWAP8 DUP1 DUP10 MSTORE CHAINID PUSH1 0xA0 MSTORE DUP5 DUP4 ADD SWAP1 PUSH32 0x8B73C3C69BB8FE3D512ECC4CF759CC79239F7B179B0FFACAA9A75D522B39400F SWAP9 DUP10 DUP4 MSTORE DUP9 DUP6 ADD MSTORE PUSH1 0x60 DUP5 ADD MSTORE CHAINID PUSH1 0x80 DUP5 ADD MSTORE ADDRESS PUSH1 0xA0 DUP5 ADD MSTORE PUSH1 0xA0 DUP4 MSTORE PUSH1 0xC0 DUP4 ADD SWAP4 DUP4 DUP6 LT SWAP1 DUP6 GT OR PUSH3 0x30F JUMPI DUP4 DUP8 MSTORE DUP3 MLOAD SWAP1 KECCAK256 PUSH1 0x80 MSTORE ADDRESS PUSH1 0xC0 MSTORE PUSH2 0x120 SWAP7 DUP8 MSTORE CALLER ISZERO PUSH3 0x2CF JUMPI POP POP POP PUSH1 0x2 SLOAD PUSH11 0x5CA4EC2A79A7F67000000 SWAP3 DUP4 DUP3 ADD DUP1 SWAP3 GT PUSH3 0x2BA JUMPI POP PUSH1 0x0 SWAP2 PUSH32 0xDDF252AD1BE2C89B69C2B068FC378DAA952BA7F163C4A11628F55A4DF523B3EF SWAP2 PUSH1 0x2 SSTORE CALLER DUP4 MSTORE DUP3 DUP2 MSTORE DUP5 DUP4 KECCAK256 DUP5 DUP2 SLOAD ADD SWAP1 SSTORE DUP5 MLOAD SWAP4 DUP5 MSTORE CALLER SWAP4 LOG3 MLOAD SWAP1 PUSH2 0x1385 SWAP3 DUP4 PUSH3 0x535 DUP5 CODECOPY PUSH1 0x80 MLOAD DUP4 PUSH2 0x1215 ADD MSTORE PUSH1 0xA0 MLOAD DUP4 PUSH2 0x12E1 ADD MSTORE PUSH1 0xC0 MLOAD DUP4 PUSH2 0x11DF ADD MSTORE PUSH1 0xE0 MLOAD DUP4 PUSH2 0x1264 ADD MSTORE MLOAD DUP3 PUSH2 0x128A ADD MSTORE MLOAD DUP2 PUSH2 0x1241 ADD MSTORE RETURN JUMPDEST PUSH1 0x11 SWAP1 PUSH4 0x4E487B71 PUSH1 0xE0 SHL PUSH1 0x0 MSTORE MSTORE PUSH1 0x24 PUSH1 0x0 REVERT JUMPDEST PUSH32 0x45524332303A206D696E7420746F20746865207A65726F206164647265737300 SWAP2 PUSH2 0x104 SWAP2 PUSH1 0x64 SWAP6 PUSH3 0x461BCD PUSH1 0xE5 SHL DUP7 MSTORE PUSH1 0xC4 DUP4 ADD MSTORE PUSH1 0xE4 DUP3 ADD MSTORE ADD MSTORE REVERT JUMPDEST PUSH1 0x41 DUP7 PUSH4 0x4E487B71 PUSH1 0xE0 SHL PUSH1 0x0 MSTORE MSTORE PUSH1 0x24 PUSH1 0x0 REVERT JUMPDEST ADD MLOAD SWAP4 POP CODESIZE DUP1 PUSH3 0x13E JUMP JUMPDEST SWAP2 SWAP1 PUSH1 0x1F NOT DUP5 AND SWAP3 DUP12 PUSH1 0x0 MSTORE DUP5 DUP12 PUSH1 0x0 KECCAK256 SWAP5 PUSH1 0x0 JUMPDEST DUP14 DUP10 DUP4 DUP4 LT PUSH3 0x383 JUMPI POP POP POP LT PUSH3 0x368 JUMPI JUMPDEST POP POP POP POP DUP2 SHL ADD DUP7 SSTORE PUSH3 0x14E JUMP JUMPDEST ADD MLOAD SWAP1 PUSH1 0xF8 DUP5 PUSH1 0x0 NOT SWAP3 SHL AND SHR NOT AND SWAP1 SSTORE CODESIZE DUP1 DUP1 DUP1 PUSH3 0x359 JUMP JUMPDEST DUP7 DUP7 ADD MLOAD DUP10 SSTORE SWAP1 SWAP8 ADD SWAP7 SWAP5 DUP6 ADD SWAP5 DUP9 SWAP4 POP ADD PUSH3 0x345 JUMP JUMPDEST DUP11 PUSH1 0x0 MSTORE DUP14 DUP11 PUSH1 0x0 KECCAK256 SWAP1 DUP1 DUP7 ADD PUSH1 0x5 SHR DUP3 ADD SWAP3 DUP13 DUP8 LT PUSH3 0x3DD JUMPI JUMPDEST ADD PUSH1 0x5 SHR ADD SWAP1 DUP6 SWAP1 JUMPDEST DUP3 DUP2 LT PUSH3 0x3D0 JUMPI POP POP PUSH3 0x121 JUMP JUMPDEST PUSH1 0x0 DUP2 SSTORE ADD DUP6 SWAP1 PUSH3 0x3C0 JUMP JUMPDEST SWAP3 POP DUP2 SWAP3 PUSH3 0x3B7 JUMP JUMPDEST PUSH1 0x22 DUP12 PUSH4 0x4E487B71 PUSH1 0xE0 SHL PUSH1 0x0 MSTORE MSTORE PUSH1 0x24 PUSH1 0x0 REVERT JUMPDEST SWAP1 PUSH1 0x7F AND SWAP1 PUSH3 0x10F JUMP JUMPDEST PUSH4 0x4E487B71 PUSH1 0xE0 SHL PUSH1 0x0 MSTORE PUSH1 0x41 PUSH1 0x4 MSTORE PUSH1 0x24 PUSH1 0x0 REVERT JUMPDEST ADD MLOAD SWAP1 POP CODESIZE DUP1 PUSH3 0xDF JUMP JUMPDEST SWAP1 DUP6 SWAP4 POP PUSH1 0x1F NOT DUP4 AND SWAP2 DUP6 PUSH1 0x0 MSTORE DUP12 PUSH1 0x0 KECCAK256 SWAP3 PUSH1 0x0 JUMPDEST DUP14 DUP3 DUP3 LT PUSH3 0x479 JUMPI POP POP DUP5 GT PUSH3 0x460 JUMPI JUMPDEST POP POP POP DUP2 SHL ADD DUP2 SSTORE PUSH3 0xF1 JUMP JUMPDEST ADD MLOAD PUSH1 0x0 NOT DUP4 DUP7 SHL PUSH1 0xF8 AND SHR NOT AND SWAP1 SSTORE CODESIZE DUP1 DUP1 PUSH3 0x452 JUMP JUMPDEST DUP4 DUP6 ADD MLOAD DUP7 SSTORE DUP10 SWAP8 SWAP1 SWAP6 ADD SWAP5 SWAP4 DUP5 ADD SWAP4 ADD PUSH3 0x43F JUMP JUMPDEST SWAP2 POP SWAP2 POP DUP4 PUSH1 0x0 MSTORE DUP14 DUP11 PUSH1 0x0 KECCAK256 SWAP1 DUP1 DUP6 ADD PUSH1 0x5 SHR DUP3 ADD SWAP3 DUP13 DUP7 LT PUSH3 0x4E8 JUMPI JUMPDEST DUP6 SWAP5 SWAP3 DUP3 DUP10 SWAP3 SWAP6 SWAP4 SWAP6 ADD PUSH1 0x5 SHR ADD SWAP2 JUMPDEST DUP3 DUP2 LT PUSH3 0x4D0 JUMPI POP POP PUSH3 0xC9 JUMP JUMPDEST PUSH1 0x0 SWAP2 SWAP4 SWAP6 POP DUP1 SWAP3 SWAP5 POP SSTORE ADD SWAP2 DUP15 SWAP2 DUP7 DUP6 SWAP5 PUSH3 0x4C0 JUMP JUMPDEST SWAP3 POP DUP2 SWAP3 PUSH3 0x4B0 JUMP JUMPDEST PUSH4 0x4E487B71 PUSH1 0xE0 SHL PUSH1 0x0 MSTORE PUSH1 0x22 PUSH1 0x4 MSTORE PUSH1 0x24 PUSH1 0x0 REVERT JUMPDEST SWAP1 PUSH1 0x7F AND SWAP1 PUSH3 0xB0 JUMP JUMPDEST PUSH1 0x0 DUP1 REVERT JUMPDEST PUSH1 0x40 DUP2 ADD SWAP1 DUP2 LT PUSH1 0x1 PUSH1 0x1 PUSH1 0x40 SHL SUB DUP3 GT OR PUSH3 0x407 JUMPI PUSH1 0x40 MSTORE JUMP INVALID PUSH1 0x80 PUSH1 0x40 DUP2 DUP2 MSTORE PUSH1 0x4 DUP1 CALLDATASIZE LT ISZERO PUSH2 0x15 JUMPI PUSH1 0x0 DUP1 REVERT JUMPDEST PUSH1 0x0 SWAP3 DUP4 CALLDATALOAD PUSH1 0xE0 SHR SWAP1 DUP2 PUSH4 0x6FDDE03 EQ PUSH2 0x95A JUMPI POP DUP1 PUSH4 0x95EA7B3 EQ PUSH2 0x930 JUMPI DUP1 PUSH4 0x18160DDD EQ PUSH2 0x911 JUMPI DUP1 PUSH4 0x23B872DD EQ PUSH2 0x8D4 JUMPI DUP1 PUSH4 0x313CE567 EQ PUSH2 0x8B8 JUMPI DUP1 PUSH4 0x3644E515 EQ PUSH2 0x894 JUMPI DUP1 PUSH4 0x39509351 EQ PUSH2 0x844 JUMPI DUP1 PUSH4 0x40293FDA EQ PUSH2 0x7C7 JUMPI DUP1 PUSH4 0x40C10F19 EQ PUSH2 0x69F JUMPI DUP1 PUSH4 0x42966C68 EQ PUSH2 0x681 JUMPI DUP1 PUSH4 0x4FB2ED6B EQ PUSH2 0x65B JUMPI DUP1 PUSH4 0x70A08231 EQ PUSH2 0x624 JUMPI DUP1 PUSH4 0x715018A6 EQ PUSH2 0x5C7 JUMPI DUP1 PUSH4 0x79CC6790 EQ PUSH2 0x597 JUMPI DUP1 PUSH4 0x7ECEBE00 EQ PUSH2 0x55F JUMPI DUP1 PUSH4 0x8DA5CB5B EQ PUSH2 0x536 JUMPI DUP1 PUSH4 0x95D89B41 EQ PUSH2 0x432 JUMPI DUP1 PUSH4 0xA457C2D7 EQ PUSH2 0x38B JUMPI DUP1 PUSH4 0xA9059CBB EQ PUSH2 0x35A JUMPI DUP1 PUSH4 0xD505ACCF EQ PUSH2 0x230 JUMPI DUP1 PUSH4 0xDD62ED3E EQ PUSH2 0x1E3 JUMPI PUSH4 0xF2FDE38B EQ PUSH2 0x115 JUMPI PUSH1 0x0 DUP1 REVERT JUMPDEST CALLVALUE PUSH2 0x1DF JUMPI PUSH1 0x20 CALLDATASIZE PUSH1 0x3 NOT ADD SLT PUSH2 0x1DF JUMPI PUSH2 0x12E PUSH2 0xA99 JUMP JUMPDEST SWAP1 PUSH2 0x137 PUSH2 0xB19 JUMP JUMPDEST PUSH1 0x1 PUSH1 0x1 PUSH1 0xA0 SHL SUB SWAP2 DUP3 AND SWAP3 DUP4 ISZERO PUSH2 0x18D JUMPI POP POP PUSH1 0x5 SLOAD DUP3 PUSH12 0xFFFFFFFFFFFFFFFFFFFFFFFF PUSH1 0xA0 SHL DUP3 AND OR PUSH1 0x5 SSTORE AND PUSH32 0x8BE0079C531659141344CD1FD0A4F28419497F9722A3DAAFE3B4186F6B6457E0 DUP4 DUP1 LOG3 DUP1 RETURN JUMPDEST SWAP1 PUSH1 0x20 PUSH1 0x84 SWAP3 MLOAD SWAP2 PUSH3 0x461BCD PUSH1 0xE5 SHL DUP4 MSTORE DUP3 ADD MSTORE PUSH1 0x26 PUSH1 0x24 DUP3 ADD MSTORE PUSH32 0x4F776E61626C653A206E6577206F776E657220697320746865207A65726F2061 PUSH1 0x44 DUP3 ADD MSTORE PUSH6 0x646472657373 PUSH1 0xD0 SHL PUSH1 0x64 DUP3 ADD MSTORE REVERT JUMPDEST DUP3 DUP1 REVERT JUMPDEST POP POP CALLVALUE PUSH2 0x22C JUMPI DUP1 PUSH1 0x3 NOT CALLDATASIZE ADD SLT PUSH2 0x22C JUMPI DUP1 PUSH1 0x20 SWAP3 PUSH2 0x201 PUSH2 0xA99 JUMP JUMPDEST PUSH2 0x209 PUSH2 0xAB4 JUMP JUMPDEST PUSH1 0x1 PUSH1 0x1 PUSH1 0xA0 SHL SUB SWAP2 DUP3 AND DUP4 MSTORE PUSH1 0x1 DUP7 MSTORE DUP4 DUP4 KECCAK256 SWAP2 AND DUP3 MSTORE DUP5 MSTORE KECCAK256 SLOAD SWAP1 MLOAD SWAP1 DUP2 MSTORE RETURN JUMPDEST POP DUP1 REVERT JUMPDEST POP DUP3 SWAP1 CALLVALUE PUSH2 0x22C JUMPI PUSH2 0x241 CALLDATASIZE PUSH2 0xACA JUMP JUMPDEST SWAP1 DUP4 SWAP8 SWAP5 SWAP8 SWAP7 SWAP6 SWAP7 TIMESTAMP GT PUSH2 0x317 JUMPI PUSH1 0x1 PUSH1 0x1 PUSH1 0xA0 SHL SUB DUP1 DUP8 AND DUP1 DUP12 MSTORE PUSH1 0x6 PUSH1 0x20 SWAP1 DUP2 MSTORE DUP13 DUP13 KECCAK256 DUP1 SLOAD PUSH1 0x1 DUP2 ADD SWAP1 SWAP2 SSTORE DUP14 MLOAD SWAP3 SWAP8 SWAP4 SWAP7 SWAP6 SWAP5 SWAP4 SWAP2 DUP4 ADD SWAP3 SWAP2 DUP3 SWAP2 PUSH2 0x28E SWAP2 SWAP1 DUP15 DUP15 DUP15 DUP9 PUSH2 0xFDB JUMP JUMPDEST SUB PUSH1 0x1F NOT DUP2 ADD DUP3 MSTORE PUSH2 0x2A0 SWAP1 DUP3 PUSH2 0xB71 JUMP JUMPDEST MLOAD SWAP1 KECCAK256 PUSH2 0x2AC SWAP1 PUSH2 0x1307 JUMP JUMPDEST SWAP3 PUSH2 0x2B6 SWAP4 PUSH2 0x114D JUMP JUMPDEST PUSH2 0x2BF SWAP1 PUSH2 0x1033 JUMP JUMPDEST AND SUB PUSH2 0x2D4 JUMPI POP PUSH2 0x2D1 SWAP4 SWAP5 POP PUSH2 0xD3A JUMP JUMPDEST DUP1 RETURN JUMPDEST PUSH1 0x64 SWAP1 PUSH1 0x20 DUP8 MLOAD SWAP2 PUSH3 0x461BCD PUSH1 0xE5 SHL DUP4 MSTORE DUP3 ADD MSTORE PUSH1 0x1E PUSH1 0x24 DUP3 ADD MSTORE PUSH32 0x45524332305065726D69743A20696E76616C6964207369676E61747572650000 PUSH1 0x44 DUP3 ADD MSTORE REVERT JUMPDEST DUP10 MLOAD PUSH3 0x461BCD PUSH1 0xE5 SHL DUP2 MSTORE PUSH1 0x20 DUP2 DUP8 ADD MSTORE PUSH1 0x1D PUSH1 0x24 DUP3 ADD MSTORE PUSH32 0x45524332305065726D69743A206578706972656420646561646C696E65000000 PUSH1 0x44 DUP3 ADD MSTORE PUSH1 0x64 SWAP1 REVERT JUMPDEST POP POP CALLVALUE PUSH2 0x22C JUMPI DUP1 PUSH1 0x3 NOT CALLDATASIZE ADD SLT PUSH2 0x22C JUMPI PUSH1 0x20 SWAP1 PUSH2 0x384 PUSH2 0x37A PUSH2 0xA99 JUMP JUMPDEST PUSH1 0x24 CALLDATALOAD SWAP1 CALLER PUSH2 0xBCC JUMP JUMPDEST MLOAD PUSH1 0x1 DUP2 MSTORE RETURN JUMPDEST POP DUP3 CALLVALUE PUSH2 0x42F JUMPI DUP3 PUSH1 0x3 NOT CALLDATASIZE ADD SLT PUSH2 0x42F JUMPI PUSH2 0x3A5 PUSH2 0xA99 JUMP JUMPDEST SWAP2 DUP4 PUSH1 0x24 CALLDATALOAD SWAP3 CALLER DUP2 MSTORE PUSH1 0x1 PUSH1 0x20 MSTORE DUP2 DUP2 KECCAK256 PUSH1 0x1 DUP1 PUSH1 0xA0 SHL SUB DUP7 AND DUP3 MSTORE PUSH1 0x20 MSTORE KECCAK256 SLOAD SWAP1 DUP3 DUP3 LT PUSH2 0x3DE JUMPI PUSH1 0x20 DUP6 PUSH2 0x384 DUP6 DUP6 SUB DUP8 CALLER PUSH2 0xD3A JUMP JUMPDEST PUSH1 0x84 SWAP1 PUSH1 0x20 DUP7 MLOAD SWAP2 PUSH3 0x461BCD PUSH1 0xE5 SHL DUP4 MSTORE DUP3 ADD MSTORE PUSH1 0x25 PUSH1 0x24 DUP3 ADD MSTORE PUSH32 0x45524332303A2064656372656173656420616C6C6F77616E63652062656C6F77 PUSH1 0x44 DUP3 ADD MSTORE PUSH5 0x207A65726F PUSH1 0xD8 SHL PUSH1 0x64 DUP3 ADD MSTORE REVERT JUMPDEST DUP1 REVERT JUMPDEST POP SWAP2 SWAP1 CALLVALUE PUSH2 0x22C JUMPI DUP2 PUSH1 0x3 NOT CALLDATASIZE ADD SLT PUSH2 0x22C JUMPI DUP1 MLOAD SWAP2 DUP1 SWAP4 DUP1 SLOAD SWAP2 PUSH1 0x1 SWAP1 DUP4 DUP3 SHR SWAP3 DUP3 DUP6 AND SWAP5 DUP6 ISZERO PUSH2 0x52C JUMPI JUMPDEST PUSH1 0x20 SWAP6 DUP7 DUP7 LT DUP2 EQ PUSH2 0x519 JUMPI DUP6 DUP10 MSTORE SWAP1 DUP2 ISZERO PUSH2 0x4F5 JUMPI POP PUSH1 0x1 EQ PUSH2 0x49D JUMPI JUMPDEST PUSH2 0x499 DUP8 DUP8 PUSH2 0x48F DUP3 DUP13 SUB DUP4 PUSH2 0xB71 JUMP JUMPDEST MLOAD SWAP2 DUP3 SWAP2 DUP3 PUSH2 0xA50 JUMP JUMPDEST SUB SWAP1 RETURN JUMPDEST DUP2 MSTORE SWAP3 SWAP6 POP PUSH32 0x8A35ACFBC15FF81A39AE7D344FD709F28E8600B4AA8C65C6B64BFE7FE36BD19B JUMPDEST DUP3 DUP5 LT PUSH2 0x4E2 JUMPI POP POP POP DUP3 PUSH2 0x499 SWAP5 PUSH2 0x48F SWAP3 DUP3 ADD ADD SWAP5 CODESIZE DUP1 PUSH2 0x47E JUMP JUMPDEST DUP1 SLOAD DUP7 DUP6 ADD DUP9 ADD MSTORE SWAP3 DUP7 ADD SWAP3 DUP2 ADD PUSH2 0x4C4 JUMP JUMPDEST PUSH1 0xFF NOT AND DUP9 DUP8 ADD MSTORE POP POP POP POP ISZERO ISZERO PUSH1 0x5 SHL DUP4 ADD ADD SWAP3 POP PUSH2 0x48F DUP3 PUSH2 0x499 CODESIZE DUP1 PUSH2 0x47E JUMP JUMPDEST PUSH4 0x4E487B71 PUSH1 0xE0 SHL DUP5 MSTORE PUSH1 0x22 DUP4 MSTORE PUSH1 0x24 DUP5 REVERT JUMPDEST SWAP4 PUSH1 0x7F AND SWAP4 PUSH2 0x45F JUMP JUMPDEST POP POP CALLVALUE PUSH2 0x22C JUMPI DUP2 PUSH1 0x3 NOT CALLDATASIZE ADD SLT PUSH2 0x22C JUMPI PUSH1 0x5 SLOAD SWAP1 MLOAD PUSH1 0x1 PUSH1 0x1 PUSH1 0xA0 SHL SUB SWAP1 SWAP2 AND DUP2 MSTORE PUSH1 0x20 SWAP1 RETURN JUMPDEST POP POP CALLVALUE PUSH2 0x22C JUMPI PUSH1 0x20 CALLDATASIZE PUSH1 0x3 NOT ADD SLT PUSH2 0x22C JUMPI PUSH1 0x20 SWAP2 DUP2 SWAP1 PUSH1 0x1 PUSH1 0x1 PUSH1 0xA0 SHL SUB PUSH2 0x587 PUSH2 0xA99 JUMP JUMPDEST AND DUP2 MSTORE PUSH1 0x6 DUP5 MSTORE KECCAK256 SLOAD SWAP1 MLOAD SWAP1 DUP2 MSTORE RETURN JUMPDEST POP POP CALLVALUE PUSH2 0x22C JUMPI CALLDATASIZE PUSH1 0x3 NOT ADD SLT PUSH2 0x42F JUMPI PUSH2 0x2D1 PUSH2 0x5B3 PUSH2 0xA99 JUMP JUMPDEST PUSH1 0x24 CALLDATALOAD SWAP1 PUSH2 0x5C2 DUP3 CALLER DUP4 PUSH2 0xE3C JUMP JUMPDEST PUSH2 0xED4 JUMP JUMPDEST DUP4 CALLVALUE PUSH2 0x42F JUMPI DUP1 PUSH1 0x3 NOT CALLDATASIZE ADD SLT PUSH2 0x42F JUMPI PUSH2 0x5E0 PUSH2 0xB19 JUMP JUMPDEST PUSH1 0x5 DUP1 SLOAD PUSH1 0x1 PUSH1 0x1 PUSH1 0xA0 SHL SUB NOT DUP2 AND SWAP1 SWAP2 SSTORE DUP2 SWAP1 PUSH1 0x1 PUSH1 0x1 PUSH1 0xA0 SHL SUB AND PUSH32 0x8BE0079C531659141344CD1FD0A4F28419497F9722A3DAAFE3B4186F6B6457E0 DUP3 DUP1 LOG3 DUP1 RETURN JUMPDEST POP POP CALLVALUE PUSH2 0x22C JUMPI PUSH1 0x20 CALLDATASIZE PUSH1 0x3 NOT ADD SLT PUSH2 0x22C JUMPI PUSH1 0x20 SWAP2 DUP2 SWAP1 PUSH1 0x1 PUSH1 0x1 PUSH1 0xA0 SHL SUB PUSH2 0x64C PUSH2 0xA99 JUMP JUMPDEST AND DUP2 MSTORE DUP1 DUP5 MSTORE KECCAK256 SLOAD SWAP1 MLOAD SWAP1 DUP2 MSTORE RETURN JUMPDEST POP POP CALLVALUE PUSH2 0x22C JUMPI DUP2 PUSH1 0x3 NOT CALLDATASIZE ADD SLT PUSH2 0x22C JUMPI PUSH1 0x20 SWAP1 MLOAD PUSH11 0x84595161401484A000000 DUP2 MSTORE RETURN JUMPDEST DUP4 DUP3 CALLVALUE PUSH2 0x22C JUMPI PUSH1 0x20 CALLDATASIZE PUSH1 0x3 NOT ADD SLT PUSH2 0x22C JUMPI PUSH2 0x2D1 SWAP1 CALLDATALOAD CALLER PUSH2 0xED4 JUMP JUMPDEST POP SWAP1 CALLVALUE PUSH2 0x1DF JUMPI DUP1 PUSH1 0x3 NOT CALLDATASIZE ADD SLT PUSH2 0x1DF JUMPI PUSH2 0x6B9 PUSH2 0xA99 JUMP JUMPDEST PUSH1 0x2 SLOAD PUSH1 0x24 CALLDATALOAD SWAP3 SWAP2 PUSH11 0x84595161401484A000000 PUSH2 0x6D7 DUP6 DUP5 PUSH2 0xBA9 JUMP JUMPDEST GT PUSH2 0x77A JUMPI PUSH1 0x1 PUSH1 0x1 PUSH1 0xA0 SHL SUB AND SWAP4 DUP5 ISZERO PUSH2 0x737 JUMPI POP DUP3 PUSH32 0xDDF252AD1BE2C89B69C2B068FC378DAA952BA7F163C4A11628F55A4DF523B3EF SWAP3 PUSH2 0x71D DUP8 SWAP6 PUSH1 0x20 SWAP5 PUSH2 0xBA9 JUMP JUMPDEST PUSH1 0x2 SSTORE DUP6 DUP6 MSTORE DUP5 DUP4 MSTORE DUP1 DUP6 KECCAK256 DUP3 DUP2 SLOAD ADD SWAP1 SSTORE MLOAD SWAP1 DUP2 MSTORE LOG3 DUP1 RETURN JUMPDEST PUSH1 0x64 SWAP1 PUSH1 0x20 DUP5 MLOAD SWAP2 PUSH3 0x461BCD PUSH1 0xE5 SHL DUP4 MSTORE DUP3 ADD MSTORE PUSH1 0x1F PUSH1 0x24 DUP3 ADD MSTORE PUSH32 0x45524332303A206D696E7420746F20746865207A65726F206164647265737300 PUSH1 0x44 DUP3 ADD MSTORE REVERT JUMPDEST DUP3 MLOAD PUSH3 0x461BCD PUSH1 0xE5 SHL DUP2 MSTORE PUSH1 0x20 DUP2 DUP8 ADD MSTORE PUSH1 0x21 PUSH1 0x24 DUP3 ADD MSTORE PUSH32 0x4D696E74696E6720776F756C642065786365656420746F74616C20737570706C PUSH1 0x44 DUP3 ADD MSTORE PUSH1 0x79 PUSH1 0xF8 SHL PUSH1 0x64 DUP3 ADD MSTORE PUSH1 0x84 SWAP1 REVERT JUMPDEST POP POP CALLVALUE PUSH2 0x22C JUMPI PUSH1 0x20 SWAP2 PUSH2 0x83D SWAP2 PUSH2 0x835 PUSH2 0x830 PUSH2 0x81A PUSH2 0x828 PUSH2 0x7EA CALLDATASIZE PUSH2 0xACA JUMP JUMPDEST SWAP9 SWAP6 SWAP5 SWAP2 SWAP7 SWAP3 DUP12 PUSH1 0x1 DUP1 PUSH1 0xA0 SWAP12 SWAP5 SWAP12 SHL SUB SWAP14 DUP15 DUP9 AND DUP2 MSTORE PUSH1 0x20 PUSH1 0x6 SWAP1 MSTORE KECCAK256 SLOAD DUP13 MLOAD SWAP6 PUSH1 0x20 SWAP5 DUP8 SWAP6 DUP7 ADD SWAP9 DUP10 PUSH2 0xFDB JUMP JUMPDEST SUB PUSH1 0x1F NOT DUP2 ADD DUP4 MSTORE DUP3 PUSH2 0xB71 JUMP JUMPDEST MLOAD SWAP1 KECCAK256 PUSH2 0x1307 JUMP JUMPDEST PUSH2 0x114D JUMP JUMPDEST SWAP4 SWAP1 SWAP4 PUSH2 0x1033 JUMP JUMPDEST MLOAD SWAP2 AND DUP2 MSTORE RETURN JUMPDEST POP POP CALLVALUE PUSH2 0x22C JUMPI DUP1 PUSH1 0x3 NOT CALLDATASIZE ADD SLT PUSH2 0x22C JUMPI PUSH2 0x384 PUSH1 0x20 SWAP3 PUSH2 0x88D PUSH2 0x867 PUSH2 0xA99 JUMP JUMPDEST CALLER DUP4 MSTORE PUSH1 0x1 DUP7 MSTORE DUP5 DUP4 KECCAK256 PUSH1 0x1 PUSH1 0x1 PUSH1 0xA0 SHL SUB DUP3 AND DUP5 MSTORE DUP7 MSTORE SWAP2 DUP5 SWAP1 KECCAK256 SLOAD PUSH1 0x24 CALLDATALOAD SWAP1 PUSH2 0xBA9 JUMP JUMPDEST SWAP1 CALLER PUSH2 0xD3A JUMP JUMPDEST POP POP CALLVALUE PUSH2 0x22C JUMPI DUP2 PUSH1 0x3 NOT CALLDATASIZE ADD SLT PUSH2 0x22C JUMPI PUSH1 0x20 SWAP1 PUSH2 0x8B1 PUSH2 0x11DC JUMP JUMPDEST SWAP1 MLOAD SWAP1 DUP2 MSTORE RETURN JUMPDEST POP POP CALLVALUE PUSH2 0x22C JUMPI DUP2 PUSH1 0x3 NOT CALLDATASIZE ADD SLT PUSH2 0x22C JUMPI PUSH1 0x20 SWAP1 MLOAD PUSH1 0x12 DUP2 MSTORE RETURN JUMPDEST POP POP CALLVALUE PUSH2 0x22C JUMPI PUSH1 0x60 CALLDATASIZE PUSH1 0x3 NOT ADD SLT PUSH2 0x22C JUMPI PUSH1 0x20 SWAP1 PUSH2 0x384 PUSH2 0x8F5 PUSH2 0xA99 JUMP JUMPDEST PUSH2 0x8FD PUSH2 0xAB4 JUMP JUMPDEST PUSH1 0x44 CALLDATALOAD SWAP2 PUSH2 0x90C DUP4 CALLER DUP4 PUSH2 0xE3C JUMP JUMPDEST PUSH2 0xBCC JUMP JUMPDEST POP POP CALLVALUE PUSH2 0x22C JUMPI DUP2 PUSH1 0x3 NOT CALLDATASIZE ADD SLT PUSH2 0x22C JUMPI PUSH1 0x20 SWAP1 PUSH1 0x2 SLOAD SWAP1 MLOAD SWAP1 DUP2 MSTORE RETURN JUMPDEST POP POP CALLVALUE PUSH2 0x22C JUMPI DUP1 PUSH1 0x3 NOT CALLDATASIZE ADD SLT PUSH2 0x22C JUMPI PUSH1 0x20 SWAP1 PUSH2 0x384 PUSH2 0x950 PUSH2 0xA99 JUMP JUMPDEST PUSH1 0x24 CALLDATALOAD SWAP1 CALLER PUSH2 0xD3A JUMP JUMPDEST SWAP3 SWAP2 SWAP1 POP CALLVALUE PUSH2 0xA4C JUMPI DUP4 PUSH1 0x3 NOT CALLDATASIZE ADD SLT PUSH2 0xA4C JUMPI PUSH1 0x3 SLOAD PUSH1 0x1 DUP2 DUP2 SHR SWAP2 DUP7 SWAP1 DUP3 DUP2 AND DUP1 ISZERO PUSH2 0xA42 JUMPI JUMPDEST PUSH1 0x20 SWAP6 DUP7 DUP7 LT DUP3 EQ PUSH2 0xA2F JUMPI POP DUP5 DUP9 MSTORE SWAP1 DUP2 ISZERO PUSH2 0xA0D JUMPI POP PUSH1 0x1 EQ PUSH2 0x9B4 JUMPI JUMPDEST PUSH2 0x499 DUP7 DUP7 PUSH2 0x48F DUP3 DUP12 SUB DUP4 PUSH2 0xB71 JUMP JUMPDEST SWAP3 SWAP6 POP PUSH1 0x3 DUP4 MSTORE PUSH32 0xC2575A0E9E593C00F959F8C92F12DB2869C3395A3B0502D05E2516446F71F85B JUMPDEST DUP3 DUP5 LT PUSH2 0x9FA JUMPI POP POP POP DUP3 PUSH2 0x499 SWAP5 PUSH2 0x48F SWAP3 DUP3 ADD ADD SWAP5 CODESIZE PUSH2 0x9A3 JUMP JUMPDEST DUP1 SLOAD DUP7 DUP6 ADD DUP9 ADD MSTORE SWAP3 DUP7 ADD SWAP3 DUP2 ADD PUSH2 0x9DD JUMP JUMPDEST PUSH1 0xFF NOT AND DUP8 DUP7 ADD MSTORE POP POP POP ISZERO ISZERO PUSH1 0x5 SHL DUP4 ADD ADD SWAP3 POP PUSH2 0x48F DUP3 PUSH2 0x499 CODESIZE PUSH2 0x9A3 JUMP JUMPDEST PUSH4 0x4E487B71 PUSH1 0xE0 SHL DUP5 MSTORE PUSH1 0x22 SWAP1 MSTORE PUSH1 0x24 DUP4 REVERT JUMPDEST SWAP4 PUSH1 0x7F AND SWAP4 PUSH2 0x983 JUMP JUMPDEST DUP4 DUP1 REVERT JUMPDEST PUSH1 0x20 DUP1 DUP3 MSTORE DUP3 MLOAD DUP2 DUP4 ADD DUP2 SWAP1 MSTORE SWAP1 SWAP4 SWAP3 PUSH1 0x0 JUMPDEST DUP3 DUP2 LT PUSH2 0xA85 JUMPI POP POP PUSH1 0x40 SWAP3 SWAP4 POP PUSH1 0x0 DUP4 DUP3 DUP5 ADD ADD MSTORE PUSH1 0x1F DUP1 NOT SWAP2 ADD AND ADD ADD SWAP1 JUMP JUMPDEST DUP2 DUP2 ADD DUP7 ADD MLOAD DUP5 DUP3 ADD PUSH1 0x40 ADD MSTORE DUP6 ADD PUSH2 0xA63 JUMP JUMPDEST PUSH1 0x4 CALLDATALOAD SWAP1 PUSH1 0x1 PUSH1 0x1 PUSH1 0xA0 SHL SUB DUP3 AND DUP3 SUB PUSH2 0xAAF JUMPI JUMP JUMPDEST PUSH1 0x0 DUP1 REVERT JUMPDEST PUSH1 0x24 CALLDATALOAD SWAP1 PUSH1 0x1 PUSH1 0x1 PUSH1 0xA0 SHL SUB DUP3 AND DUP3 SUB PUSH2 0xAAF JUMPI JUMP JUMPDEST PUSH1 0xE0 SWAP1 PUSH1 0x3 NOT ADD SLT PUSH2 0xAAF JUMPI PUSH1 0x1 PUSH1 0x1 PUSH1 0xA0 SHL SUB SWAP1 PUSH1 0x4 CALLDATALOAD DUP3 DUP2 AND DUP2 SUB PUSH2 0xAAF JUMPI SWAP2 PUSH1 0x24 CALLDATALOAD SWAP1 DUP2 AND DUP2 SUB PUSH2 0xAAF JUMPI SWAP1 PUSH1 0x44 CALLDATALOAD SWAP1 PUSH1 0x64 CALLDATALOAD SWAP1 PUSH1 0x84 CALLDATALOAD PUSH1 0xFF DUP2 AND DUP2 SUB PUSH2 0xAAF JUMPI SWAP1 PUSH1 0xA4 CALLDATALOAD SWAP1 PUSH1 0xC4 CALLDATALOAD SWAP1 JUMP JUMPDEST PUSH1 0x5 SLOAD PUSH1 0x1 PUSH1 0x1 PUSH1 0xA0 SHL SUB AND CALLER SUB PUSH2 0xB2D JUMPI JUMP JUMPDEST PUSH1 0x64 PUSH1 0x40 MLOAD PUSH3 0x461BCD PUSH1 0xE5 SHL DUP2 MSTORE PUSH1 0x20 PUSH1 0x4 DUP3 ADD MSTORE PUSH1 0x20 PUSH1 0x24 DUP3 ADD MSTORE PUSH32 0x4F776E61626C653A2063616C6C6572206973206E6F7420746865206F776E6572 PUSH1 0x44 DUP3 ADD MSTORE REVERT JUMPDEST SWAP1 PUSH1 0x1F DUP1 NOT SWAP2 ADD AND DUP2 ADD SWAP1 DUP2 LT PUSH8 0xFFFFFFFFFFFFFFFF DUP3 GT OR PUSH2 0xB93 JUMPI PUSH1 0x40 MSTORE JUMP JUMPDEST PUSH4 0x4E487B71 PUSH1 0xE0 SHL PUSH1 0x0 MSTORE PUSH1 0x41 PUSH1 0x4 MSTORE PUSH1 0x24 PUSH1 0x0 REVERT JUMPDEST SWAP2 SWAP1 DUP3 ADD DUP1 SWAP3 GT PUSH2 0xBB6 JUMPI JUMP JUMPDEST PUSH4 0x4E487B71 PUSH1 0xE0 SHL PUSH1 0x0 MSTORE PUSH1 0x11 PUSH1 0x4 MSTORE PUSH1 0x24 PUSH1 0x0 REVERT JUMPDEST PUSH1 0x1 PUSH1 0x1 PUSH1 0xA0 SHL SUB SWAP1 DUP2 AND SWAP2 DUP3 ISZERO PUSH2 0xCE7 JUMPI AND SWAP2 DUP3 ISZERO PUSH2 0xC96 JUMPI PUSH1 0x0 DUP3 DUP2 MSTORE DUP1 PUSH1 0x20 MSTORE PUSH1 0x40 DUP2 KECCAK256 SLOAD SWAP2 DUP1 DUP4 LT PUSH2 0xC42 JUMPI PUSH1 0x40 DUP3 DUP3 PUSH32 0xDDF252AD1BE2C89B69C2B068FC378DAA952BA7F163C4A11628F55A4DF523B3EF SWAP6 DUP8 PUSH1 0x20 SWAP7 MSTORE DUP3 DUP7 MSTORE SUB DUP3 DUP3 KECCAK256 SSTORE DUP7 DUP2 MSTORE KECCAK256 DUP2 DUP2 SLOAD ADD SWAP1 SSTORE PUSH1 0x40 MLOAD SWAP1 DUP2 MSTORE LOG3 JUMP JUMPDEST PUSH1 0x40 MLOAD PUSH3 0x461BCD PUSH1 0xE5 SHL DUP2 MSTORE PUSH1 0x20 PUSH1 0x4 DUP3 ADD MSTORE PUSH1 0x26 PUSH1 0x24 DUP3 ADD MSTORE PUSH32 0x45524332303A207472616E7366657220616D6F756E7420657863656564732062 PUSH1 0x44 DUP3 ADD MSTORE PUSH6 0x616C616E6365 PUSH1 0xD0 SHL PUSH1 0x64 DUP3 ADD MSTORE PUSH1 0x84 SWAP1 REVERT JUMPDEST PUSH1 0x40 MLOAD PUSH3 0x461BCD PUSH1 0xE5 SHL DUP2 MSTORE PUSH1 0x20 PUSH1 0x4 DUP3 ADD MSTORE PUSH1 0x23 PUSH1 0x24 DUP3 ADD MSTORE PUSH32 0x45524332303A207472616E7366657220746F20746865207A65726F2061646472 PUSH1 0x44 DUP3 ADD MSTORE PUSH3 0x657373 PUSH1 0xE8 SHL PUSH1 0x64 DUP3 ADD MSTORE PUSH1 0x84 SWAP1 REVERT JUMPDEST PUSH1 0x40 MLOAD PUSH3 0x461BCD PUSH1 0xE5 SHL DUP2 MSTORE PUSH1 0x20 PUSH1 0x4 DUP3 ADD MSTORE PUSH1 0x25 PUSH1 0x24 DUP3 ADD MSTORE PUSH32 0x45524332303A207472616E736665722066726F6D20746865207A65726F206164 PUSH1 0x44 DUP3 ADD MSTORE PUSH5 0x6472657373 PUSH1 0xD8 SHL PUSH1 0x64 DUP3 ADD MSTORE PUSH1 0x84 SWAP1 REVERT JUMPDEST PUSH1 0x1 PUSH1 0x1 PUSH1 0xA0 SHL SUB SWAP1 DUP2 AND SWAP2 DUP3 ISZERO PUSH2 0xDEB JUMPI AND SWAP2 DUP3 ISZERO PUSH2 0xD9B JUMPI PUSH1 0x20 PUSH32 0x8C5BE1E5EBEC7D5BD14F71427D1E84F3DD0314C0F7B2291E5B200AC8C7C3B925 SWAP2 DUP4 PUSH1 0x0 MSTORE PUSH1 0x1 DUP3 MSTORE PUSH1 0x40 PUSH1 0x0 KECCAK256 DUP6 PUSH1 0x0 MSTORE DUP3 MSTORE DUP1 PUSH1 0x40 PUSH1 0x0 KECCAK256 SSTORE PUSH1 0x40 MLOAD SWAP1 DUP2 MSTORE LOG3 JUMP JUMPDEST PUSH1 0x40 MLOAD PUSH3 0x461BCD PUSH1 0xE5 SHL DUP2 MSTORE PUSH1 0x20 PUSH1 0x4 DUP3 ADD MSTORE PUSH1 0x22 PUSH1 0x24 DUP3 ADD MSTORE PUSH32 0x45524332303A20617070726F766520746F20746865207A65726F206164647265 PUSH1 0x44 DUP3 ADD MSTORE PUSH2 0x7373 PUSH1 0xF0 SHL PUSH1 0x64 DUP3 ADD MSTORE PUSH1 0x84 SWAP1 REVERT JUMPDEST PUSH1 0x40 MLOAD PUSH3 0x461BCD PUSH1 0xE5 SHL DUP2 MSTORE PUSH1 0x20 PUSH1 0x4 DUP3 ADD MSTORE PUSH1 0x24 DUP1 DUP3 ADD MSTORE PUSH32 0x45524332303A20617070726F76652066726F6D20746865207A65726F20616464 PUSH1 0x44 DUP3 ADD MSTORE PUSH4 0x72657373 PUSH1 0xE0 SHL PUSH1 0x64 DUP3 ADD MSTORE PUSH1 0x84 SWAP1 REVERT JUMPDEST SWAP1 PUSH1 0x1 DUP1 PUSH1 0xA0 SHL SUB DUP1 DUP4 AND PUSH1 0x0 MSTORE PUSH1 0x1 PUSH1 0x20 MSTORE PUSH1 0x40 PUSH1 0x0 KECCAK256 SWAP1 DUP3 AND PUSH1 0x0 MSTORE PUSH1 0x20 MSTORE PUSH1 0x40 PUSH1 0x0 KECCAK256 SLOAD SWAP3 PUSH1 0x0 NOT DUP5 SUB PUSH2 0xE74 JUMPI JUMPDEST POP POP POP POP JUMP JUMPDEST DUP1 DUP5 LT PUSH2 0xE8F JUMPI PUSH2 0xE86 SWAP4 SUB SWAP2 PUSH2 0xD3A JUMP JUMPDEST CODESIZE DUP1 DUP1 DUP1 PUSH2 0xE6E JUMP JUMPDEST PUSH1 0x40 MLOAD PUSH3 0x461BCD PUSH1 0xE5 SHL DUP2 MSTORE PUSH1 0x20 PUSH1 0x4 DUP3 ADD MSTORE PUSH1 0x1D PUSH1 0x24 DUP3 ADD MSTORE PUSH32 0x45524332303A20696E73756666696369656E7420616C6C6F77616E6365000000 PUSH1 0x44 DUP3 ADD MSTORE PUSH1 0x64 SWAP1 REVERT JUMPDEST PUSH1 0x1 PUSH1 0x1 PUSH1 0xA0 SHL SUB AND DUP1 ISZERO PUSH2 0xF8C JUMPI PUSH1 0x0 SWAP2 DUP2 DUP4 MSTORE DUP3 PUSH1 0x20 MSTORE PUSH1 0x40 DUP4 KECCAK256 SLOAD DUP2 DUP2 LT PUSH2 0xF3C JUMPI DUP2 PUSH32 0xDDF252AD1BE2C89B69C2B068FC378DAA952BA7F163C4A11628F55A4DF523B3EF SWAP3 PUSH1 0x20 SWAP3 DUP6 DUP8 MSTORE DUP7 DUP5 MSTORE SUB PUSH1 0x40 DUP7 KECCAK256 SSTORE DUP1 PUSH1 0x2 SLOAD SUB PUSH1 0x2 SSTORE PUSH1 0x40 MLOAD SWAP1 DUP2 MSTORE LOG3 JUMP JUMPDEST PUSH1 0x40 MLOAD PUSH3 0x461BCD PUSH1 0xE5 SHL DUP2 MSTORE PUSH1 0x20 PUSH1 0x4 DUP3 ADD MSTORE PUSH1 0x22 PUSH1 0x24 DUP3 ADD MSTORE PUSH32 0x45524332303A206275726E20616D6F756E7420657863656564732062616C616E PUSH1 0x44 DUP3 ADD MSTORE PUSH2 0x6365 PUSH1 0xF0 SHL PUSH1 0x64 DUP3 ADD MSTORE PUSH1 0x84 SWAP1 REVERT JUMPDEST PUSH1 0x40 MLOAD PUSH3 0x461BCD PUSH1 0xE5 SHL DUP2 MSTORE PUSH1 0x20 PUSH1 0x4 DUP3 ADD MSTORE PUSH1 0x21 PUSH1 0x24 DUP3 ADD MSTORE PUSH32 0x45524332303A206275726E2066726F6D20746865207A65726F20616464726573 PUSH1 0x44 DUP3 ADD MSTORE PUSH1 0x73 PUSH1 0xF8 SHL PUSH1 0x64 DUP3 ADD MSTORE PUSH1 0x84 SWAP1 REVERT JUMPDEST PUSH32 0x6E71EDAE12B1B97F4D1F60370FEF10105FA2FAAE0126114A169C64845D6126C9 DUP2 MSTORE PUSH1 0x1 PUSH1 0x1 PUSH1 0xA0 SHL SUB SWAP2 DUP3 AND PUSH1 0x20 DUP3 ADD MSTORE SWAP2 AND PUSH1 0x40 DUP3 ADD MSTORE PUSH1 0x60 DUP2 ADD SWAP2 SWAP1 SWAP2 MSTORE PUSH1 0x80 DUP2 ADD SWAP2 SWAP1 SWAP2 MSTORE PUSH1 0xA0 DUP2 ADD SWAP2 SWAP1 SWAP2 MSTORE PUSH1 0xC0 ADD SWAP1 JUMP JUMPDEST PUSH1 0x5 DUP2 LT ISZERO PUSH2 0x1137 JUMPI DUP1 PUSH2 0x1044 JUMPI POP JUMP JUMPDEST PUSH1 0x1 DUP2 SUB PUSH2 0x1091 JUMPI PUSH1 0x40 MLOAD PUSH3 0x461BCD PUSH1 0xE5 SHL DUP2 MSTORE PUSH1 0x20 PUSH1 0x4 DUP3 ADD MSTORE PUSH1 0x18 PUSH1 0x24 DUP3 ADD MSTORE PUSH32 0x45434453413A20696E76616C6964207369676E61747572650000000000000000 PUSH1 0x44 DUP3 ADD MSTORE PUSH1 0x64 SWAP1 REVERT JUMPDEST PUSH1 0x2 DUP2 SUB PUSH2 0x10DE JUMPI PUSH1 0x40 MLOAD PUSH3 0x461BCD PUSH1 0xE5 SHL DUP2 MSTORE PUSH1 0x20 PUSH1 0x4 DUP3 ADD MSTORE PUSH1 0x1F PUSH1 0x24 DUP3 ADD MSTORE PUSH32 0x45434453413A20696E76616C6964207369676E6174757265206C656E67746800 PUSH1 0x44 DUP3 ADD MSTORE PUSH1 0x64 SWAP1 REVERT JUMPDEST PUSH1 0x3 EQ PUSH2 0x10E7 JUMPI JUMP JUMPDEST PUSH1 0x40 MLOAD PUSH3 0x461BCD PUSH1 0xE5 SHL DUP2 MSTORE PUSH1 0x20 PUSH1 0x4 DUP3 ADD MSTORE PUSH1 0x22 PUSH1 0x24 DUP3 ADD MSTORE PUSH32 0x45434453413A20696E76616C6964207369676E6174757265202773272076616C PUSH1 0x44 DUP3 ADD MSTORE PUSH2 0x7565 PUSH1 0xF0 SHL PUSH1 0x64 DUP3 ADD MSTORE PUSH1 0x84 SWAP1 REVERT JUMPDEST PUSH4 0x4E487B71 PUSH1 0xE0 SHL PUSH1 0x0 MSTORE PUSH1 0x21 PUSH1 0x4 MSTORE PUSH1 0x24 PUSH1 0x0 REVERT JUMPDEST SWAP3 SWAP2 SWAP1 PUSH32 0x7FFFFFFFFFFFFFFFFFFFFFFFFFFFFFFF5D576E7357A4501DDFE92F46681B20A0 DUP4 GT PUSH2 0x11D0 JUMPI SWAP2 PUSH1 0x80 SWAP5 SWAP4 SWAP2 PUSH1 0xFF PUSH1 0x20 SWAP5 PUSH1 0x40 MLOAD SWAP5 DUP6 MSTORE AND DUP5 DUP5 ADD MSTORE PUSH1 0x40 DUP4 ADD MSTORE PUSH1 0x60 DUP3 ADD MSTORE PUSH1 0x0 SWAP4 DUP5 SWAP2 DUP3 DUP1 MSTORE PUSH1 0x1 GAS STATICCALL ISZERO PUSH2 0x11C3 JUMPI DUP2 MLOAD PUSH1 0x1 PUSH1 0x1 PUSH1 0xA0 SHL SUB DUP2 AND ISZERO PUSH2 0x11BD JUMPI SWAP2 SWAP1 JUMP JUMPDEST POP PUSH1 0x1 SWAP1 JUMP JUMPDEST POP PUSH1 0x40 MLOAD SWAP1 RETURNDATASIZE SWAP1 DUP3 RETURNDATACOPY RETURNDATASIZE SWAP1 REVERT JUMPDEST POP POP POP POP PUSH1 0x0 SWAP1 PUSH1 0x3 SWAP1 JUMP JUMPDEST ADDRESS PUSH32 0x0 PUSH1 0x1 PUSH1 0x1 PUSH1 0xA0 SHL SUB AND EQ DUP1 PUSH2 0x12DE JUMPI JUMPDEST ISZERO PUSH2 0x1237 JUMPI PUSH32 0x0 SWAP1 JUMP JUMPDEST PUSH1 0x40 MLOAD PUSH1 0x20 DUP2 ADD SWAP1 PUSH32 0x0 DUP3 MSTORE PUSH32 0x0 PUSH1 0x40 DUP3 ADD MSTORE PUSH32 0x0 PUSH1 0x60 DUP3 ADD MSTORE CHAINID PUSH1 0x80 DUP3 ADD MSTORE ADDRESS PUSH1 0xA0 DUP3 ADD MSTORE PUSH1 0xA0 DUP2 MSTORE PUSH1 0xC0 DUP2 ADD DUP2 DUP2 LT PUSH8 0xFFFFFFFFFFFFFFFF DUP3 GT OR PUSH2 0xB93 JUMPI PUSH1 0x40 MSTORE MLOAD SWAP1 KECCAK256 SWAP1 JUMP JUMPDEST POP PUSH32 0x0 CHAINID EQ PUSH2 0x120E JUMP JUMPDEST PUSH2 0x130F PUSH2 0x11DC JUMP JUMPDEST SWAP1 PUSH1 0x40 MLOAD SWAP1 PUSH1 0x20 DUP3 ADD SWAP3 PUSH2 0x1901 PUSH1 0xF0 SHL DUP5 MSTORE PUSH1 0x22 DUP4 ADD MSTORE PUSH1 0x42 DUP3 ADD MSTORE PUSH1 0x42 DUP2 MSTORE PUSH1 0x80 DUP2 ADD DUP2 DUP2 LT PUSH8 0xFFFFFFFFFFFFFFFF DUP3 GT OR PUSH2 0xB93 JUMPI PUSH1 0x40 MSTORE MLOAD SWAP1 KECCAK256 SWAP1 JUMP INVALID LOG2 PUSH5 0x6970667358 0x22 SLT KECCAK256 STATICCALL 0xD6 PUSH28 0xBBFCFF87DD3FE2C0446D69DCD240AE6D11CF4F88154A2FD3BAB95A3C SDIV PUSH5 0x736F6C6343 STOP ADDMOD GT STOP CALLER "},"methodIdentifiers":{"DOMAIN_SEPARATOR()":"3644e515","MAXIMUMSUPPLY()":"4fb2ed6b","allowance(address,address)":"dd62ed3e","approve(address,uint256)":"095ea7b3","balanceOf(address)":"70a08231","burn(uint256)":"42966c68","burnFrom(address,uint256)":"79cc6790","decimals()":"313ce567","decreaseAllowance(address,uint256)":"a457c2d7","increaseAllowance(address,uint256)":"39509351","mint(address,uint256)":"40c10f19","name()":"06fdde03","nonces(address)":"7ecebe00","owner()":"8da5cb5b","permit(address,address,uint256,uint256,uint8,bytes32,bytes32)":"d505accf","renounceOwnership()":"715018a6","symbol()":"95d89b41","testPermit(address,address,uint256,uint256,uint8,bytes32,bytes32)":"40293fda","totalSupply()":"18160ddd","transfer(address,uint256)":"a9059cbb","transferFrom(address,address,uint256)":"23b872dd","transferOwnership(address)":"f2fde38b"}},"storageLayout":{"storage":[{"astId":128,"contract":"contracts/erc20tokens/Frg.sol:Frg","label":"_balances","offset":0,"slot":"0","type":"t_mapping(t_address,t_uint256)"},{"astId":134,"contract":"contracts/erc20tokens/Frg.sol:Frg","label":"_allowances","offset":0,"slot":"1","type":"t_mapping(t_address,t_mapping(t_address,t_uint256))"},{"astId":136,"contract":"contracts/erc20tokens/Frg.sol:Frg","label":"_totalSupply","offset":0,"slot":"2","type":"t_uint256"},{"astId":138,"contract":"contracts/erc20tokens/Frg.sol:Frg","label":"_name","offset":0,"slot":"3","type":"t_string_storage"},{"astId":140,"contract":"contracts/erc20tokens/Frg.sol:Frg","label":"_symbol","offset":0,"slot":"4","type":"t_string_storage"},{"astId":7,"contract":"contracts/erc20tokens/Frg.sol:Frg","label":"_owner","offset":0,"slot":"5","type":"t_address"},{"astId":869,"contract":"contracts/erc20tokens/Frg.sol:Frg","label":"_nonces","offset":0,"slot":"6","type":"t_mapping(t_address,t_struct(Counter)3028_storage)"},{"astId":877,"contract":"contracts/erc20tokens/Frg.sol:Frg","label":"_PERMIT_TYPEHASH_DEPRECATED_SLOT","offset":0,"slot":"7","type":"t_bytes32"}],"types":{"t_address":{"encoding":"inplace","label":"address","numberOfBytes":"20"},"t_bytes32":{"encoding":"inplace","label":"bytes32","numberOfBytes":"32"},"t_mapping(t_address,t_mapping(t_address,t_uint256))":{"encoding":"mapping","key":"t_address","label":"mapping(address => mapping(address => uint256))","numberOfBytes":"32","value":"t_mapping(t_address,t_uint256)"},"t_mapping(t_address,t_struct(Counter)3028_storage)":{"encoding":"mapping","key":"t_address","label":"mapping(address => struct Counters.Counter)","numberOfBytes":"32","value":"t_struct(Counter)3028_storage"},"t_mapping(t_address,t_uint256)":{"encoding":"mapping","key":"t_address","label":"mapping(address => uint256)","numberOfBytes":"32","value":"t_uint256"},"t_string_storage":{"encoding":"bytes","label":"string","numberOfBytes":"32"},"t_struct(Counter)3028_storage":{"encoding":"inplace","label":"struct Counters.Counter","members":[{"astId":3027,"contract":"contracts/erc20tokens/Frg.sol:Frg","label":"_value","offset":0,"slot":"0","type":"t_uint256"}],"numberOfBytes":"32"},"t_uint256":{"encoding":"inplace","label":"uint256","numberOfBytes":"32"}}}}}}