{
  "_format": "hh-sol-artifact-1",
  "contractName": "Frg",
  "sourceName": "contracts/erc20tokens/Frg.sol",
  "abi": [
    {
      "inputs": [],
      "stateMutability": "nonpayable",
      "type": "constructor"
    },
    {
      "anonymous": false,
      "inputs": [
        {
          "indexed": true,
          "internalType": "address",
          "name": "owner",
          "type": "address"
        },
        {
          "indexed": true,
          "internalType": "address",
          "name": "spender",
          "type": "address"
        },
        {
          "indexed": false,
          "internalType": "uint256",
          "name": "value",
          "type": "uint256"
        }
      ],
      "name": "Approval",
      "type": "event"
    },
    {
      "anonymous": false,
      "inputs": [
        {
          "indexed": true,
          "internalType": "address",
          "name": "previousOwner",
          "type": "address"
        },
        {
          "indexed": true,
          "internalType": "address",
          "name": "newOwner",
          "type": "address"
        }
      ],
      "name": "OwnershipTransferred",
      "type": "event"
    },
    {
      "anonymous": false,
      "inputs": [
        {
          "indexed": true,
          "internalType": "address",
          "name": "from",
          "type": "address"
        },
        {
          "indexed": true,
          "internalType": "address",
          "name": "to",
          "type": "address"
        },
        {
          "indexed": false,
          "internalType": "uint256",
          "name": "value",
          "type": "uint256"
        }
      ],
      "name": "Transfer",
      "type": "event"
    },
    {
      "inputs": [],
      "name": "MAXIMUMSUPPLY",
      "outputs": [
        {
          "internalType": "uint256",
          "name": "",
          "type": "uint256"
        }
      ],
      "stateMutability": "view",
      "type": "function"
    },
    {
      "inputs": [
        {
          "internalType": "address",
          "name": "owner",
          "type": "address"
        },
        {
          "internalType": "address",
          "name": "spender",
          "type": "address"
        }
      ],
      "name": "allowance",
      "outputs": [
        {
          "internalType": "uint256",
          "name": "",
          "type": "uint256"
        }
      ],
      "stateMutability": "view",
      "type": "function"
    },
    {
      "inputs": [
        {
          "internalType": "address",
          "name": "spender",
          "type": "address"
        },
        {
          "internalType": "uint256",
          "name": "amount",
          "type": "uint256"
        }
      ],
      "name": "approve",
      "outputs": [
        {
          "internalType": "bool",
          "name": "",
          "type": "bool"
        }
      ],
      "stateMutability": "nonpayable",
      "type": "function"
    },
    {
      "inputs": [
        {
          "internalType": "address",
          "name": "account",
          "type": "address"
        }
      ],
      "name": "balanceOf",
      "outputs": [
        {
          "internalType": "uint256",
          "name": "",
          "type": "uint256"
        }
      ],
      "stateMutability": "view",
      "type": "function"
    },
    {
      "inputs": [
        {
          "internalType": "uint256",
          "name": "amount",
          "type": "uint256"
        }
      ],
      "name": "burn",
      "outputs": [],
      "stateMutability": "nonpayable",
      "type": "function"
    },
    {
      "inputs": [
        {
          "internalType": "address",
          "name": "account",
          "type": "address"
        },
        {
          "internalType": "uint256",
          "name": "amount",
          "type": "uint256"
        }
      ],
      "name": "burnFrom",
      "outputs": [],
      "stateMutability": "nonpayable",
      "type": "function"
    },
    {
      "inputs": [],
      "name": "decimals",
      "outputs": [
        {
          "internalType": "uint8",
          "name": "",
          "type": "uint8"
        }
      ],
      "stateMutability": "view",
      "type": "function"
    },
    {
      "inputs": [
        {
          "internalType": "address",
          "name": "spender",
          "type": "address"
        },
        {
          "internalType": "uint256",
          "name": "subtractedValue",
          "type": "uint256"
        }
      ],
      "name": "decreaseAllowance",
      "outputs": [
        {
          "internalType": "bool",
          "name": "",
          "type": "bool"
        }
      ],
      "stateMutability": "nonpayable",
      "type": "function"
    },
    {
      "inputs": [
        {
          "internalType": "address",
          "name": "spender",
          "type": "address"
        },
        {
          "internalType": "uint256",
          "name": "addedValue",
          "type": "uint256"
        }
      ],
      "name": "increaseAllowance",
      "outputs": [
        {
          "internalType": "bool",
          "name": "",
          "type": "bool"
        }
      ],
      "stateMutability": "nonpayable",
      "type": "function"
    },
    {
      "inputs": [
        {
          "internalType": "address",
          "name": "to",
          "type": "address"
        },
        {
          "internalType": "uint256",
          "name": "amount",
          "type": "uint256"
        }
      ],
      "name": "mint",
      "outputs": [],
      "stateMutability": "nonpayable",
      "type": "function"
    },
    {
      "inputs": [],
      "name": "name",
      "outputs": [
        {
          "internalType": "string",
          "name": "",
          "type": "string"
        }
      ],
      "stateMutability": "view",
      "type": "function"
    },
    {
      "inputs": [],
      "name": "owner",
      "outputs": [
        {
          "internalType": "address",
          "name": "",
          "type": "address"
        }
      ],
      "stateMutability": "view",
      "type": "function"
    },
    {
      "inputs": [],
      "name": "renounceOwnership",
      "outputs": [],
      "stateMutability": "nonpayable",
      "type": "function"
    },
    {
      "inputs": [],
      "name": "symbol",
      "outputs": [
        {
          "internalType": "string",
          "name": "",
          "type": "string"
        }
      ],
      "stateMutability": "view",
      "type": "function"
    },
    {
      "inputs": [],
      "name": "totalSupply",
      "outputs": [
        {
          "internalType": "uint256",
          "name": "",
          "type": "uint256"
        }
      ],
      "stateMutability": "view",
      "type": "function"
    },
    {
      "inputs": [
        {
          "internalType": "address",
          "name": "to",
          "type": "address"
        },
        {
          "internalType": "uint256",
          "name": "amount",
          "type": "uint256"
        }
      ],
      "name": "transfer",
      "outputs": [
        {
          "internalType": "bool",
          "name": "",
          "type": "bool"
        }
      ],
      "stateMutability": "nonpayable",
      "type": "function"
    },
    {
      "inputs": [
        {
          "internalType": "address",
          "name": "from",
          "type": "address"
        },
        {
          "internalType": "address",
          "name": "to",
          "type": "address"
        },
        {
          "internalType": "uint256",
          "name": "amount",
          "type": "uint256"
        }
      ],
      "name": "transferFrom",
      "outputs": [
        {
          "internalType": "bool",
          "name": "",
          "type": "bool"
        }
      ],
      "stateMutability": "nonpayable",
      "type": "function"
    },
    {
      "inputs": [
        {
          "internalType": "address",
          "name": "newOwner",
          "type": "address"
        }
      ],
      "name": "transferOwnership",
      "outputs": [],
      "stateMutability": "nonpayable",
      "type": "function"
    }
  ],
  "bytecode": "0x60803462000409576040906001600160401b0381830181811183821017620003095783526009825260209068232923902a37b5b2b760b91b8284015283519284840184811083821117620003095785526003918285526246524760e81b8486015281519281841162000309578054936001938486811c96168015620003fe575b87871014620003e8578190601f9687811162000392575b5087908783116001146200032b576000926200031f575b505060001982841b1c191690841b1781555b8551918211620003095760049586548481811c91168015620002fe575b87821014620002e9578581116200029e575b508590858411600114620002335793839491849260009562000227575b50501b92600019911b1c19161783555b60058054336001600160a01b03198216811790925585519291906001600160a01b03167f8be0079c531659141344cd1fd0a4f28419497f9722a3daafe3b4186f6b6457e0600080a33315620001ea5750506002546a022a984644c74c8ee0000092838201809211620001d557506000917fddf252ad1be2c89b69c2b068fc378daa952ba7f163c4a11628f55a4df523b3ef9160025533835282815284832084815401905584519384523393a351610d7990816200040f8239f35b601190634e487b7160e01b6000525260246000fd5b6064928462461bcd60e51b845283015260248201527f45524332303a206d696e7420746f20746865207a65726f2061646472657373006044820152fd5b0151935038806200010b565b9190601f198416928860005284886000209460005b8a898383106200028657505050106200026b575b50505050811b0183556200011b565b01519060f884600019921b161c19169055388080806200025c565b86860151895590970196948501948893500162000248565b87600052866000208680860160051c820192898710620002df575b0160051c019085905b828110620002d2575050620000ee565b60008155018590620002c2565b92508192620002b9565b602288634e487b7160e01b6000525260246000fd5b90607f1690620000dc565b634e487b7160e01b600052604160045260246000fd5b015190503880620000ad565b90869350601f1983169185600052896000209260005b8b8282106200037b575050841162000362575b505050811b018155620000bf565b015160001983861b60f8161c1916905538808062000354565b8385015186558a9790950194938401930162000341565b90915083600052876000208780850160051c8201928a8610620003de575b918891869594930160051c01915b828110620003ce57505062000096565b60008155859450889101620003be565b92508192620003b0565b634e487b7160e01b600052602260045260246000fd5b95607f16956200007f565b600080fdfe6080604081815260048036101561001557600080fd5b600092833560e01c90816306fdde031461074a57508063095ea7b31461072057806318160ddd1461070157806323b872dd146106c4578063313ce567146106a8578063395093511461065857806340c10f191461053057806342966c68146105125780634fb2ed6b146104ec57806370a08231146104b5578063715018a61461045857806379cc6790146104255780638da5cb5b146103fc57806395d89b41146102dc578063a457c2d714610235578063a9059cbb14610204578063dd62ed3e146101b75763f2fde38b146100e957600080fd5b346101b35760203660031901126101b357610102610888565b9061010b6108b9565b6001600160a01b03918216928315610161575050600554826bffffffffffffffffffffffff60a01b821617600555167f8be0079c531659141344cd1fd0a4f28419497f9722a3daafe3b4186f6b6457e08380a380f35b906020608492519162461bcd60e51b8352820152602660248201527f4f776e61626c653a206e6577206f776e657220697320746865207a65726f206160448201526564647265737360d01b6064820152fd5b8280fd5b505034610200578060031936011261020057806020926101d5610888565b6101dd6108a3565b6001600160a01b0391821683526001865283832091168252845220549051908152f35b5080fd5b50503461020057806003193601126102005760209061022e610224610888565b6024359033610934565b5160018152f35b5082346102d957826003193601126102d95761024f610888565b918360243592338152600160205281812060018060a01b03861682526020522054908282106102885760208561022e8585038733610aa2565b608490602086519162461bcd60e51b8352820152602560248201527f45524332303a2064656372656173656420616c6c6f77616e63652062656c6f77604482015264207a65726f60d81b6064820152fd5b80fd5b50919034610200578160031936011261020057805190828454600181811c908083169283156103f2575b60209384841081146103df578388529081156103c3575060011461036e575b505050829003601f01601f191682019267ffffffffffffffff84118385101761035b575082918261035792528261083f565b0390f35b634e487b7160e01b815260418552602490fd5b8787529192508591837f8a35acfbc15ff81a39ae7d344fd709f28e8600b4aa8c65c6b64bfe7fe36bd19b5b8385106103af5750505050830101388080610325565b805488860183015293019284908201610399565b60ff1916878501525050151560051b8401019050388080610325565b634e487b7160e01b895260228a52602489fd5b91607f1691610306565b50503461020057816003193601126102005760055490516001600160a01b039091168152602090f35b505034610200573660031901126102d957610455610441610888565b60243590610450823383610ba4565b610c3c565b80f35b83346102d957806003193601126102d9576104716108b9565b600580546001600160a01b0319811690915581906001600160a01b03167f8be0079c531659141344cd1fd0a4f28419497f9722a3daafe3b4186f6b6457e08280a380f35b5050346102005760203660031901126102005760209181906001600160a01b036104dd610888565b16815280845220549051908152f35b505034610200578160031936011261020057602090516a084595161401484a0000008152f35b83823461020057602036600319011261020057610455903533610c3c565b5090346101b357806003193601126101b35761054a610888565b60025460243592916a084595161401484a0000006105688584610911565b1161060b576001600160a01b03169384156105c85750827fddf252ad1be2c89b69c2b068fc378daa952ba7f163c4a11628f55a4df523b3ef926105ae8795602094610911565b60025585855284835280852082815401905551908152a380f35b606490602084519162461bcd60e51b8352820152601f60248201527f45524332303a206d696e7420746f20746865207a65726f2061646472657373006044820152fd5b825162461bcd60e51b8152602081870152602160248201527f4d696e74696e6720776f756c642065786365656420746f74616c20737570706c6044820152607960f81b6064820152608490fd5b50503461020057806003193601126102005761022e6020926106a161067b610888565b338352600186528483206001600160a01b03821684528652918490205460243590610911565b9033610aa2565b5050346102005781600319360112610200576020905160128152f35b5050346102005760603660031901126102005760209061022e6106e5610888565b6106ed6108a3565b604435916106fc833383610ba4565b610934565b5050346102005781600319360112610200576020906002549051908152f35b50503461020057806003193601126102005760209061022e610740610888565b6024359033610aa2565b84915083346101b357826003193601126101b35782600354600181811c90808316928315610835575b60209384841081146103df5783885290811561081957506001146107c357505050829003601f01601f191682019267ffffffffffffffff84118385101761035b575082918261035792528261083f565b600387529192508591837fc2575a0e9e593c00f959f8c92f12db2869c3395a3b0502d05e2516446f71f85b5b8385106108055750505050830101858080610325565b8054888601830152930192849082016107ef565b60ff1916878501525050151560051b8401019050858080610325565b91607f1691610773565b6020808252825181830181905290939260005b82811061087457505060409293506000838284010152601f8019910116010190565b818101860151848201604001528501610852565b600435906001600160a01b038216820361089e57565b600080fd5b602435906001600160a01b038216820361089e57565b6005546001600160a01b031633036108cd57565b606460405162461bcd60e51b815260206004820152602060248201527f4f776e61626c653a2063616c6c6572206973206e6f7420746865206f776e65726044820152fd5b9190820180921161091e57565b634e487b7160e01b600052601160045260246000fd5b6001600160a01b03908116918215610a4f57169182156109fe576000828152806020526040812054918083106109aa57604082827fddf252ad1be2c89b69c2b068fc378daa952ba7f163c4a11628f55a4df523b3ef958760209652828652038282205586815220818154019055604051908152a3565b60405162461bcd60e51b815260206004820152602660248201527f45524332303a207472616e7366657220616d6f756e7420657863656564732062604482015265616c616e636560d01b6064820152608490fd5b60405162461bcd60e51b815260206004820152602360248201527f45524332303a207472616e7366657220746f20746865207a65726f206164647260448201526265737360e81b6064820152608490fd5b60405162461bcd60e51b815260206004820152602560248201527f45524332303a207472616e736665722066726f6d20746865207a65726f206164604482015264647265737360d81b6064820152608490fd5b6001600160a01b03908116918215610b535716918215610b035760207f8c5be1e5ebec7d5bd14f71427d1e84f3dd0314c0f7b2291e5b200ac8c7c3b925918360005260018252604060002085600052825280604060002055604051908152a3565b60405162461bcd60e51b815260206004820152602260248201527f45524332303a20617070726f766520746f20746865207a65726f206164647265604482015261737360f01b6064820152608490fd5b60405162461bcd60e51b8152602060048201526024808201527f45524332303a20617070726f76652066726f6d20746865207a65726f206164646044820152637265737360e01b6064820152608490fd5b9060018060a01b0380831660005260016020526040600020908216600052602052604060002054926000198403610bdc575b50505050565b808410610bf757610bee930391610aa2565b38808080610bd6565b60405162461bcd60e51b815260206004820152601d60248201527f45524332303a20696e73756666696369656e7420616c6c6f77616e63650000006044820152606490fd5b6001600160a01b03168015610cf457600091818352826020526040832054818110610ca457817fddf252ad1be2c89b69c2b068fc378daa952ba7f163c4a11628f55a4df523b3ef926020928587528684520360408620558060025403600255604051908152a3565b60405162461bcd60e51b815260206004820152602260248201527f45524332303a206275726e20616d6f756e7420657863656564732062616c616e604482015261636560f01b6064820152608490fd5b60405162461bcd60e51b815260206004820152602160248201527f45524332303a206275726e2066726f6d20746865207a65726f206164647265736044820152607360f81b6064820152608490fdfea26469706673582212200067ef59458a69cff29cc758350caa6ceca555ff1b61cb2beaa22358bb178cae64736f6c63430008110033",
  "linkReferences": {},
  "deployedLinkReferences": {}
}