{
  "_format": "hh-sol-artifact-1",
  "contractName": "Pet",
  "sourceName": "contracts/nfts/Pet.sol",
  "abi": [
    {
      "inputs": [
        {
          "internalType": "address",
          "name": "_frgTokenAddress",
          "type": "address"
        }
      ],
      "stateMutability": "nonpayable",
      "type": "constructor"
    },
    {
      "inputs": [],
      "name": "InsufficientFrgBalance",
      "type": "error"
    },
    {
      "anonymous": false,
      "inputs": [
        {
          "indexed": true,
          "internalType": "address",
          "name": "owner",
          "type": "address"
        },
        {
          "indexed": true,
          "internalType": "address",
          "name": "approved",
          "type": "address"
        },
        {
          "indexed": true,
          "internalType": "uint256",
          "name": "tokenId",
          "type": "uint256"
        }
      ],
      "name": "Approval",
      "type": "event"
    },
    {
      "anonymous": false,
      "inputs": [
        {
          "indexed": true,
          "internalType": "address",
          "name": "owner",
          "type": "address"
        },
        {
          "indexed": true,
          "internalType": "address",
          "name": "operator",
          "type": "address"
        },
        {
          "indexed": false,
          "internalType": "bool",
          "name": "approved",
          "type": "bool"
        }
      ],
      "name": "ApprovalForAll",
      "type": "event"
    },
    {
      "anonymous": false,
      "inputs": [
        {
          "indexed": true,
          "internalType": "address",
          "name": "previousOwner",
          "type": "address"
        },
        {
          "indexed": true,
          "internalType": "address",
          "name": "newOwner",
          "type": "address"
        }
      ],
      "name": "OwnershipTransferred",
      "type": "event"
    },
    {
      "anonymous": false,
      "inputs": [
        {
          "indexed": true,
          "internalType": "address",
          "name": "from",
          "type": "address"
        },
        {
          "indexed": true,
          "internalType": "address",
          "name": "to",
          "type": "address"
        },
        {
          "indexed": true,
          "internalType": "uint256",
          "name": "tokenId",
          "type": "uint256"
        }
      ],
      "name": "Transfer",
      "type": "event"
    },
    {
      "inputs": [
        {
          "internalType": "address",
          "name": "to",
          "type": "address"
        },
        {
          "internalType": "uint256",
          "name": "tokenId",
          "type": "uint256"
        }
      ],
      "name": "approve",
      "outputs": [],
      "stateMutability": "nonpayable",
      "type": "function"
    },
    {
      "inputs": [
        {
          "internalType": "address",
          "name": "owner",
          "type": "address"
        }
      ],
      "name": "balanceOf",
      "outputs": [
        {
          "internalType": "uint256",
          "name": "",
          "type": "uint256"
        }
      ],
      "stateMutability": "view",
      "type": "function"
    },
    {
      "inputs": [],
      "name": "frgTokenAddress",
      "outputs": [
        {
          "internalType": "contract Frg",
          "name": "",
          "type": "address"
        }
      ],
      "stateMutability": "view",
      "type": "function"
    },
    {
      "inputs": [
        {
          "internalType": "uint256",
          "name": "tokenId",
          "type": "uint256"
        }
      ],
      "name": "getApproved",
      "outputs": [
        {
          "internalType": "address",
          "name": "",
          "type": "address"
        }
      ],
      "stateMutability": "view",
      "type": "function"
    },
    {
      "inputs": [
        {
          "internalType": "address",
          "name": "owner",
          "type": "address"
        },
        {
          "internalType": "address",
          "name": "operator",
          "type": "address"
        }
      ],
      "name": "isApprovedForAll",
      "outputs": [
        {
          "internalType": "bool",
          "name": "",
          "type": "bool"
        }
      ],
      "stateMutability": "view",
      "type": "function"
    },
    {
      "inputs": [],
      "name": "name",
      "outputs": [
        {
          "internalType": "string",
          "name": "",
          "type": "string"
        }
      ],
      "stateMutability": "view",
      "type": "function"
    },
    {
      "inputs": [],
      "name": "owner",
      "outputs": [
        {
          "internalType": "address",
          "name": "",
          "type": "address"
        }
      ],
      "stateMutability": "view",
      "type": "function"
    },
    {
      "inputs": [
        {
          "internalType": "uint256",
          "name": "tokenId",
          "type": "uint256"
        }
      ],
      "name": "ownerOf",
      "outputs": [
        {
          "internalType": "address",
          "name": "",
          "type": "address"
        }
      ],
      "stateMutability": "view",
      "type": "function"
    },
    {
      "inputs": [],
      "name": "rate",
      "outputs": [
        {
          "internalType": "uint256",
          "name": "",
          "type": "uint256"
        }
      ],
      "stateMutability": "view",
      "type": "function"
    },
    {
      "inputs": [],
      "name": "renounceOwnership",
      "outputs": [],
      "stateMutability": "nonpayable",
      "type": "function"
    },
    {
      "inputs": [
        {
          "internalType": "string",
          "name": "uri",
          "type": "string"
        },
        {
          "internalType": "address",
          "name": "minter",
          "type": "address"
        }
      ],
      "name": "safeMint",
      "outputs": [],
      "stateMutability": "nonpayable",
      "type": "function"
    },
    {
      "inputs": [
        {
          "internalType": "string",
          "name": "uri",
          "type": "string"
        },
        {
          "internalType": "uint256",
          "name": "deadline",
          "type": "uint256"
        },
        {
          "internalType": "uint8",
          "name": "v",
          "type": "uint8"
        },
        {
          "internalType": "bytes32",
          "name": "r",
          "type": "bytes32"
        },
        {
          "internalType": "bytes32",
          "name": "s",
          "type": "bytes32"
        }
      ],
      "name": "safeMintWithBurnFrg",
      "outputs": [],
      "stateMutability": "nonpayable",
      "type": "function"
    },
    {
      "inputs": [
        {
          "internalType": "address",
          "name": "from",
          "type": "address"
        },
        {
          "internalType": "address",
          "name": "to",
          "type": "address"
        },
        {
          "internalType": "uint256",
          "name": "tokenId",
          "type": "uint256"
        }
      ],
      "name": "safeTransferFrom",
      "outputs": [],
      "stateMutability": "nonpayable",
      "type": "function"
    },
    {
      "inputs": [
        {
          "internalType": "address",
          "name": "from",
          "type": "address"
        },
        {
          "internalType": "address",
          "name": "to",
          "type": "address"
        },
        {
          "internalType": "uint256",
          "name": "tokenId",
          "type": "uint256"
        },
        {
          "internalType": "bytes",
          "name": "data",
          "type": "bytes"
        }
      ],
      "name": "safeTransferFrom",
      "outputs": [],
      "stateMutability": "nonpayable",
      "type": "function"
    },
    {
      "inputs": [
        {
          "internalType": "address",
          "name": "operator",
          "type": "address"
        },
        {
          "internalType": "bool",
          "name": "approved",
          "type": "bool"
        }
      ],
      "name": "setApprovalForAll",
      "outputs": [],
      "stateMutability": "nonpayable",
      "type": "function"
    },
    {
      "inputs": [
        {
          "internalType": "bytes4",
          "name": "interfaceId",
          "type": "bytes4"
        }
      ],
      "name": "supportsInterface",
      "outputs": [
        {
          "internalType": "bool",
          "name": "",
          "type": "bool"
        }
      ],
      "stateMutability": "view",
      "type": "function"
    },
    {
      "inputs": [],
      "name": "symbol",
      "outputs": [
        {
          "internalType": "string",
          "name": "",
          "type": "string"
        }
      ],
      "stateMutability": "view",
      "type": "function"
    },
    {
      "inputs": [
        {
          "internalType": "uint256",
          "name": "index",
          "type": "uint256"
        }
      ],
      "name": "tokenByIndex",
      "outputs": [
        {
          "internalType": "uint256",
          "name": "",
          "type": "uint256"
        }
      ],
      "stateMutability": "view",
      "type": "function"
    },
    {
      "inputs": [
        {
          "internalType": "address",
          "name": "owner",
          "type": "address"
        },
        {
          "internalType": "uint256",
          "name": "index",
          "type": "uint256"
        }
      ],
      "name": "tokenOfOwnerByIndex",
      "outputs": [
        {
          "internalType": "uint256",
          "name": "",
          "type": "uint256"
        }
      ],
      "stateMutability": "view",
      "type": "function"
    },
    {
      "inputs": [
        {
          "internalType": "uint256",
          "name": "tokenId",
          "type": "uint256"
        }
      ],
      "name": "tokenURI",
      "outputs": [
        {
          "internalType": "string",
          "name": "",
          "type": "string"
        }
      ],
      "stateMutability": "view",
      "type": "function"
    },
    {
      "inputs": [],
      "name": "totalSupply",
      "outputs": [
        {
          "internalType": "uint256",
          "name": "",
          "type": "uint256"
        }
      ],
      "stateMutability": "view",
      "type": "function"
    },
    {
      "inputs": [
        {
          "internalType": "address",
          "name": "from",
          "type": "address"
        },
        {
          "internalType": "address",
          "name": "to",
          "type": "address"
        },
        {
          "internalType": "uint256",
          "name": "tokenId",
          "type": "uint256"
        }
      ],
      "name": "transferFrom",
      "outputs": [],
      "stateMutability": "nonpayable",
      "type": "function"
    },
    {
      "inputs": [
        {
          "internalType": "address",
          "name": "newOwner",
          "type": "address"
        }
      ],
      "name": "transferOwnership",
      "outputs": [],
      "stateMutability": "nonpayable",
      "type": "function"
    }
  ],
  "bytecode": "0x60a034620003a3576001600160401b03601f601f1962001ed23881900383810183168601858111878210176200038d57869282916040528339602095869181010312620003a357516001600160a01b03938482169391849003620003a35762000067620003a8565b916003908184526214195d60ea1b8885015262000083620003a8565b978289526214115560ea1b818a01528451958487116200038d576000968754966001978881811c9116801562000382575b858210146200036e579081868493116200031b575b508490868311600114620002bb578a92620002af575b505060001982871b1c191690871b1787555b89519485116200029b5785548681811c9116801562000290575b838210146200027c5783811162000234575b5081928511600114620001ca5750508495969783949593620001be575b505082841b92600019911b1c19161790555b600b54903360018060a01b0319831617600b557f8be0079c531659141344cd1fd0a4f28419497f9722a3daafe3b4186f6b6457e0604051943393169180a368056bc75e2d63100000600d55608052611b099081620003c982396080518181816102980152818161059b0152610b4a0152f35b0151915038806200013a565b849392919316988587528387209387905b8b82106200021c57505084869798999a1062000201575b50505050811b0190556200014c565b01519060f884600019921b161c1916905538808080620001f2565b808885978294968601518155019601930190620001db565b8688528288208480880160051c82019285891062000272575b0160051c019087905b828110620002665750506200011d565b89815501879062000256565b925081926200024d565b634e487b7160e01b88526022600452602488fd5b90607f16906200010b565b634e487b7160e01b87526041600452602487fd5b015190503880620000df565b90848a9416918b8052868c20928c5b88828210620003045750508411620002eb575b505050811b018755620000f1565b015160001983891b60f8161c19169055388080620002dd565b8385015186558d97909501949384019301620002ca565b909150898052848a208680850160051c82019287861062000364575b918b91869594930160051c01915b82811062000355575050620000c9565b8c81558594508b910162000345565b9250819262000337565b634e487b7160e01b8a52602260045260248afd5b90607f1690620000b4565b634e487b7160e01b600052604160045260246000fd5b600080fd5b60408051919082016001600160401b038111838210176200038d5760405256fe6080604081815260048036101561001557600080fd5b600092833560e01c90816301ffc9a714610dae5750806306fdde0314610d06578063081812fc14610ce6578063095ea7b314610b7957806310195e6e14610b3557806318160ddd14610b1657806323b872dd14610af15780632c4e722e14610ad25780632f745c5914610a2657806342842e0e146109f25780634f6ccce71461095f5780636352211e1461092e57806370a0823114610901578063715018a6146108a45780638da5cb5b1461087b57806395d89b4114610798578063a22cb465146106cd578063b88d4fde14610646578063c6f0577114610552578063c87b56dd1461043a578063e5d31ff414610243578063e985e9c5146101ef5763f2fde38b1461012057600080fd5b346101eb5760203660031901126101eb57610139610e74565b90610142610fb3565b6001600160a01b03918216928315610199575050600b54826bffffffffffffffffffffffff60a01b821617600b55167f8be0079c531659141344cd1fd0a4f28419497f9722a3daafe3b4186f6b6457e0600080a380f35b906020608492519162461bcd60e51b8352820152602660248201527f4f776e61626c653a206e6577206f776e657220697320746865207a65726f206160448201526564647265737360d01b6064820152fd5b8280fd5b50503461023f578060031936011261023f5760209161020c610e74565b82610215610e8f565b9260018060a01b03809316815260058652209116600052825260ff81600020541690519015158152f35b5080fd5b5082903461023f5760a036600319011261023f57803567ffffffffffffffff81116101eb576102759036908301610f95565b906044359360ff85168095036103de5780516370a0823160e01b815233818401527f00000000000000000000000000000000000000000000000000000000000000006001600160a01b03169290602081602481875afa9081156104305786916103ff575b50600d548091106103f0578596849695963b156103ec5783519163d505accf60e01b8352338484015230602484015260448301526024356064830152608482015260643560a482015260843560c4820152848160e48183885af180156103e2579085916103ca575b5050600d54833b156103c657825163079cc67960e41b815233928101928352602083019190915292849184919082908490829060400103925af19081156103bd57506103a9575b506103a682600c5460018101600c556103a18133611760565b61192f565b80f35b6103b290610eda565b61023f578183610388565b513d84823e3d90fd5b8480fd5b6103d390610eda565b6103de578387610341565b8380fd5b83513d87823e3d90fd5b8580fd5b5090516304a6c46b60e41b8152fd5b90506020813d8211610428575b8161041960209383610f20565b810103126103ec5751876102d9565b3d915061040c565b83513d88823e3d90fd5b5082903461023f576020918260031936011261054f575035600081815260026020526040902054610475906001600160a01b03161515611082565b600052600a81528160002091805180936000908054610493816110f1565b918285526001918783821691826000146105285750506001146104e5575b5050506104e192916104c4910385610f20565b600081516104d181610f04565b5251928284938452830190610e34565b0390f35b86935060009291925282600020916000925b82841061051057505050820101816104c46104e16104b1565b8054848a0186015288955087949093019281016104f7565b60ff19168782015293151560051b860190930193508492506104c491506104e190506104b1565b80fd5b5091903461023f578060031936011261023f57823567ffffffffffffffff81116101eb576105839036908501610f95565b9061058c610e8f565b93610595610fb3565b600d54907f00000000000000000000000000000000000000000000000000000000000000006001600160a01b031690813b156103ec57835163079cc67960e41b81526001600160a01b03881691810191825260208201939093529192918591849182908490829060400103925af190811561063d575061062a575b506103a691926103a1600c54809260018201600c55611760565b916106376103a693610eda565b91610610565b513d85823e3d90fd5b83823461023f57608036600319011261023f57610661610e74565b9061066a610e8f565b916044356064359367ffffffffffffffff85116103ec57366023860112156103ec576106a56106c8948660246103a698369301359101610f5e565b926106b86106b38433611242565b611169565b6106c383838361130a565b611688565b61121e565b5090346101eb57806003193601126101eb576106e7610e74565b90602435918215158093036103c6576001600160a01b0316923384146107565750338452600560205280842083855260205280842060ff1981541660ff8416179055519081527f17307eab39ab6107e8899845ad3d59bd9653f200f220920489ca2b5937696c3160203392a380f35b6020606492519162461bcd60e51b8352820152601960248201527f4552433732313a20617070726f766520746f2063616c6c6572000000000000006044820152fd5b50503461023f578160031936011261023f578051908260018054916107bc836110f1565b8086529282811690811561085357506001146107f7575b5050506107e5826104e1940383610f20565b51918291602083526020830190610e34565b94508085527fb10e2d527612073b26eecdfd717e6a320cf44b4afac2b0732d9fcbe2b7fa0cf65b82861061083b575050506107e58260206104e195820101946107d3565b8054602087870181019190915290950194810161081e565b6104e19750869350602092506107e594915060ff191682840152151560051b820101946107d3565b50503461023f578160031936011261023f57600b5490516001600160a01b039091168152602090f35b833461054f578060031936011261054f576108bd610fb3565b600b80546001600160a01b0319811690915581906001600160a01b03167f8be0079c531659141344cd1fd0a4f28419497f9722a3daafe3b4186f6b6457e08280a380f35b50503461023f57602036600319011261023f57602090610927610922610e74565b61100b565b9051908152f35b50913461054f57602036600319011261054f575061094e602092356110ce565b90516001600160a01b039091168152f35b50823461054f57602036600319011261054f575080359060085482101561099a5760208361098c84611713565b91905490519160031b1c8152f35b608490602084519162461bcd60e51b8352820152602c60248201527f455243373231456e756d657261626c653a20676c6f62616c20696e646578206f60448201526b7574206f6620626f756e647360a01b6064820152fd5b50503461023f576106c86103a691610a0936610ea5565b91925192610a1684610f04565b8684526106b86106b38433611242565b50913461054f578160031936011261054f57610a40610e74565b60243590610a4d8161100b565b821015610a7b576001600160a01b031682526006602090815283832091835290815290829020548251908152f35b835162461bcd60e51b8152602081870152602b60248201527f455243373231456e756d657261626c653a206f776e657220696e646578206f7560448201526a74206f6620626f756e647360a81b6064820152608490fd5b50503461023f578160031936011261023f57602090600d549051908152f35b833461054f576103a6610b0336610ea5565b91610b116106b38433611242565b61130a565b50503461023f578160031936011261023f576020906008549051908152f35b50503461023f578160031936011261023f57517f00000000000000000000000000000000000000000000000000000000000000006001600160a01b03168152602090f35b50346101eb57816003193601126101eb57610b92610e74565b6024359290916001600160a01b0391908280610bad876110ce565b16941693808514610c9957803314908115610c7a575b5015610c1257848652602052842080546001600160a01b03191683179055610bea836110ce565b167f8c5be1e5ebec7d5bd14f71427d1e84f3dd0314c0f7b2291e5b200ac8c7c3b9258480a480f35b6020608492519162461bcd60e51b8352820152603d60248201527f4552433732313a20617070726f76652063616c6c6572206973206e6f7420746f60448201527f6b656e206f776e6572206f7220617070726f76656420666f7220616c6c0000006064820152fd5b90508652600560205281862033875260205260ff828720541638610bc3565b506020608492519162461bcd60e51b8352820152602160248201527f4552433732313a20617070726f76616c20746f2063757272656e74206f776e656044820152603960f91b6064820152fd5b50913461054f57602036600319011261054f575061094e6020923561112b565b50503461023f578160031936011261023f57805190828054610d27816110f1565b808552916001918083169081156108535750600114610d52575050506107e5826104e1940383610f20565b80809650527f290decd9548b62a8d60345a988386fc84ba6bc95484008f6362f93160ef3e5635b828610610d96575050506107e58260206104e195820101946107d3565b80546020878701810191909152909501948101610d79565b925050346101eb5760203660031901126101eb573563ffffffff60e01b81168091036101eb576020925063780e9d6360e01b8114908115610df1575b5015158152f35b6380ac58cd60e01b811491508115610e23575b8115610e12575b5038610dea565b6301ffc9a760e01b14905038610e0b565b635b5e139f60e01b81149150610e04565b919082519283825260005b848110610e60575050826000602080949584010152601f8019910116010190565b602081830181015184830182015201610e3f565b600435906001600160a01b0382168203610e8a57565b600080fd5b602435906001600160a01b0382168203610e8a57565b6060906003190112610e8a576001600160a01b03906004358281168103610e8a57916024359081168103610e8a579060443590565b67ffffffffffffffff8111610eee57604052565b634e487b7160e01b600052604160045260246000fd5b6020810190811067ffffffffffffffff821117610eee57604052565b90601f8019910116810190811067ffffffffffffffff821117610eee57604052565b67ffffffffffffffff8111610eee57601f01601f191660200190565b929192610f6a82610f42565b91610f786040519384610f20565b829481845281830111610e8a578281602093846000960137010152565b9080601f83011215610e8a57816020610fb093359101610f5e565b90565b600b546001600160a01b03163303610fc757565b606460405162461bcd60e51b815260206004820152602060248201527f4f776e61626c653a2063616c6c6572206973206e6f7420746865206f776e65726044820152fd5b6001600160a01b0316801561102b57600052600360205260406000205490565b60405162461bcd60e51b815260206004820152602960248201527f4552433732313a2061646472657373207a65726f206973206e6f7420612076616044820152683634b21037bbb732b960b91b6064820152608490fd5b1561108957565b60405162461bcd60e51b815260206004820152601860248201527f4552433732313a20696e76616c696420746f6b656e20494400000000000000006044820152606490fd5b6000908152600260205260409020546001600160a01b0316610fb0811515611082565b90600182811c92168015611121575b602083101461110b57565b634e487b7160e01b600052602260045260246000fd5b91607f1691611100565b60008181526002602052604090205461114e906001600160a01b03161515611082565b6000908152600460205260409020546001600160a01b031690565b1561117057565b60405162461bcd60e51b815260206004820152602d60248201527f4552433732313a2063616c6c6572206973206e6f7420746f6b656e206f776e6560448201526c1c881bdc88185c1c1c9bdd9959609a1b6064820152608490fd5b60809060208152603260208201527f4552433732313a207472616e7366657220746f206e6f6e20455243373231526560408201527131b2b4bb32b91034b6b83632b6b2b73a32b960711b60608201520190565b1561122557565b60405162461bcd60e51b81528061123e600482016111cb565b0390fd5b906001600160a01b038080611256846110ce565b16931691838314938415611289575b508315611273575b50505090565b61127f9192935061112b565b161438808061126d565b909350600052600560205260406000208260005260205260ff604060002054169238611265565b156112b757565b60405162461bcd60e51b815260206004820152602560248201527f4552433732313a207472616e736665722066726f6d20696e636f72726563742060448201526437bbb732b960d91b6064820152608490fd5b61132e91611317846110ce565b6001600160a01b03938484169391851684146112b0565b83821693841561151b57839182611462575090506008549085600052600960205281604060002055600160401b821015610eee576113af926113968761137b856001899701600855611713565b90919082549060031b600019811b9283911b16911916179055565b82860361142f575b506113a8866110ce565b16146112b0565b7fddf252ad1be2c89b69c2b068fc378daa952ba7f163c4a11628f55a4df523b3ef60008481526004602052604081206bffffffffffffffffffffffff60a01b9081815416905583825260036020526040822060001981540190558482526040822060018154019055858252600260205284604083209182541617905580a4565b6114389061100b565b6040600087815260066020528181208382526020528882822055888152600760205220553861139e565b858303611474575b506113af92611396565b61147f91925061100b565b600019810191908211611505576113af92849260009088825260209060078252604091828420548281036114ce575b508a8452838381205586845260068152828420918452528120559261146a565b87855260068252838520838652825283852054888652600683528486208287528352808587205585526007825283852055386114ae565b634e487b7160e01b600052601160045260246000fd5b60405162461bcd60e51b8152602060048201526024808201527f4552433732313a207472616e7366657220746f20746865207a65726f206164646044820152637265737360e01b6064820152608490fd5b9192600092909190803b1561167e576115ba946040518092630a85bd0160e11b9485835233600484015287602484015260448301526080606483015281878160209a8b966084830190610e34565b03926001600160a01b03165af184918161163e575b5061162d575050503d600014611625573d6115e981610f42565b906115f76040519283610f20565b81528091833d92013e5b805191826116225760405162461bcd60e51b81528061123e600482016111cb565b01fd5b506060611601565b6001600160e01b0319161492509050565b9091508581813d8311611677575b6116568183610f20565b810103126103c657516001600160e01b0319811681036103c65790386115cf565b503d61164c565b5050915050600190565b9293600093909291803b15611708579484916116e29660405180948193630a85bd0160e11b9788845233600485015260018060a01b0380921660248501526044840152608060648401528260209b8c976084830190610e34565b0393165af184918161163e575061162d575050503d600014611625573d6115e981610f42565b505050915050600190565b60085481101561174a5760086000527ff3f7a9fe364faab93b216da50a3214154f22a0a2b415b23a84c8169e8b636ee30190600090565b634e487b7160e01b600052603260045260246000fd5b9060409182519261177084610f04565b60008085526001600160a01b0383169182156118a0576000858152600260205260409020546117ab906001600160a01b031615155b156118e3565b600854858352602090600982528083852055600160401b81101561188c579286949192600286946117ee6106c89a61137b89600161188a9f9d9b01600855611713565b6117f78761100b565b858552600682528385208186528252838520879055868552600782528385205560008681526002602052604090205461183a906001600160a01b031615156117a5565b848452600381528284208054600101905585845252812080546001600160a01b031916831790557fddf252ad1be2c89b69c2b068fc378daa952ba7f163c4a11628f55a4df523b3ef8180a461156c565b565b634e487b7160e01b84526041600452602484fd5b5162461bcd60e51b815260206004820181905260248201527f4552433732313a206d696e7420746f20746865207a65726f20616464726573736044820152606490fd5b156118ea57565b60405162461bcd60e51b815260206004820152601c60248201527f4552433732313a20746f6b656e20616c7265616479206d696e746564000000006044820152606490fd5b6000818152600260205260409020549192916001600160a01b031615611a77576000908152602092600a8452604082209181519167ffffffffffffffff8311611a635761197c84546110f1565b601f8111611a20575b508591601f84116001146119bf578394959650926119b4575b50508160011b916000199060031b1c1916179055565b01519050388061199e565b9190601f1984169685845280842093905b888210611a08575050836001959697106119ef575b505050811b019055565b015160001960f88460031b161c191690553880806119e5565b806001859682949686015181550195019301906119d0565b848352868320601f850160051c810191888610611a59575b601f0160051c01905b818110611a4e5750611985565b838155600101611a41565b9091508190611a38565b634e487b7160e01b82526041600452602482fd5b60405162461bcd60e51b815260206004820152602e60248201527f45524337323155524953746f726167653a2055524920736574206f66206e6f6e60448201526d32bc34b9ba32b73a103a37b5b2b760911b6064820152608490fdfea264697066735822122022b9da1341d1ac01d0342dc02f9bc6e1767dd848f3787112c47e378d059e83ce64736f6c63430008110033",
  "linkReferences": {},
  "deployedLinkReferences": {}
}